{"contracts/CommitRecover.sol":{"CommitRecover":{"abi":[{"inputs":[],"stateMutability":"nonpayable","type":"constructor"},{"anonymous":false,"inputs":[{"indexed":false,"internalType":"uint256","name":"round","type":"uint256"},{"indexed":false,"internalType":"uint256","name":"omega","type":"uint256"},{"indexed":false,"internalType":"uint256","name":"calculatedTimestamp","type":"uint256"},{"indexed":false,"internalType":"bool","name":"isCompleted","type":"bool"}],"name":"CalculatedOmega","type":"event"},{"anonymous":false,"inputs":[{"indexed":false,"internalType":"address","name":"participant","type":"address"},{"indexed":false,"internalType":"uint256","name":"commit","type":"uint256"},{"indexed":false,"internalType":"string","name":"commitsString","type":"string"},{"indexed":false,"internalType":"uint256","name":"commitCount","type":"uint256"},{"indexed":false,"internalType":"uint256","name":"commitTimestamp","type":"uint256"}],"name":"CommitC","type":"event"},{"anonymous":false,"inputs":[{"indexed":true,"internalType":"address","name":"previousOwner","type":"address"},{"indexed":true,"internalType":"address","name":"newOwner","type":"address"}],"name":"OwnershipTransferred","type":"event"},{"anonymous":false,"inputs":[{"indexed":false,"internalType":"address","name":"msgSender","type":"address"},{"indexed":false,"internalType":"uint256","name":"recov","type":"uint256"},{"indexed":false,"internalType":"uint256","name":"omegaRecov","type":"uint256"},{"indexed":false,"internalType":"uint256","name":"recoveredTimestamp","type":"uint256"}],"name":"Recovered","type":"event"},{"anonymous":false,"inputs":[{"indexed":false,"internalType":"address","name":"participant","type":"address"},{"indexed":false,"internalType":"uint256","name":"a","type":"uint256"},{"indexed":false,"internalType":"uint256","name":"revealLeftCount","type":"uint256"},{"indexed":false,"internalType":"uint256","name":"revealTimestamp","type":"uint256"}],"name":"RevealA","type":"event"},{"anonymous":false,"inputs":[{"indexed":false,"internalType":"address","name":"msgSender","type":"address"},{"indexed":false,"internalType":"uint256","name":"startTime","type":"uint256"},{"indexed":false,"internalType":"uint256","name":"commitDuration","type":"uint256"},{"indexed":false,"internalType":"uint256","name":"commitRevealDuration","type":"uint256"},{"indexed":false,"internalType":"uint256","name":"n","type":"uint256"},{"indexed":false,"internalType":"uint256","name":"g","type":"uint256"},{"indexed":false,"internalType":"uint256","name":"h","type":"uint256"},{"indexed":false,"internalType":"uint256","name":"T","type":"uint256"},{"indexed":false,"internalType":"uint256","name":"round","type":"uint256"}],"name":"Start","type":"event"},{"inputs":[],"name":"calculateOmega","outputs":[{"internalType":"uint256","name":"","type":"uint256"}],"stateMutability":"nonpayable","type":"function"},{"inputs":[],"name":"checkStage","outputs":[],"stateMutability":"nonpayable","type":"function"},{"inputs":[{"internalType":"uint256","name":"_commit","type":"uint256"}],"name":"commit","outputs":[],"stateMutability":"nonpayable","type":"function"},{"inputs":[],"name":"commitDuration","outputs":[{"internalType":"uint256","name":"","type":"uint256"}],"stateMutability":"view","type":"function"},{"inputs":[],"name":"commitRevealDuration","outputs":[{"internalType":"uint256","name":"","type":"uint256"}],"stateMutability":"view","type":"function"},{"inputs":[{"internalType":"uint256","name":"round","type":"uint256"},{"internalType":"uint256","name":"index","type":"uint256"}],"name":"commitRevealValues","outputs":[{"internalType":"uint256","name":"c","type":"uint256"},{"internalType":"uint256","name":"a","type":"uint256"},{"internalType":"address","name":"participantAddress","type":"address"}],"stateMutability":"view","type":"function"},{"inputs":[],"name":"commitsString","outputs":[{"internalType":"string","name":"","type":"string"}],"stateMutability":"view","type":"function"},{"inputs":[],"name":"count","outputs":[{"internalType":"uint256","name":"","type":"uint256"}],"stateMutability":"view","type":"function"},{"inputs":[],"name":"owner","outputs":[{"internalType":"address","name":"","type":"address"}],"stateMutability":"view","type":"function"},{"inputs":[{"internalType":"uint256","name":"_round","type":"uint256"},{"components":[{"internalType":"uint256","name":"n","type":"uint256"},{"internalType":"uint256","name":"x","type":"uint256"},{"internalType":"uint256","name":"y","type":"uint256"},{"internalType":"uint256","name":"T","type":"uint256"},{"internalType":"uint256","name":"v","type":"uint256"}],"internalType":"struct Pietrzak_VDF.VDFClaim[]","name":"proofs","type":"tuple[]"}],"name":"recover","outputs":[],"stateMutability":"nonpayable","type":"function"},{"inputs":[],"name":"renounceOwnership","outputs":[],"stateMutability":"nonpayable","type":"function"},{"inputs":[{"internalType":"uint256","name":"_a","type":"uint256"}],"name":"reveal","outputs":[],"stateMutability":"nonpayable","type":"function"},{"inputs":[],"name":"round","outputs":[{"internalType":"uint256","name":"","type":"uint256"}],"stateMutability":"view","type":"function"},{"inputs":[],"name":"stage","outputs":[{"internalType":"enum CommitRecover.Stages","name":"","type":"uint8"}],"stateMutability":"view","type":"function"},{"inputs":[{"internalType":"uint256","name":"_commitDuration","type":"uint256"},{"internalType":"uint256","name":"_commitRevealDuration","type":"uint256"},{"internalType":"uint256","name":"_n","type":"uint256"},{"components":[{"internalType":"uint256","name":"n","type":"uint256"},{"internalType":"uint256","name":"x","type":"uint256"},{"internalType":"uint256","name":"y","type":"uint256"},{"internalType":"uint256","name":"T","type":"uint256"},{"internalType":"uint256","name":"v","type":"uint256"}],"internalType":"struct Pietrzak_VDF.VDFClaim[]","name":"_proofs","type":"tuple[]"}],"name":"start","outputs":[],"stateMutability":"nonpayable","type":"function"},{"inputs":[],"name":"startTime","outputs":[{"internalType":"uint256","name":"","type":"uint256"}],"stateMutability":"view","type":"function"},{"inputs":[{"internalType":"address","name":"newOwner","type":"address"}],"name":"transferOwnership","outputs":[],"stateMutability":"nonpayable","type":"function"},{"inputs":[{"internalType":"address","name":"owner","type":"address"},{"internalType":"uint256","name":"round","type":"uint256"}],"name":"userInfosAtRound","outputs":[{"internalType":"uint256","name":"index","type":"uint256"},{"internalType":"bool","name":"committed","type":"bool"},{"internalType":"bool","name":"revealed","type":"bool"}],"stateMutability":"view","type":"function"},{"inputs":[{"internalType":"uint256","name":"round","type":"uint256"}],"name":"valuesAtRound","outputs":[{"internalType":"uint256","name":"omega","type":"uint256"},{"internalType":"uint256","name":"bStar","type":"uint256"},{"internalType":"uint256","name":"numOfParticipants","type":"uint256"},{"internalType":"uint256","name":"g","type":"uint256"},{"internalType":"uint256","name":"h","type":"uint256"},{"internalType":"uint256","name":"n","type":"uint256"},{"internalType":"uint256","name":"T","type":"uint256"},{"internalType":"bool","name":"isCompleted","type":"bool"},{"internalType":"bool","name":"isAllRevealed","type":"bool"}],"stateMutability":"view","type":"function"}],"devdoc":{"author":"Justin g","kind":"dev","methods":{"commit(uint256)":{"params":{"_commit":"participant's commit value"}},"owner()":{"details":"Returns the address of the current owner."},"recover(uint256,(uint256,uint256,uint256,uint256,uint256)[])":{"params":{"proofs":"the proof of the recovered value"}},"renounceOwnership()":{"details":"Leaves the contract without owner. It will not be possible to call `onlyOwner` functions. Can only be called by the current owner. NOTE: Renouncing ownership will leave the contract without an owner, thereby disabling any functionality that is only available to the owner."},"reveal(uint256)":{"params":{"_a":"participant's reveal value"}},"transferOwnership(address)":{"details":"Transfers ownership of the contract to a new account (`newOwner`). Can only be called by the current owner."}},"title":"Bicorn-RX Commit-Reveal-Recover","version":1},"evm":{"bytecode":{"linkReferences":{},"object":"60806040523480156200001157600080fd5b5062000032620000266200006660201b60201c565b6200006e60201b60201c565b6002600760006101000a81548160ff021916908360028111156200005b576200005a62000132565b5b021790555062000161565b600033905090565b60008060009054906101000a900473ffffffffffffffffffffffffffffffffffffffff169050816000806101000a81548173ffffffffffffffffffffffffffffffffffffffff021916908373ffffffffffffffffffffffffffffffffffffffff1602179055508173ffffffffffffffffffffffffffffffffffffffff168173ffffffffffffffffffffffffffffffffffffffff167f8be0079c531659141344cd1fd0a4f28419497f9722a3daafe3b4186f6b6457e060405160405180910390a35050565b7f4e487b7100000000000000000000000000000000000000000000000000000000600052602160045260246000fd5b6137d680620001716000396000f3fe608060405234801561001057600080fd5b50600436106101215760003560e01c806378e97925116100ad578063c040e6b811610071578063c040e6b8146102e0578063c2ca0ac5146102fe578063dca669e41461031a578063f2fde38b14610338578063f4f98ad51461035457610121565b806378e979251461024c5780637f93c7511461026a5780638da5cb5b14610274578063a58be66114610292578063b0e9eb3f146102ae57610121565b806350d30cbf116100f457806350d30cbf146101b25780636f833811146101ce578063715018a6146101ec57806373fa4f46146101f657806377f0ade91461021457610121565b806306661abd1461012657806312ce990614610144578063146ca5311461016257806322fadc2814610180575b600080fd5b61012e610370565b60405161013b919061226f565b60405180910390f35b61014c610376565b604051610159919061226f565b60405180910390f35b61016a61066c565b604051610177919061226f565b60405180910390f35b61019a600480360381019061019591906122ca565b610672565b6040516101a99392919061234b565b60405180910390f35b6101cc60048036038101906101c791906123e7565b6106c9565b005b6101d6610ae8565b6040516101e3919061226f565b60405180910390f35b6101f4610aee565b005b6101fe610b02565b60405161020b919061226f565b60405180910390f35b61022e60048036038101906102299190612447565b610b08565b6040516102439998979695949392919061248f565b60405180910390f35b610254610b70565b604051610261919061226f565b60405180910390f35b610272610b76565b005b61027c610d13565b604051610289919061251c565b60405180910390f35b6102ac60048036038101906102a79190612717565b610d3c565b005b6102c860048036038101906102c391906127c6565b61105c565b6040516102d793929190612806565b60405180910390f35b6102e86110ad565b6040516102f591906128b4565b60405180910390f35b61031860048036038101906103139190612447565b6110c0565b005b61032261145b565b60405161032f919061294e565b60405180910390f35b610352600480360381019061034d9190612970565b6114e9565b005b61036e60048036038101906103699190612447565b61156c565b005b60045481565b60008060055490506009600082815260200190815260200160002060070160019054906101000a900460ff166103e1576040517f08c379a00000000000000000000000000000000000000000000000000000000081526004016103d8906129e9565b60405180910390fd5b6009600082815260200190815260200160002060070160009054906101000a900460ff1615610445576040517f08c379a000000000000000000000000000000000000000000000000000000000815260040161043c90612a55565b60405180910390fd5b61044d610b76565b6104576002611924565b6000600960008381526020019081526020016000206002015490506000600190506000600960008581526020019081526020016000206001015490506000600960006005548152602001908152602001600020600401549050600060096000600554815260200190815260200160002060050154905060006001905060005b868110156105ad5782806104ed576104ec612a75565b5b6105966105688686610525600860008f815260200190815260200160002060008881526020019081526020016000206000015461199c565b61052e8b61199c565b60405160200161053f929190612ae0565b6040516020818303038152906040528051906020012060001c6105629190612b04565b87611a6a565b600860008c815260200190815260200160002060008581526020019081526020016000206001015486611a6a565b8709955080806105a590612b64565b9150506104d6565b50846009600089815260200190815260200160002060000181905550806009600089815260200190815260200160002060070160006101000a81548160ff0219169083151502179055506002600760006101000a81548160ff0219169083600281111561061d5761061c61283d565b5b02179055507f31d4d513959d79380d7f8af557ac2408b4d6c2cf59af943dd997a11100520f66878642846040516106579493929190612bac565b60405180910390a18497505050505050505090565b60055481565b6008602052816000526040600020602052806000526040600020600091509150508060000154908060010154908060020160009054906101000a900473ffffffffffffffffffffffffffffffffffffffff16905083565b818160008181106106dd576106dc612bf1565b5b905060a0020160400135600960006005548152602001908152602001600020600501548110610741576040517f08c379a000000000000000000000000000000000000000000000000000000000815260040161073890612c6c565b60405180910390fd5b600060019050600060096000878152602001908152602001600020600501549050600060096000888152602001908152602001600020600101549050610785610b76565b61078f6000611acd565b6009600088815260200190815260200160002060070160009054906101000a900460ff16156107f3576040517f08c379a00000000000000000000000000000000000000000000000000000000081526004016107ea90612a55565b60405180910390fd5b8585600081811061080757610806612bf1565b5b905060a0020160600135600960008981526020019081526020016000206006015414610868576040517f08c379a000000000000000000000000000000000000000000000000000000000815260040161085f90612cd8565b60405180910390fd5b6108c78686808060200260200160405190810160405280939291908181526020016000905b828210156108bd57848483905060a002018036038101906108ae9190612cf8565b8152602001906001019061088d565b5050505050611b45565b5060005b6009600089815260200190815260200160002060020154811015610993576000600860008a81526020019081526020016000206000838152602001908152602001600020600001549050600061096882866109258561199c565b61092e8861199c565b60405160200161093f929190612ae0565b6040516020818303038152906040528051906020012060001c6109629190612b04565b87611a6a565b9050848061097957610978612a75565b5b81870995505050808061098b90612b64565b9150506108cb565b50858560008181106109a8576109a7612bf1565b5b905060a002016020013583146109f3576040517f08c379a00000000000000000000000000000000000000000000000000000000081526004016109ea90612d71565b60405180910390fd5b60016009600089815260200190815260200160002060070160006101000a81548160ff02191690831515021790555085856000818110610a3657610a35612bf1565b5b905060a002016040013560096000898152602001908152602001600020600001819055506002600760006101000a81548160ff02191690836002811115610a8057610a7f61283d565b5b02179055507f03fc2d4f2e2e4e84069307a4d3a9b7ad25d93e2026627031a87b54a1c61907ce338488886000818110610abc57610abb612bf1565b5b905060a002016040013542604051610ad79493929190612d91565b60405180910390a150505050505050565b60025481565b610af6611c8b565b610b006000611d09565b565b60035481565b60096020528060005260406000206000915090508060000154908060010154908060020154908060030154908060040154908060050154908060060154908060070160009054906101000a900460ff16908060070160019054906101000a900460ff16905089565b60015481565b6000600154905060006002811115610b9157610b9061283d565b5b600760009054906101000a900460ff166002811115610bb357610bb261283d565b5b148015610bcd575060025481610bc99190612dd6565b4210155b15610ca557600060045414610c7857610be4611dcd565b600454600960006005548152602001908152602001600020600201819055506000600960006005548152602001908152602001600020600501546006604051602001610c309190612f02565b6040516020818303038152906040528051906020012060001c610c539190612b04565b9050806009600060055481526020019081526020016000206001018190555050610ca4565b6002600760006101000a81548160ff02191690836002811115610c9e57610c9d61283d565b5b02179055505b5b60016002811115610cb957610cb861283d565b5b600760009054906101000a900460ff166002811115610cdb57610cda61283d565b5b148015610d02575060035481610cf19190612dd6565b42101580610d0157506000600454145b5b15610d1057610d0f611dcd565b5b50565b60008060009054906101000a900473ffffffffffffffffffffffffffffffffffffffff16905090565b8181600081518110610d5157610d50612bf1565b5b60200260200101516020015110610d9d576040517f08c379a0000000000000000000000000000000000000000000000000000000008152600401610d9490612c6c565b60405180910390fd5b828410610ddf576040517f08c379a0000000000000000000000000000000000000000000000000000000008152600401610dd690612f8b565b60405180910390fd5b600280811115610df257610df161283d565b5b600760009054906101000a900460ff166002811115610e1457610e1361283d565b5b14610e54576040517f08c379a0000000000000000000000000000000000000000000000000000000008152600401610e4b90612ff7565b60405180910390fd5b610e5d81611b45565b50600160056000828254610e719190612dd6565b925050819055506000600760006101000a81548160ff02191690836002811115610e9e57610e9d61283d565b5b021790555042600181905550836002819055508260038190555080600081518110610ecc57610ecb612bf1565b5b6020026020010151606001516009600060055481526020019081526020016000206006018190555080600081518110610f0857610f07612bf1565b5b6020026020010151602001516009600060055481526020019081526020016000206003018190555080600081518110610f4457610f43612bf1565b5b60200260200101516040015160096000600554815260200190815260200160002060040181905550816009600060055481526020019081526020016000206005018190555060006004819055506040518060200160405280600081525060069081610faf91906131ae565b507f1a5e4fa05b9601af979a44c50ef7e103b9b51cd105eb42040b5817eb3e58449c334286868686600081518110610fea57610fe9612bf1565b5b6020026020010151602001518760008151811061100a57611009612bf1565b5b6020026020010151604001518860008151811061102a57611029612bf1565b5b60200260200101516060015160055460405161104e99989796959493929190613280565b60405180910390a150505050565b600a602052816000526040600020602052806000526040600020600091509150508060000154908060010160009054906101000a900460ff16908060010160019054906101000a900460ff16905083565b600760009054906101000a900460ff1681565b8060096000600554815260200190815260200160002060050154811061111b576040517f08c379a000000000000000000000000000000000000000000000000000000000815260040161111290612c6c565b60405180910390fd5b600060055490506000600a60003373ffffffffffffffffffffffffffffffffffffffff1673ffffffffffffffffffffffffffffffffffffffff1681526020019081526020016000206000838152602001908152602001600020604051806060016040529081600082015481526020016001820160009054906101000a900460ff161515151581526020016001820160019054906101000a900460ff16151515158152505090508060200151611205576040517f08c379a00000000000000000000000000000000000000000000000000000000081526004016111fc90613359565b60405180910390fd5b80604001511561124a576040517f08c379a0000000000000000000000000000000000000000000000000000000008152600401611241906133c5565b60405180910390fd5b60086000838152602001908152602001600020600082600001518152602001908152602001600020600001546112ad6009600085815260200190815260200160002060030154866009600087815260200190815260200160002060050154611a6a565b146112ed576040517f08c379a00000000000000000000000000000000000000000000000000000000081526004016112e490613431565b60405180910390fd5b6112f5610b76565b6112ff6001611924565b600060046000815461131090613451565b9190508190559050846008600085815260200190815260200160002060008460000151815260200190815260200160002060010181905550600081036113ab576002600760006101000a81548160ff021916908360028111156113765761137561283d565b5b021790555060016009600085815260200190815260200160002060070160016101000a81548160ff0219169083151502179055505b6001600a60003373ffffffffffffffffffffffffffffffffffffffff1673ffffffffffffffffffffffffffffffffffffffff168152602001908152602001600020600085815260200190815260200160002060010160016101000a81548160ff0219169083151502179055507f0167147e5476fb37532a0aab79dea3eb6b8fe0fbd723ac6025b0de29237b04963386834260405161144c9493929190612d91565b60405180910390a15050505050565b6006805461146890612e39565b80601f016020809104026020016040519081016040528092919081815260200182805461149490612e39565b80156114e15780601f106114b6576101008083540402835291602001916114e1565b820191906000526020600020905b8154815290600101906020018083116114c457829003601f168201915b505050505081565b6114f1611c8b565b600073ffffffffffffffffffffffffffffffffffffffff168173ffffffffffffffffffffffffffffffffffffffff1603611560576040517f08c379a0000000000000000000000000000000000000000000000000000000008152600401611557906134ec565b60405180910390fd5b61156981611d09565b50565b806009600060055481526020019081526020016000206005015481106115c7576040517f08c379a00000000000000000000000000000000000000000000000000000000081526004016115be90612c6c565b60405180910390fd5b6115cf611c8b565b600a60003373ffffffffffffffffffffffffffffffffffffffff1673ffffffffffffffffffffffffffffffffffffffff1681526020019081526020016000206000600554815260200190815260200160002060010160009054906101000a900460ff1615611672576040517f08c379a000000000000000000000000000000000000000000000000000000000815260040161166990613558565b60405180910390fd5b61167a610b76565b6116846000611924565b6000600454905060006006805461169a90612e39565b80601f01602080910402602001604051908101604052809291908181526020018280546116c690612e39565b80156117135780601f106116e857610100808354040283529160200191611713565b820191906000526020600020905b8154815290600101906020018083116116f657829003601f168201915b50505050509050806117248561199c565b604051602001611735929190612ae0565b6040516020818303038152906040529050604051806060016040528083815260200160011515815260200160001515815250600a60003373ffffffffffffffffffffffffffffffffffffffff1673ffffffffffffffffffffffffffffffffffffffff168152602001908152602001600020600060055481526020019081526020016000206000820151816000015560208201518160010160006101000a81548160ff02191690831515021790555060408201518160010160016101000a81548160ff0219169083151502179055509050506040518060600160405280858152602001600081526020013373ffffffffffffffffffffffffffffffffffffffff168152506008600060055481526020019081526020016000206000848152602001908152602001600020600082015181600001556020820151816001015560408201518160020160006101000a81548173ffffffffffffffffffffffffffffffffffffffff021916908373ffffffffffffffffffffffffffffffffffffffff16021790555090505080600690816118cb91906131ae565b50816118d690612b64565b9150816004819055507fbd41a700367cdf3254812a81baad606f9d6102e946f1bb28aab0a4afe25ef0c93385838542604051611916959493929190613578565b60405180910390a150505050565b8060028111156119375761193661283d565b5b600760009054906101000a900460ff1660028111156119595761195861283d565b5b14611999576040517f08c379a00000000000000000000000000000000000000000000000000000000081526004016119909061361e565b60405180910390fd5b50565b6060600060016119ab84611eb4565b01905060008167ffffffffffffffff8111156119ca576119c9612548565b5b6040519080825280601f01601f1916602001820160405280156119fc5781602001600182028036833780820191505090505b509050600082602001820190505b600115611a5f578080600190039150507f3031323334353637383961626364656600000000000000000000000000000000600a86061a8153600a8581611a5357611a52612a75565b5b04945060008503611a0a575b819350505050919050565b600080600190505b6000841115611ac257600180851603611a9a578280611a9457611a93612a75565b5b85820990505b8280611aa957611aa8612a75565b5b8586099450600284611abb919061363e565b9350611a72565b809150509392505050565b806002811115611ae057611adf61283d565b5b600760009054906101000a900460ff166002811115611b0257611b0161283d565b5b11611b42576040517f08c379a0000000000000000000000000000000000000000000000000000000008152600401611b399061361e565b60405180910390fd5b50565b6000808251905060005b81811015611c7f576000611b7c858381518110611b6f57611b6e612bf1565b5b6020026020010151612007565b90508060000151611b935760009350505050611c86565b8060200151611ba85760019350505050611c86565b84600183611bb69190612dd6565b81518110611bc757611bc6612bf1565b5b602002602001015160200151816040015114611be95760009350505050611c86565b84600183611bf79190612dd6565b81518110611c0857611c07612bf1565b5b602002602001015160400151816060015114611c2a5760009350505050611c86565b84600183611c389190612dd6565b81518110611c4957611c48612bf1565b5b602002602001015160600151816080015114611c6b5760009350505050611c86565b508080611c7790612b64565b915050611b4f565b5060019150505b919050565b611c936121dc565b73ffffffffffffffffffffffffffffffffffffffff16611cb1610d13565b73ffffffffffffffffffffffffffffffffffffffff1614611d07576040517f08c379a0000000000000000000000000000000000000000000000000000000008152600401611cfe906136bb565b60405180910390fd5b565b60008060009054906101000a900473ffffffffffffffffffffffffffffffffffffffff169050816000806101000a81548173ffffffffffffffffffffffffffffffffffffffff021916908373ffffffffffffffffffffffffffffffffffffffff1602179055508173ffffffffffffffffffffffffffffffffffffffff168173ffffffffffffffffffffffffffffffffffffffff167f8be0079c531659141344cd1fd0a4f28419497f9722a3daafe3b4186f6b6457e060405160405180910390a35050565b600280811115611de057611ddf61283d565b5b600760009054906101000a900460ff166002811115611e0257611e0161283d565b5b03611e42576040517f08c379a0000000000000000000000000000000000000000000000000000000008152600401611e3990613727565b60405180910390fd5b600380611e5257611e51612a75565b5b6001600760009054906101000a900460ff166002811115611e7657611e7561283d565b5b086002811115611e8957611e8861283d565b5b600760006101000a81548160ff02191690836002811115611ead57611eac61283d565b5b0217905550565b600080600090507a184f03e93ff9f4daa797ed6e38ed64bf6a1f0100000000000000008310611f12577a184f03e93ff9f4daa797ed6e38ed64bf6a1f0100000000000000008381611f0857611f07612a75565b5b0492506040810190505b6d04ee2d6d415b85acef81000000008310611f4f576d04ee2d6d415b85acef81000000008381611f4557611f44612a75565b5b0492506020810190505b662386f26fc100008310611f7e57662386f26fc100008381611f7457611f73612a75565b5b0492506010810190505b6305f5e1008310611fa7576305f5e1008381611f9d57611f9c612a75565b5b0492506008810190505b6127108310611fcc576127108381611fc257611fc1612a75565b5b0492506004810190505b60648310611fef5760648381611fe557611fe4612a75565b5b0492506002810190505b600a8310611ffe576001810190505b80915050919050565b61200f612223565b60018260600151036120a75761202f826020015160028460000151611a6a565b826040015103612070576040518060a001604052806001151581526020016000151581526020016000815260200160008152602001600081525090506121d7565b6040518060a001604052806000151581526020016000151581526020016000815260200160008152602001600081525090506121d7565b6000808360400151905060006120fa85602001516120c8876040015161199c565b6120d5886080015161199c565b6040516020016120e6929190612ae0565b6040516020818303038152906040526121e4565b90506000600186606001511603612123576002856060015161211c919061363e565b9250612160565b6002600186606001516121369190612dd6565b612140919061363e565b9250846000015182836121539190613747565b61215d9190612b04565b91505b6040518060a001604052806001151581526020016001151581526020016121a26121938860200151858a60000151611a6a565b88608001518960000151611a6a565b81526020016121c86121bd8860800151858a60000151611a6a565b858960000151611a6a565b81526020018481525093505050505b919050565b600033905090565b600082826040516020016121f89190613789565b6040516020818303038152906040528051906020012060001c61221b9190612b04565b905092915050565b6040518060a001604052806000151581526020016000151581526020016000815260200160008152602001600081525090565b6000819050919050565b61226981612256565b82525050565b60006020820190506122846000830184612260565b92915050565b6000604051905090565b600080fd5b600080fd5b6122a781612256565b81146122b257600080fd5b50565b6000813590506122c48161229e565b92915050565b600080604083850312156122e1576122e0612294565b5b60006122ef858286016122b5565b9250506020612300858286016122b5565b9150509250929050565b600073ffffffffffffffffffffffffffffffffffffffff82169050919050565b60006123358261230a565b9050919050565b6123458161232a565b82525050565b60006060820190506123606000830186612260565b61236d6020830185612260565b61237a604083018461233c565b949350505050565b600080fd5b600080fd5b600080fd5b60008083601f8401126123a7576123a6612382565b5b8235905067ffffffffffffffff8111156123c4576123c3612387565b5b6020830191508360a08202830111156123e0576123df61238c565b5b9250929050565b600080600060408486031215612400576123ff612294565b5b600061240e868287016122b5565b935050602084013567ffffffffffffffff81111561242f5761242e612299565b5b61243b86828701612391565b92509250509250925092565b60006020828403121561245d5761245c612294565b5b600061246b848285016122b5565b91505092915050565b60008115159050919050565b61248981612474565b82525050565b6000610120820190506124a5600083018c612260565b6124b2602083018b612260565b6124bf604083018a612260565b6124cc6060830189612260565b6124d96080830188612260565b6124e660a0830187612260565b6124f360c0830186612260565b61250060e0830185612480565b61250e610100830184612480565b9a9950505050505050505050565b6000602082019050612531600083018461233c565b92915050565b6000601f19601f8301169050919050565b7f4e487b7100000000000000000000000000000000000000000000000000000000600052604160045260246000fd5b61258082612537565b810181811067ffffffffffffffff8211171561259f5761259e612548565b5b80604052505050565b60006125b261228a565b90506125be8282612577565b919050565b600067ffffffffffffffff8211156125de576125dd612548565b5b602082029050602081019050919050565b600080fd5b600060a0828403121561260a576126096125ef565b5b61261460a06125a8565b90506000612624848285016122b5565b6000830152506020612638848285016122b5565b602083015250604061264c848285016122b5565b6040830152506060612660848285016122b5565b6060830152506080612674848285016122b5565b60808301525092915050565b600061269361268e846125c3565b6125a8565b90508083825260208201905060a084028301858111156126b6576126b561238c565b5b835b818110156126df57806126cb88826125f4565b84526020840193505060a0810190506126b8565b5050509392505050565b600082601f8301126126fe576126fd612382565b5b813561270e848260208601612680565b91505092915050565b6000806000806080858703121561273157612730612294565b5b600061273f878288016122b5565b9450506020612750878288016122b5565b9350506040612761878288016122b5565b925050606085013567ffffffffffffffff81111561278257612781612299565b5b61278e878288016126e9565b91505092959194509250565b6127a38161232a565b81146127ae57600080fd5b50565b6000813590506127c08161279a565b92915050565b600080604083850312156127dd576127dc612294565b5b60006127eb858286016127b1565b92505060206127fc858286016122b5565b9150509250929050565b600060608201905061281b6000830186612260565b6128286020830185612480565b6128356040830184612480565b949350505050565b7f4e487b7100000000000000000000000000000000000000000000000000000000600052602160045260246000fd5b6003811061287d5761287c61283d565b5b50565b600081905061288e8261286c565b919050565b600061289e82612880565b9050919050565b6128ae81612893565b82525050565b60006020820190506128c960008301846128a5565b92915050565b600081519050919050565b600082825260208201905092915050565b60005b838110156129095780820151818401526020810190506128ee565b60008484015250505050565b6000612920826128cf565b61292a81856128da565b935061293a8185602086016128eb565b61294381612537565b840191505092915050565b600060208201905081810360008301526129688184612915565b905092915050565b60006020828403121561298657612985612294565b5b6000612994848285016127b1565b91505092915050565b7f4e6f74416c6c52657665616c6564000000000000000000000000000000000000600082015250565b60006129d3600e836128da565b91506129de8261299d565b602082019050919050565b60006020820190508181036000830152612a02816129c6565b9050919050565b7f4f6d656761416c7265616479436f6d706c657465640000000000000000000000600082015250565b6000612a3f6015836128da565b9150612a4a82612a09565b602082019050919050565b60006020820190508181036000830152612a6e81612a32565b9050919050565b7f4e487b7100000000000000000000000000000000000000000000000000000000600052601260045260246000fd5b600081905092915050565b6000612aba826128cf565b612ac48185612aa4565b9350612ad48185602086016128eb565b80840191505092915050565b6000612aec8285612aaf565b9150612af88284612aaf565b91508190509392505050565b6000612b0f82612256565b9150612b1a83612256565b925082612b2a57612b29612a75565b5b828206905092915050565b7f4e487b7100000000000000000000000000000000000000000000000000000000600052601160045260246000fd5b6000612b6f82612256565b91507fffffffffffffffffffffffffffffffffffffffffffffffffffffffffffffffff8203612ba157612ba0612b35565b5b600182019050919050565b6000608082019050612bc16000830187612260565b612bce6020830186612260565b612bdb6040830185612260565b612be86060830184612480565b95945050505050565b7f4e487b7100000000000000000000000000000000000000000000000000000000600052603260045260246000fd5b7f477265617465724f72457175616c5468616e4e00000000000000000000000000600082015250565b6000612c566013836128da565b9150612c6182612c20565b602082019050919050565b60006020820190508181036000830152612c8581612c49565b9050919050565b7f544e6f744d617463686564000000000000000000000000000000000000000000600082015250565b6000612cc2600b836128da565b9150612ccd82612c8c565b602082019050919050565b60006020820190508181036000830152612cf181612cb5565b9050919050565b600060a08284031215612d0e57612d0d612294565b5b6000612d1c848285016125f4565b91505092915050565b7f5265636f764e6f744d6174636858000000000000000000000000000000000000600082015250565b6000612d5b600e836128da565b9150612d6682612d25565b602082019050919050565b60006020820190508181036000830152612d8a81612d4e565b9050919050565b6000608082019050612da6600083018761233c565b612db36020830186612260565b612dc06040830185612260565b612dcd6060830184612260565b95945050505050565b6000612de182612256565b9150612dec83612256565b9250828201905080821115612e0457612e03612b35565b5b92915050565b7f4e487b7100000000000000000000000000000000000000000000000000000000600052602260045260246000fd5b60006002820490506001821680612e5157607f821691505b602082108103612e6457612e63612e0a565b5b50919050565b60008190508160005260206000209050919050565b60008154612e8c81612e39565b612e968186612aa4565b94506001821660008114612eb15760018114612ec657612ef9565b60ff1983168652811515820286019350612ef9565b612ecf85612e6a565b60005b83811015612ef157815481890152600182019150602081019050612ed2565b838801955050505b50505092915050565b6000612f0e8284612e7f565b915081905092915050565b7f436f6d6d697452657665616c4475726174696f6e4c6573735468616e436f6d6d60008201527f69744475726174696f6e00000000000000000000000000000000000000000000602082015250565b6000612f75602a836128da565b9150612f8082612f19565b604082019050919050565b60006020820190508181036000830152612fa481612f68565b9050919050565b7f53746167654e6f7446696e697368656400000000000000000000000000000000600082015250565b6000612fe16010836128da565b9150612fec82612fab565b602082019050919050565b6000602082019050818103600083015261301081612fd4565b9050919050565b60006020601f8301049050919050565b600082821b905092915050565b6000600883026130647fffffffffffffffffffffffffffffffffffffffffffffffffffffffffffffffff82613027565b61306e8683613027565b95508019841693508086168417925050509392505050565b6000819050919050565b60006130ab6130a66130a184612256565b613086565b612256565b9050919050565b6000819050919050565b6130c583613090565b6130d96130d1826130b2565b848454613034565b825550505050565b600090565b6130ee6130e1565b6130f98184846130bc565b505050565b5b8181101561311d576131126000826130e6565b6001810190506130ff565b5050565b601f8211156131625761313381612e6a565b61313c84613017565b8101602085101561314b578190505b61315f61315785613017565b8301826130fe565b50505b505050565b600082821c905092915050565b600061318560001984600802613167565b1980831691505092915050565b600061319e8383613174565b9150826002028217905092915050565b6131b7826128cf565b67ffffffffffffffff8111156131d0576131cf612548565b5b6131da8254612e39565b6131e5828285613121565b600060209050601f8311600181146132185760008415613206578287015190505b6132108582613192565b865550613278565b601f19841661322686612e6a565b60005b8281101561324e57848901518255600182019150602085019450602081019050613229565b8683101561326b5784890151613267601f891682613174565b8355505b6001600288020188555050505b505050505050565b600061012082019050613296600083018c61233c565b6132a3602083018b612260565b6132b0604083018a612260565b6132bd6060830189612260565b6132ca6080830188612260565b6132d760a0830187612260565b6132e460c0830186612260565b6132f160e0830185612260565b6132ff610100830184612260565b9a9950505050505050505050565b7f4e6f74436f6d6d69747465645061727469636970616e74000000000000000000600082015250565b60006133436017836128da565b915061334e8261330d565b602082019050919050565b6000602082019050818103600083015261337281613336565b9050919050565b7f416c726561647952657665616c65640000000000000000000000000000000000600082015250565b60006133af600f836128da565b91506133ba82613379565b602082019050919050565b600060208201905081810360008301526133de816133a2565b9050919050565b7f414e6f744d61746368436f6d6d69740000000000000000000000000000000000600082015250565b600061341b600f836128da565b9150613426826133e5565b602082019050919050565b6000602082019050818103600083015261344a8161340e565b9050919050565b600061345c82612256565b91506000820361346f5761346e612b35565b5b600182039050919050565b7f4f776e61626c653a206e6577206f776e657220697320746865207a65726f206160008201527f6464726573730000000000000000000000000000000000000000000000000000602082015250565b60006134d66026836128da565b91506134e18261347a565b604082019050919050565b60006020820190508181036000830152613505816134c9565b9050919050565b7f416c7265616479436f6d6d697474656400000000000000000000000000000000600082015250565b60006135426010836128da565b915061354d8261350c565b602082019050919050565b6000602082019050818103600083015261357181613535565b9050919050565b600060a08201905061358d600083018861233c565b61359a6020830187612260565b81810360408301526135ac8186612915565b90506135bb6060830185612260565b6135c86080830184612260565b9695505050505050565b7f46756e6374696f6e496e76616c69644174546869735374616765000000000000600082015250565b6000613608601a836128da565b9150613613826135d2565b602082019050919050565b60006020820190508181036000830152613637816135fb565b9050919050565b600061364982612256565b915061365483612256565b92508261366457613663612a75565b5b828204905092915050565b7f4f776e61626c653a2063616c6c6572206973206e6f7420746865206f776e6572600082015250565b60006136a56020836128da565b91506136b08261366f565b602082019050919050565b600060208201905081810360008301526136d481613698565b9050919050565b7f416c6c46696e6973686564000000000000000000000000000000000000000000600082015250565b6000613711600b836128da565b915061371c826136db565b602082019050919050565b6000602082019050818103600083015261374081613704565b9050919050565b600061375282612256565b915061375d83612256565b925082820261376b81612256565b9150828204841483151761378257613781612b35565b5b5092915050565b60006137958284612aaf565b91508190509291505056fea2646970667358221220fd313f07d78b47a9663c8f84dd0dad201eb01f842464054464cf9c9a0e3ebca864736f6c63430008130033","opcodes":"PUSH1 0x80 PUSH1 0x40 MSTORE CALLVALUE DUP1 ISZERO PUSH3 0x11 JUMPI PUSH1 0x0 DUP1 REVERT JUMPDEST POP PUSH3 0x32 PUSH3 0x26 PUSH3 0x66 PUSH1 0x20 SHL PUSH1 0x20 SHR JUMP JUMPDEST PUSH3 0x6E PUSH1 0x20 SHL PUSH1 0x20 SHR JUMP JUMPDEST PUSH1 0x2 PUSH1 0x7 PUSH1 0x0 PUSH2 0x100 EXP DUP2 SLOAD DUP2 PUSH1 0xFF MUL NOT AND SWAP1 DUP4 PUSH1 0x2 DUP2 GT ISZERO PUSH3 0x5B JUMPI PUSH3 0x5A PUSH3 0x132 JUMP JUMPDEST JUMPDEST MUL OR SWAP1 SSTORE POP PUSH3 0x161 JUMP JUMPDEST PUSH1 0x0 CALLER SWAP1 POP SWAP1 JUMP JUMPDEST PUSH1 0x0 DUP1 PUSH1 0x0 SWAP1 SLOAD SWAP1 PUSH2 0x100 EXP SWAP1 DIV PUSH20 0xFFFFFFFFFFFFFFFFFFFFFFFFFFFFFFFFFFFFFFFF AND SWAP1 POP DUP2 PUSH1 0x0 DUP1 PUSH2 0x100 EXP DUP2 SLOAD DUP2 PUSH20 0xFFFFFFFFFFFFFFFFFFFFFFFFFFFFFFFFFFFFFFFF MUL NOT AND SWAP1 DUP4 PUSH20 0xFFFFFFFFFFFFFFFFFFFFFFFFFFFFFFFFFFFFFFFF AND MUL OR SWAP1 SSTORE POP DUP2 PUSH20 0xFFFFFFFFFFFFFFFFFFFFFFFFFFFFFFFFFFFFFFFF AND DUP2 PUSH20 0xFFFFFFFFFFFFFFFFFFFFFFFFFFFFFFFFFFFFFFFF AND PUSH32 0x8BE0079C531659141344CD1FD0A4F28419497F9722A3DAAFE3B4186F6B6457E0 PUSH1 0x40 MLOAD PUSH1 0x40 MLOAD DUP1 SWAP2 SUB SWAP1 LOG3 POP POP JUMP JUMPDEST PUSH32 0x4E487B7100000000000000000000000000000000000000000000000000000000 PUSH1 0x0 MSTORE PUSH1 0x21 PUSH1 0x4 MSTORE PUSH1 0x24 PUSH1 0x0 REVERT JUMPDEST PUSH2 0x37D6 DUP1 PUSH3 0x171 PUSH1 0x0 CODECOPY PUSH1 0x0 RETURN INVALID PUSH1 0x80 PUSH1 0x40 MSTORE CALLVALUE DUP1 ISZERO PUSH2 0x10 JUMPI PUSH1 0x0 DUP1 REVERT JUMPDEST POP PUSH1 0x4 CALLDATASIZE LT PUSH2 0x121 JUMPI PUSH1 0x0 CALLDATALOAD PUSH1 0xE0 SHR DUP1 PUSH4 0x78E97925 GT PUSH2 0xAD JUMPI DUP1 PUSH4 0xC040E6B8 GT PUSH2 0x71 JUMPI DUP1 PUSH4 0xC040E6B8 EQ PUSH2 0x2E0 JUMPI DUP1 PUSH4 0xC2CA0AC5 EQ PUSH2 0x2FE JUMPI DUP1 PUSH4 0xDCA669E4 EQ PUSH2 0x31A JUMPI DUP1 PUSH4 0xF2FDE38B EQ PUSH2 0x338 JUMPI DUP1 PUSH4 0xF4F98AD5 EQ PUSH2 0x354 JUMPI PUSH2 0x121 JUMP JUMPDEST DUP1 PUSH4 0x78E97925 EQ PUSH2 0x24C JUMPI DUP1 PUSH4 0x7F93C751 EQ PUSH2 0x26A JUMPI DUP1 PUSH4 0x8DA5CB5B EQ PUSH2 0x274 JUMPI DUP1 PUSH4 0xA58BE661 EQ PUSH2 0x292 JUMPI DUP1 PUSH4 0xB0E9EB3F EQ PUSH2 0x2AE JUMPI PUSH2 0x121 JUMP JUMPDEST DUP1 PUSH4 0x50D30CBF GT PUSH2 0xF4 JUMPI DUP1 PUSH4 0x50D30CBF EQ PUSH2 0x1B2 JUMPI DUP1 PUSH4 0x6F833811 EQ PUSH2 0x1CE JUMPI DUP1 PUSH4 0x715018A6 EQ PUSH2 0x1EC JUMPI DUP1 PUSH4 0x73FA4F46 EQ PUSH2 0x1F6 JUMPI DUP1 PUSH4 0x77F0ADE9 EQ PUSH2 0x214 JUMPI PUSH2 0x121 JUMP JUMPDEST DUP1 PUSH4 0x6661ABD EQ PUSH2 0x126 JUMPI DUP1 PUSH4 0x12CE9906 EQ PUSH2 0x144 JUMPI DUP1 PUSH4 0x146CA531 EQ PUSH2 0x162 JUMPI DUP1 PUSH4 0x22FADC28 EQ PUSH2 0x180 JUMPI JUMPDEST PUSH1 0x0 DUP1 REVERT JUMPDEST PUSH2 0x12E PUSH2 0x370 JUMP JUMPDEST PUSH1 0x40 MLOAD PUSH2 0x13B SWAP2 SWAP1 PUSH2 0x226F JUMP JUMPDEST PUSH1 0x40 MLOAD DUP1 SWAP2 SUB SWAP1 RETURN JUMPDEST PUSH2 0x14C PUSH2 0x376 JUMP JUMPDEST PUSH1 0x40 MLOAD PUSH2 0x159 SWAP2 SWAP1 PUSH2 0x226F JUMP JUMPDEST PUSH1 0x40 MLOAD DUP1 SWAP2 SUB SWAP1 RETURN JUMPDEST PUSH2 0x16A PUSH2 0x66C JUMP JUMPDEST PUSH1 0x40 MLOAD PUSH2 0x177 SWAP2 SWAP1 PUSH2 0x226F JUMP JUMPDEST PUSH1 0x40 MLOAD DUP1 SWAP2 SUB SWAP1 RETURN JUMPDEST PUSH2 0x19A PUSH1 0x4 DUP1 CALLDATASIZE SUB DUP2 ADD SWAP1 PUSH2 0x195 SWAP2 SWAP1 PUSH2 0x22CA JUMP JUMPDEST PUSH2 0x672 JUMP JUMPDEST PUSH1 0x40 MLOAD PUSH2 0x1A9 SWAP4 SWAP3 SWAP2 SWAP1 PUSH2 0x234B JUMP JUMPDEST PUSH1 0x40 MLOAD DUP1 SWAP2 SUB SWAP1 RETURN JUMPDEST PUSH2 0x1CC PUSH1 0x4 DUP1 CALLDATASIZE SUB DUP2 ADD SWAP1 PUSH2 0x1C7 SWAP2 SWAP1 PUSH2 0x23E7 JUMP JUMPDEST PUSH2 0x6C9 JUMP JUMPDEST STOP JUMPDEST PUSH2 0x1D6 PUSH2 0xAE8 JUMP JUMPDEST PUSH1 0x40 MLOAD PUSH2 0x1E3 SWAP2 SWAP1 PUSH2 0x226F JUMP JUMPDEST PUSH1 0x40 MLOAD DUP1 SWAP2 SUB SWAP1 RETURN JUMPDEST PUSH2 0x1F4 PUSH2 0xAEE JUMP JUMPDEST STOP JUMPDEST PUSH2 0x1FE PUSH2 0xB02 JUMP JUMPDEST PUSH1 0x40 MLOAD PUSH2 0x20B SWAP2 SWAP1 PUSH2 0x226F JUMP JUMPDEST PUSH1 0x40 MLOAD DUP1 SWAP2 SUB SWAP1 RETURN JUMPDEST PUSH2 0x22E PUSH1 0x4 DUP1 CALLDATASIZE SUB DUP2 ADD SWAP1 PUSH2 0x229 SWAP2 SWAP1 PUSH2 0x2447 JUMP JUMPDEST PUSH2 0xB08 JUMP JUMPDEST PUSH1 0x40 MLOAD PUSH2 0x243 SWAP10 SWAP9 SWAP8 SWAP7 SWAP6 SWAP5 SWAP4 SWAP3 SWAP2 SWAP1 PUSH2 0x248F JUMP JUMPDEST PUSH1 0x40 MLOAD DUP1 SWAP2 SUB SWAP1 RETURN JUMPDEST PUSH2 0x254 PUSH2 0xB70 JUMP JUMPDEST PUSH1 0x40 MLOAD PUSH2 0x261 SWAP2 SWAP1 PUSH2 0x226F JUMP JUMPDEST PUSH1 0x40 MLOAD DUP1 SWAP2 SUB SWAP1 RETURN JUMPDEST PUSH2 0x272 PUSH2 0xB76 JUMP JUMPDEST STOP JUMPDEST PUSH2 0x27C PUSH2 0xD13 JUMP JUMPDEST PUSH1 0x40 MLOAD PUSH2 0x289 SWAP2 SWAP1 PUSH2 0x251C JUMP JUMPDEST PUSH1 0x40 MLOAD DUP1 SWAP2 SUB SWAP1 RETURN JUMPDEST PUSH2 0x2AC PUSH1 0x4 DUP1 CALLDATASIZE SUB DUP2 ADD SWAP1 PUSH2 0x2A7 SWAP2 SWAP1 PUSH2 0x2717 JUMP JUMPDEST PUSH2 0xD3C JUMP JUMPDEST STOP JUMPDEST PUSH2 0x2C8 PUSH1 0x4 DUP1 CALLDATASIZE SUB DUP2 ADD SWAP1 PUSH2 0x2C3 SWAP2 SWAP1 PUSH2 0x27C6 JUMP JUMPDEST PUSH2 0x105C JUMP JUMPDEST PUSH1 0x40 MLOAD PUSH2 0x2D7 SWAP4 SWAP3 SWAP2 SWAP1 PUSH2 0x2806 JUMP JUMPDEST PUSH1 0x40 MLOAD DUP1 SWAP2 SUB SWAP1 RETURN JUMPDEST PUSH2 0x2E8 PUSH2 0x10AD JUMP JUMPDEST PUSH1 0x40 MLOAD PUSH2 0x2F5 SWAP2 SWAP1 PUSH2 0x28B4 JUMP JUMPDEST PUSH1 0x40 MLOAD DUP1 SWAP2 SUB SWAP1 RETURN JUMPDEST PUSH2 0x318 PUSH1 0x4 DUP1 CALLDATASIZE SUB DUP2 ADD SWAP1 PUSH2 0x313 SWAP2 SWAP1 PUSH2 0x2447 JUMP JUMPDEST PUSH2 0x10C0 JUMP JUMPDEST STOP JUMPDEST PUSH2 0x322 PUSH2 0x145B JUMP JUMPDEST PUSH1 0x40 MLOAD PUSH2 0x32F SWAP2 SWAP1 PUSH2 0x294E JUMP JUMPDEST PUSH1 0x40 MLOAD DUP1 SWAP2 SUB SWAP1 RETURN JUMPDEST PUSH2 0x352 PUSH1 0x4 DUP1 CALLDATASIZE SUB DUP2 ADD SWAP1 PUSH2 0x34D SWAP2 SWAP1 PUSH2 0x2970 JUMP JUMPDEST PUSH2 0x14E9 JUMP JUMPDEST STOP JUMPDEST PUSH2 0x36E PUSH1 0x4 DUP1 CALLDATASIZE SUB DUP2 ADD SWAP1 PUSH2 0x369 SWAP2 SWAP1 PUSH2 0x2447 JUMP JUMPDEST PUSH2 0x156C JUMP JUMPDEST STOP JUMPDEST PUSH1 0x4 SLOAD DUP2 JUMP JUMPDEST PUSH1 0x0 DUP1 PUSH1 0x5 SLOAD SWAP1 POP PUSH1 0x9 PUSH1 0x0 DUP3 DUP2 MSTORE PUSH1 0x20 ADD SWAP1 DUP2 MSTORE PUSH1 0x20 ADD PUSH1 0x0 KECCAK256 PUSH1 0x7 ADD PUSH1 0x1 SWAP1 SLOAD SWAP1 PUSH2 0x100 EXP SWAP1 DIV PUSH1 0xFF AND PUSH2 0x3E1 JUMPI PUSH1 0x40 MLOAD PUSH32 0x8C379A000000000000000000000000000000000000000000000000000000000 DUP2 MSTORE PUSH1 0x4 ADD PUSH2 0x3D8 SWAP1 PUSH2 0x29E9 JUMP JUMPDEST PUSH1 0x40 MLOAD DUP1 SWAP2 SUB SWAP1 REVERT JUMPDEST PUSH1 0x9 PUSH1 0x0 DUP3 DUP2 MSTORE PUSH1 0x20 ADD SWAP1 DUP2 MSTORE PUSH1 0x20 ADD PUSH1 0x0 KECCAK256 PUSH1 0x7 ADD PUSH1 0x0 SWAP1 SLOAD SWAP1 PUSH2 0x100 EXP SWAP1 DIV PUSH1 0xFF AND ISZERO PUSH2 0x445 JUMPI PUSH1 0x40 MLOAD PUSH32 0x8C379A000000000000000000000000000000000000000000000000000000000 DUP2 MSTORE PUSH1 0x4 ADD PUSH2 0x43C SWAP1 PUSH2 0x2A55 JUMP JUMPDEST PUSH1 0x40 MLOAD DUP1 SWAP2 SUB SWAP1 REVERT JUMPDEST PUSH2 0x44D PUSH2 0xB76 JUMP JUMPDEST PUSH2 0x457 PUSH1 0x2 PUSH2 0x1924 JUMP JUMPDEST PUSH1 0x0 PUSH1 0x9 PUSH1 0x0 DUP4 DUP2 MSTORE PUSH1 0x20 ADD SWAP1 DUP2 MSTORE PUSH1 0x20 ADD PUSH1 0x0 KECCAK256 PUSH1 0x2 ADD SLOAD SWAP1 POP PUSH1 0x0 PUSH1 0x1 SWAP1 POP PUSH1 0x0 PUSH1 0x9 PUSH1 0x0 DUP6 DUP2 MSTORE PUSH1 0x20 ADD SWAP1 DUP2 MSTORE PUSH1 0x20 ADD PUSH1 0x0 KECCAK256 PUSH1 0x1 ADD SLOAD SWAP1 POP PUSH1 0x0 PUSH1 0x9 PUSH1 0x0 PUSH1 0x5 SLOAD DUP2 MSTORE PUSH1 0x20 ADD SWAP1 DUP2 MSTORE PUSH1 0x20 ADD PUSH1 0x0 KECCAK256 PUSH1 0x4 ADD SLOAD SWAP1 POP PUSH1 0x0 PUSH1 0x9 PUSH1 0x0 PUSH1 0x5 SLOAD DUP2 MSTORE PUSH1 0x20 ADD SWAP1 DUP2 MSTORE PUSH1 0x20 ADD PUSH1 0x0 KECCAK256 PUSH1 0x5 ADD SLOAD SWAP1 POP PUSH1 0x0 PUSH1 0x1 SWAP1 POP PUSH1 0x0 JUMPDEST DUP7 DUP2 LT ISZERO PUSH2 0x5AD JUMPI DUP3 DUP1 PUSH2 0x4ED JUMPI PUSH2 0x4EC PUSH2 0x2A75 JUMP JUMPDEST JUMPDEST PUSH2 0x596 PUSH2 0x568 DUP7 DUP7 PUSH2 0x525 PUSH1 0x8 PUSH1 0x0 DUP16 DUP2 MSTORE PUSH1 0x20 ADD SWAP1 DUP2 MSTORE PUSH1 0x20 ADD PUSH1 0x0 KECCAK256 PUSH1 0x0 DUP9 DUP2 MSTORE PUSH1 0x20 ADD SWAP1 DUP2 MSTORE PUSH1 0x20 ADD PUSH1 0x0 KECCAK256 PUSH1 0x0 ADD SLOAD PUSH2 0x199C JUMP JUMPDEST PUSH2 0x52E DUP12 PUSH2 0x199C JUMP JUMPDEST PUSH1 0x40 MLOAD PUSH1 0x20 ADD PUSH2 0x53F SWAP3 SWAP2 SWAP1 PUSH2 0x2AE0 JUMP JUMPDEST PUSH1 0x40 MLOAD PUSH1 0x20 DUP2 DUP4 SUB SUB DUP2 MSTORE SWAP1 PUSH1 0x40 MSTORE DUP1 MLOAD SWAP1 PUSH1 0x20 ADD KECCAK256 PUSH1 0x0 SHR PUSH2 0x562 SWAP2 SWAP1 PUSH2 0x2B04 JUMP JUMPDEST DUP8 PUSH2 0x1A6A JUMP JUMPDEST PUSH1 0x8 PUSH1 0x0 DUP13 DUP2 MSTORE PUSH1 0x20 ADD SWAP1 DUP2 MSTORE PUSH1 0x20 ADD PUSH1 0x0 KECCAK256 PUSH1 0x0 DUP6 DUP2 MSTORE PUSH1 0x20 ADD SWAP1 DUP2 MSTORE PUSH1 0x20 ADD PUSH1 0x0 KECCAK256 PUSH1 0x1 ADD SLOAD DUP7 PUSH2 0x1A6A JUMP JUMPDEST DUP8 MULMOD SWAP6 POP DUP1 DUP1 PUSH2 0x5A5 SWAP1 PUSH2 0x2B64 JUMP JUMPDEST SWAP2 POP POP PUSH2 0x4D6 JUMP JUMPDEST POP DUP5 PUSH1 0x9 PUSH1 0x0 DUP10 DUP2 MSTORE PUSH1 0x20 ADD SWAP1 DUP2 MSTORE PUSH1 0x20 ADD PUSH1 0x0 KECCAK256 PUSH1 0x0 ADD DUP2 SWAP1 SSTORE POP DUP1 PUSH1 0x9 PUSH1 0x0 DUP10 DUP2 MSTORE PUSH1 0x20 ADD SWAP1 DUP2 MSTORE PUSH1 0x20 ADD PUSH1 0x0 KECCAK256 PUSH1 0x7 ADD PUSH1 0x0 PUSH2 0x100 EXP DUP2 SLOAD DUP2 PUSH1 0xFF MUL NOT AND SWAP1 DUP4 ISZERO ISZERO MUL OR SWAP1 SSTORE POP PUSH1 0x2 PUSH1 0x7 PUSH1 0x0 PUSH2 0x100 EXP DUP2 SLOAD DUP2 PUSH1 0xFF MUL NOT AND SWAP1 DUP4 PUSH1 0x2 DUP2 GT ISZERO PUSH2 0x61D JUMPI PUSH2 0x61C PUSH2 0x283D JUMP JUMPDEST JUMPDEST MUL OR SWAP1 SSTORE POP PUSH32 0x31D4D513959D79380D7F8AF557AC2408B4D6C2CF59AF943DD997A11100520F66 DUP8 DUP7 TIMESTAMP DUP5 PUSH1 0x40 MLOAD PUSH2 0x657 SWAP5 SWAP4 SWAP3 SWAP2 SWAP1 PUSH2 0x2BAC JUMP JUMPDEST PUSH1 0x40 MLOAD DUP1 SWAP2 SUB SWAP1 LOG1 DUP5 SWAP8 POP POP POP POP POP POP POP POP SWAP1 JUMP JUMPDEST PUSH1 0x5 SLOAD DUP2 JUMP JUMPDEST PUSH1 0x8 PUSH1 0x20 MSTORE DUP2 PUSH1 0x0 MSTORE PUSH1 0x40 PUSH1 0x0 KECCAK256 PUSH1 0x20 MSTORE DUP1 PUSH1 0x0 MSTORE PUSH1 0x40 PUSH1 0x0 KECCAK256 PUSH1 0x0 SWAP2 POP SWAP2 POP POP DUP1 PUSH1 0x0 ADD SLOAD SWAP1 DUP1 PUSH1 0x1 ADD SLOAD SWAP1 DUP1 PUSH1 0x2 ADD PUSH1 0x0 SWAP1 SLOAD SWAP1 PUSH2 0x100 EXP SWAP1 DIV PUSH20 0xFFFFFFFFFFFFFFFFFFFFFFFFFFFFFFFFFFFFFFFF AND SWAP1 POP DUP4 JUMP JUMPDEST DUP2 DUP2 PUSH1 0x0 DUP2 DUP2 LT PUSH2 0x6DD JUMPI PUSH2 0x6DC PUSH2 0x2BF1 JUMP JUMPDEST JUMPDEST SWAP1 POP PUSH1 0xA0 MUL ADD PUSH1 0x40 ADD CALLDATALOAD PUSH1 0x9 PUSH1 0x0 PUSH1 0x5 SLOAD DUP2 MSTORE PUSH1 0x20 ADD SWAP1 DUP2 MSTORE PUSH1 0x20 ADD PUSH1 0x0 KECCAK256 PUSH1 0x5 ADD SLOAD DUP2 LT PUSH2 0x741 JUMPI PUSH1 0x40 MLOAD PUSH32 0x8C379A000000000000000000000000000000000000000000000000000000000 DUP2 MSTORE PUSH1 0x4 ADD PUSH2 0x738 SWAP1 PUSH2 0x2C6C JUMP JUMPDEST PUSH1 0x40 MLOAD DUP1 SWAP2 SUB SWAP1 REVERT JUMPDEST PUSH1 0x0 PUSH1 0x1 SWAP1 POP PUSH1 0x0 PUSH1 0x9 PUSH1 0x0 DUP8 DUP2 MSTORE PUSH1 0x20 ADD SWAP1 DUP2 MSTORE PUSH1 0x20 ADD PUSH1 0x0 KECCAK256 PUSH1 0x5 ADD SLOAD SWAP1 POP PUSH1 0x0 PUSH1 0x9 PUSH1 0x0 DUP9 DUP2 MSTORE PUSH1 0x20 ADD SWAP1 DUP2 MSTORE PUSH1 0x20 ADD PUSH1 0x0 KECCAK256 PUSH1 0x1 ADD SLOAD SWAP1 POP PUSH2 0x785 PUSH2 0xB76 JUMP JUMPDEST PUSH2 0x78F PUSH1 0x0 PUSH2 0x1ACD JUMP JUMPDEST PUSH1 0x9 PUSH1 0x0 DUP9 DUP2 MSTORE PUSH1 0x20 ADD SWAP1 DUP2 MSTORE PUSH1 0x20 ADD PUSH1 0x0 KECCAK256 PUSH1 0x7 ADD PUSH1 0x0 SWAP1 SLOAD SWAP1 PUSH2 0x100 EXP SWAP1 DIV PUSH1 0xFF AND ISZERO PUSH2 0x7F3 JUMPI PUSH1 0x40 MLOAD PUSH32 0x8C379A000000000000000000000000000000000000000000000000000000000 DUP2 MSTORE PUSH1 0x4 ADD PUSH2 0x7EA SWAP1 PUSH2 0x2A55 JUMP JUMPDEST PUSH1 0x40 MLOAD DUP1 SWAP2 SUB SWAP1 REVERT JUMPDEST DUP6 DUP6 PUSH1 0x0 DUP2 DUP2 LT PUSH2 0x807 JUMPI PUSH2 0x806 PUSH2 0x2BF1 JUMP JUMPDEST JUMPDEST SWAP1 POP PUSH1 0xA0 MUL ADD PUSH1 0x60 ADD CALLDATALOAD PUSH1 0x9 PUSH1 0x0 DUP10 DUP2 MSTORE PUSH1 0x20 ADD SWAP1 DUP2 MSTORE PUSH1 0x20 ADD PUSH1 0x0 KECCAK256 PUSH1 0x6 ADD SLOAD EQ PUSH2 0x868 JUMPI PUSH1 0x40 MLOAD PUSH32 0x8C379A000000000000000000000000000000000000000000000000000000000 DUP2 MSTORE PUSH1 0x4 ADD PUSH2 0x85F SWAP1 PUSH2 0x2CD8 JUMP JUMPDEST PUSH1 0x40 MLOAD DUP1 SWAP2 SUB SWAP1 REVERT JUMPDEST PUSH2 0x8C7 DUP7 DUP7 DUP1 DUP1 PUSH1 0x20 MUL PUSH1 0x20 ADD PUSH1 0x40 MLOAD SWAP1 DUP2 ADD PUSH1 0x40 MSTORE DUP1 SWAP4 SWAP3 SWAP2 SWAP1 DUP2 DUP2 MSTORE PUSH1 0x20 ADD PUSH1 0x0 SWAP1 JUMPDEST DUP3 DUP3 LT ISZERO PUSH2 0x8BD JUMPI DUP5 DUP5 DUP4 SWAP1 POP PUSH1 0xA0 MUL ADD DUP1 CALLDATASIZE SUB DUP2 ADD SWAP1 PUSH2 0x8AE SWAP2 SWAP1 PUSH2 0x2CF8 JUMP JUMPDEST DUP2 MSTORE PUSH1 0x20 ADD SWAP1 PUSH1 0x1 ADD SWAP1 PUSH2 0x88D JUMP JUMPDEST POP POP POP POP POP PUSH2 0x1B45 JUMP JUMPDEST POP PUSH1 0x0 JUMPDEST PUSH1 0x9 PUSH1 0x0 DUP10 DUP2 MSTORE PUSH1 0x20 ADD SWAP1 DUP2 MSTORE PUSH1 0x20 ADD PUSH1 0x0 KECCAK256 PUSH1 0x2 ADD SLOAD DUP2 LT ISZERO PUSH2 0x993 JUMPI PUSH1 0x0 PUSH1 0x8 PUSH1 0x0 DUP11 DUP2 MSTORE PUSH1 0x20 ADD SWAP1 DUP2 MSTORE PUSH1 0x20 ADD PUSH1 0x0 KECCAK256 PUSH1 0x0 DUP4 DUP2 MSTORE PUSH1 0x20 ADD SWAP1 DUP2 MSTORE PUSH1 0x20 ADD PUSH1 0x0 KECCAK256 PUSH1 0x0 ADD SLOAD SWAP1 POP PUSH1 0x0 PUSH2 0x968 DUP3 DUP7 PUSH2 0x925 DUP6 PUSH2 0x199C JUMP JUMPDEST PUSH2 0x92E DUP9 PUSH2 0x199C JUMP JUMPDEST PUSH1 0x40 MLOAD PUSH1 0x20 ADD PUSH2 0x93F SWAP3 SWAP2 SWAP1 PUSH2 0x2AE0 JUMP JUMPDEST PUSH1 0x40 MLOAD PUSH1 0x20 DUP2 DUP4 SUB SUB DUP2 MSTORE SWAP1 PUSH1 0x40 MSTORE DUP1 MLOAD SWAP1 PUSH1 0x20 ADD KECCAK256 PUSH1 0x0 SHR PUSH2 0x962 SWAP2 SWAP1 PUSH2 0x2B04 JUMP JUMPDEST DUP8 PUSH2 0x1A6A JUMP JUMPDEST SWAP1 POP DUP5 DUP1 PUSH2 0x979 JUMPI PUSH2 0x978 PUSH2 0x2A75 JUMP JUMPDEST JUMPDEST DUP2 DUP8 MULMOD SWAP6 POP POP POP DUP1 DUP1 PUSH2 0x98B SWAP1 PUSH2 0x2B64 JUMP JUMPDEST SWAP2 POP POP PUSH2 0x8CB JUMP JUMPDEST POP DUP6 DUP6 PUSH1 0x0 DUP2 DUP2 LT PUSH2 0x9A8 JUMPI PUSH2 0x9A7 PUSH2 0x2BF1 JUMP JUMPDEST JUMPDEST SWAP1 POP PUSH1 0xA0 MUL ADD PUSH1 0x20 ADD CALLDATALOAD DUP4 EQ PUSH2 0x9F3 JUMPI PUSH1 0x40 MLOAD PUSH32 0x8C379A000000000000000000000000000000000000000000000000000000000 DUP2 MSTORE PUSH1 0x4 ADD PUSH2 0x9EA SWAP1 PUSH2 0x2D71 JUMP JUMPDEST PUSH1 0x40 MLOAD DUP1 SWAP2 SUB SWAP1 REVERT JUMPDEST PUSH1 0x1 PUSH1 0x9 PUSH1 0x0 DUP10 DUP2 MSTORE PUSH1 0x20 ADD SWAP1 DUP2 MSTORE PUSH1 0x20 ADD PUSH1 0x0 KECCAK256 PUSH1 0x7 ADD PUSH1 0x0 PUSH2 0x100 EXP DUP2 SLOAD DUP2 PUSH1 0xFF MUL NOT AND SWAP1 DUP4 ISZERO ISZERO MUL OR SWAP1 SSTORE POP DUP6 DUP6 PUSH1 0x0 DUP2 DUP2 LT PUSH2 0xA36 JUMPI PUSH2 0xA35 PUSH2 0x2BF1 JUMP JUMPDEST JUMPDEST SWAP1 POP PUSH1 0xA0 MUL ADD PUSH1 0x40 ADD CALLDATALOAD PUSH1 0x9 PUSH1 0x0 DUP10 DUP2 MSTORE PUSH1 0x20 ADD SWAP1 DUP2 MSTORE PUSH1 0x20 ADD PUSH1 0x0 KECCAK256 PUSH1 0x0 ADD DUP2 SWAP1 SSTORE POP PUSH1 0x2 PUSH1 0x7 PUSH1 0x0 PUSH2 0x100 EXP DUP2 SLOAD DUP2 PUSH1 0xFF MUL NOT AND SWAP1 DUP4 PUSH1 0x2 DUP2 GT ISZERO PUSH2 0xA80 JUMPI PUSH2 0xA7F PUSH2 0x283D JUMP JUMPDEST JUMPDEST MUL OR SWAP1 SSTORE POP PUSH32 0x3FC2D4F2E2E4E84069307A4D3A9B7AD25D93E2026627031A87B54A1C61907CE CALLER DUP5 DUP9 DUP9 PUSH1 0x0 DUP2 DUP2 LT PUSH2 0xABC JUMPI PUSH2 0xABB PUSH2 0x2BF1 JUMP JUMPDEST JUMPDEST SWAP1 POP PUSH1 0xA0 MUL ADD PUSH1 0x40 ADD CALLDATALOAD TIMESTAMP PUSH1 0x40 MLOAD PUSH2 0xAD7 SWAP5 SWAP4 SWAP3 SWAP2 SWAP1 PUSH2 0x2D91 JUMP JUMPDEST PUSH1 0x40 MLOAD DUP1 SWAP2 SUB SWAP1 LOG1 POP POP POP POP POP POP POP JUMP JUMPDEST PUSH1 0x2 SLOAD DUP2 JUMP JUMPDEST PUSH2 0xAF6 PUSH2 0x1C8B JUMP JUMPDEST PUSH2 0xB00 PUSH1 0x0 PUSH2 0x1D09 JUMP JUMPDEST JUMP JUMPDEST PUSH1 0x3 SLOAD DUP2 JUMP JUMPDEST PUSH1 0x9 PUSH1 0x20 MSTORE DUP1 PUSH1 0x0 MSTORE PUSH1 0x40 PUSH1 0x0 KECCAK256 PUSH1 0x0 SWAP2 POP SWAP1 POP DUP1 PUSH1 0x0 ADD SLOAD SWAP1 DUP1 PUSH1 0x1 ADD SLOAD SWAP1 DUP1 PUSH1 0x2 ADD SLOAD SWAP1 DUP1 PUSH1 0x3 ADD SLOAD SWAP1 DUP1 PUSH1 0x4 ADD SLOAD SWAP1 DUP1 PUSH1 0x5 ADD SLOAD SWAP1 DUP1 PUSH1 0x6 ADD SLOAD SWAP1 DUP1 PUSH1 0x7 ADD PUSH1 0x0 SWAP1 SLOAD SWAP1 PUSH2 0x100 EXP SWAP1 DIV PUSH1 0xFF AND SWAP1 DUP1 PUSH1 0x7 ADD PUSH1 0x1 SWAP1 SLOAD SWAP1 PUSH2 0x100 EXP SWAP1 DIV PUSH1 0xFF AND SWAP1 POP DUP10 JUMP JUMPDEST PUSH1 0x1 SLOAD DUP2 JUMP JUMPDEST PUSH1 0x0 PUSH1 0x1 SLOAD SWAP1 POP PUSH1 0x0 PUSH1 0x2 DUP2 GT ISZERO PUSH2 0xB91 JUMPI PUSH2 0xB90 PUSH2 0x283D JUMP JUMPDEST JUMPDEST PUSH1 0x7 PUSH1 0x0 SWAP1 SLOAD SWAP1 PUSH2 0x100 EXP SWAP1 DIV PUSH1 0xFF AND PUSH1 0x2 DUP2 GT ISZERO PUSH2 0xBB3 JUMPI PUSH2 0xBB2 PUSH2 0x283D JUMP JUMPDEST JUMPDEST EQ DUP1 ISZERO PUSH2 0xBCD JUMPI POP PUSH1 0x2 SLOAD DUP2 PUSH2 0xBC9 SWAP2 SWAP1 PUSH2 0x2DD6 JUMP JUMPDEST TIMESTAMP LT ISZERO JUMPDEST ISZERO PUSH2 0xCA5 JUMPI PUSH1 0x0 PUSH1 0x4 SLOAD EQ PUSH2 0xC78 JUMPI PUSH2 0xBE4 PUSH2 0x1DCD JUMP JUMPDEST PUSH1 0x4 SLOAD PUSH1 0x9 PUSH1 0x0 PUSH1 0x5 SLOAD DUP2 MSTORE PUSH1 0x20 ADD SWAP1 DUP2 MSTORE PUSH1 0x20 ADD PUSH1 0x0 KECCAK256 PUSH1 0x2 ADD DUP2 SWAP1 SSTORE POP PUSH1 0x0 PUSH1 0x9 PUSH1 0x0 PUSH1 0x5 SLOAD DUP2 MSTORE PUSH1 0x20 ADD SWAP1 DUP2 MSTORE PUSH1 0x20 ADD PUSH1 0x0 KECCAK256 PUSH1 0x5 ADD SLOAD PUSH1 0x6 PUSH1 0x40 MLOAD PUSH1 0x20 ADD PUSH2 0xC30 SWAP2 SWAP1 PUSH2 0x2F02 JUMP JUMPDEST PUSH1 0x40 MLOAD PUSH1 0x20 DUP2 DUP4 SUB SUB DUP2 MSTORE SWAP1 PUSH1 0x40 MSTORE DUP1 MLOAD SWAP1 PUSH1 0x20 ADD KECCAK256 PUSH1 0x0 SHR PUSH2 0xC53 SWAP2 SWAP1 PUSH2 0x2B04 JUMP JUMPDEST SWAP1 POP DUP1 PUSH1 0x9 PUSH1 0x0 PUSH1 0x5 SLOAD DUP2 MSTORE PUSH1 0x20 ADD SWAP1 DUP2 MSTORE PUSH1 0x20 ADD PUSH1 0x0 KECCAK256 PUSH1 0x1 ADD DUP2 SWAP1 SSTORE POP POP PUSH2 0xCA4 JUMP JUMPDEST PUSH1 0x2 PUSH1 0x7 PUSH1 0x0 PUSH2 0x100 EXP DUP2 SLOAD DUP2 PUSH1 0xFF MUL NOT AND SWAP1 DUP4 PUSH1 0x2 DUP2 GT ISZERO PUSH2 0xC9E JUMPI PUSH2 0xC9D PUSH2 0x283D JUMP JUMPDEST JUMPDEST MUL OR SWAP1 SSTORE POP JUMPDEST JUMPDEST PUSH1 0x1 PUSH1 0x2 DUP2 GT ISZERO PUSH2 0xCB9 JUMPI PUSH2 0xCB8 PUSH2 0x283D JUMP JUMPDEST JUMPDEST PUSH1 0x7 PUSH1 0x0 SWAP1 SLOAD SWAP1 PUSH2 0x100 EXP SWAP1 DIV PUSH1 0xFF AND PUSH1 0x2 DUP2 GT ISZERO PUSH2 0xCDB JUMPI PUSH2 0xCDA PUSH2 0x283D JUMP JUMPDEST JUMPDEST EQ DUP1 ISZERO PUSH2 0xD02 JUMPI POP PUSH1 0x3 SLOAD DUP2 PUSH2 0xCF1 SWAP2 SWAP1 PUSH2 0x2DD6 JUMP JUMPDEST TIMESTAMP LT ISZERO DUP1 PUSH2 0xD01 JUMPI POP PUSH1 0x0 PUSH1 0x4 SLOAD EQ JUMPDEST JUMPDEST ISZERO PUSH2 0xD10 JUMPI PUSH2 0xD0F PUSH2 0x1DCD JUMP JUMPDEST JUMPDEST POP JUMP JUMPDEST PUSH1 0x0 DUP1 PUSH1 0x0 SWAP1 SLOAD SWAP1 PUSH2 0x100 EXP SWAP1 DIV PUSH20 0xFFFFFFFFFFFFFFFFFFFFFFFFFFFFFFFFFFFFFFFF AND SWAP1 POP SWAP1 JUMP JUMPDEST DUP2 DUP2 PUSH1 0x0 DUP2 MLOAD DUP2 LT PUSH2 0xD51 JUMPI PUSH2 0xD50 PUSH2 0x2BF1 JUMP JUMPDEST JUMPDEST PUSH1 0x20 MUL PUSH1 0x20 ADD ADD MLOAD PUSH1 0x20 ADD MLOAD LT PUSH2 0xD9D JUMPI PUSH1 0x40 MLOAD PUSH32 0x8C379A000000000000000000000000000000000000000000000000000000000 DUP2 MSTORE PUSH1 0x4 ADD PUSH2 0xD94 SWAP1 PUSH2 0x2C6C JUMP JUMPDEST PUSH1 0x40 MLOAD DUP1 SWAP2 SUB SWAP1 REVERT JUMPDEST DUP3 DUP5 LT PUSH2 0xDDF JUMPI PUSH1 0x40 MLOAD PUSH32 0x8C379A000000000000000000000000000000000000000000000000000000000 DUP2 MSTORE PUSH1 0x4 ADD PUSH2 0xDD6 SWAP1 PUSH2 0x2F8B JUMP JUMPDEST PUSH1 0x40 MLOAD DUP1 SWAP2 SUB SWAP1 REVERT JUMPDEST PUSH1 0x2 DUP1 DUP2 GT ISZERO PUSH2 0xDF2 JUMPI PUSH2 0xDF1 PUSH2 0x283D JUMP JUMPDEST JUMPDEST PUSH1 0x7 PUSH1 0x0 SWAP1 SLOAD SWAP1 PUSH2 0x100 EXP SWAP1 DIV PUSH1 0xFF AND PUSH1 0x2 DUP2 GT ISZERO PUSH2 0xE14 JUMPI PUSH2 0xE13 PUSH2 0x283D JUMP JUMPDEST JUMPDEST EQ PUSH2 0xE54 JUMPI PUSH1 0x40 MLOAD PUSH32 0x8C379A000000000000000000000000000000000000000000000000000000000 DUP2 MSTORE PUSH1 0x4 ADD PUSH2 0xE4B SWAP1 PUSH2 0x2FF7 JUMP JUMPDEST PUSH1 0x40 MLOAD DUP1 SWAP2 SUB SWAP1 REVERT JUMPDEST PUSH2 0xE5D DUP2 PUSH2 0x1B45 JUMP JUMPDEST POP PUSH1 0x1 PUSH1 0x5 PUSH1 0x0 DUP3 DUP3 SLOAD PUSH2 0xE71 SWAP2 SWAP1 PUSH2 0x2DD6 JUMP JUMPDEST SWAP3 POP POP DUP2 SWAP1 SSTORE POP PUSH1 0x0 PUSH1 0x7 PUSH1 0x0 PUSH2 0x100 EXP DUP2 SLOAD DUP2 PUSH1 0xFF MUL NOT AND SWAP1 DUP4 PUSH1 0x2 DUP2 GT ISZERO PUSH2 0xE9E JUMPI PUSH2 0xE9D PUSH2 0x283D JUMP JUMPDEST JUMPDEST MUL OR SWAP1 SSTORE POP TIMESTAMP PUSH1 0x1 DUP2 SWAP1 SSTORE POP DUP4 PUSH1 0x2 DUP2 SWAP1 SSTORE POP DUP3 PUSH1 0x3 DUP2 SWAP1 SSTORE POP DUP1 PUSH1 0x0 DUP2 MLOAD DUP2 LT PUSH2 0xECC JUMPI PUSH2 0xECB PUSH2 0x2BF1 JUMP JUMPDEST JUMPDEST PUSH1 0x20 MUL PUSH1 0x20 ADD ADD MLOAD PUSH1 0x60 ADD MLOAD PUSH1 0x9 PUSH1 0x0 PUSH1 0x5 SLOAD DUP2 MSTORE PUSH1 0x20 ADD SWAP1 DUP2 MSTORE PUSH1 0x20 ADD PUSH1 0x0 KECCAK256 PUSH1 0x6 ADD DUP2 SWAP1 SSTORE POP DUP1 PUSH1 0x0 DUP2 MLOAD DUP2 LT PUSH2 0xF08 JUMPI PUSH2 0xF07 PUSH2 0x2BF1 JUMP JUMPDEST JUMPDEST PUSH1 0x20 MUL PUSH1 0x20 ADD ADD MLOAD PUSH1 0x20 ADD MLOAD PUSH1 0x9 PUSH1 0x0 PUSH1 0x5 SLOAD DUP2 MSTORE PUSH1 0x20 ADD SWAP1 DUP2 MSTORE PUSH1 0x20 ADD PUSH1 0x0 KECCAK256 PUSH1 0x3 ADD DUP2 SWAP1 SSTORE POP DUP1 PUSH1 0x0 DUP2 MLOAD DUP2 LT PUSH2 0xF44 JUMPI PUSH2 0xF43 PUSH2 0x2BF1 JUMP JUMPDEST JUMPDEST PUSH1 0x20 MUL PUSH1 0x20 ADD ADD MLOAD PUSH1 0x40 ADD MLOAD PUSH1 0x9 PUSH1 0x0 PUSH1 0x5 SLOAD DUP2 MSTORE PUSH1 0x20 ADD SWAP1 DUP2 MSTORE PUSH1 0x20 ADD PUSH1 0x0 KECCAK256 PUSH1 0x4 ADD DUP2 SWAP1 SSTORE POP DUP2 PUSH1 0x9 PUSH1 0x0 PUSH1 0x5 SLOAD DUP2 MSTORE PUSH1 0x20 ADD SWAP1 DUP2 MSTORE PUSH1 0x20 ADD PUSH1 0x0 KECCAK256 PUSH1 0x5 ADD DUP2 SWAP1 SSTORE POP PUSH1 0x0 PUSH1 0x4 DUP2 SWAP1 SSTORE POP PUSH1 0x40 MLOAD DUP1 PUSH1 0x20 ADD PUSH1 0x40 MSTORE DUP1 PUSH1 0x0 DUP2 MSTORE POP PUSH1 0x6 SWAP1 DUP2 PUSH2 0xFAF SWAP2 SWAP1 PUSH2 0x31AE JUMP JUMPDEST POP PUSH32 0x1A5E4FA05B9601AF979A44C50EF7E103B9B51CD105EB42040B5817EB3E58449C CALLER TIMESTAMP DUP7 DUP7 DUP7 DUP7 PUSH1 0x0 DUP2 MLOAD DUP2 LT PUSH2 0xFEA JUMPI PUSH2 0xFE9 PUSH2 0x2BF1 JUMP JUMPDEST JUMPDEST PUSH1 0x20 MUL PUSH1 0x20 ADD ADD MLOAD PUSH1 0x20 ADD MLOAD DUP8 PUSH1 0x0 DUP2 MLOAD DUP2 LT PUSH2 0x100A JUMPI PUSH2 0x1009 PUSH2 0x2BF1 JUMP JUMPDEST JUMPDEST PUSH1 0x20 MUL PUSH1 0x20 ADD ADD MLOAD PUSH1 0x40 ADD MLOAD DUP9 PUSH1 0x0 DUP2 MLOAD DUP2 LT PUSH2 0x102A JUMPI PUSH2 0x1029 PUSH2 0x2BF1 JUMP JUMPDEST JUMPDEST PUSH1 0x20 MUL PUSH1 0x20 ADD ADD MLOAD PUSH1 0x60 ADD MLOAD PUSH1 0x5 SLOAD PUSH1 0x40 MLOAD PUSH2 0x104E SWAP10 SWAP9 SWAP8 SWAP7 SWAP6 SWAP5 SWAP4 SWAP3 SWAP2 SWAP1 PUSH2 0x3280 JUMP JUMPDEST PUSH1 0x40 MLOAD DUP1 SWAP2 SUB SWAP1 LOG1 POP POP POP POP JUMP JUMPDEST PUSH1 0xA PUSH1 0x20 MSTORE DUP2 PUSH1 0x0 MSTORE PUSH1 0x40 PUSH1 0x0 KECCAK256 PUSH1 0x20 MSTORE DUP1 PUSH1 0x0 MSTORE PUSH1 0x40 PUSH1 0x0 KECCAK256 PUSH1 0x0 SWAP2 POP SWAP2 POP POP DUP1 PUSH1 0x0 ADD SLOAD SWAP1 DUP1 PUSH1 0x1 ADD PUSH1 0x0 SWAP1 SLOAD SWAP1 PUSH2 0x100 EXP SWAP1 DIV PUSH1 0xFF AND SWAP1 DUP1 PUSH1 0x1 ADD PUSH1 0x1 SWAP1 SLOAD SWAP1 PUSH2 0x100 EXP SWAP1 DIV PUSH1 0xFF AND SWAP1 POP DUP4 JUMP JUMPDEST PUSH1 0x7 PUSH1 0x0 SWAP1 SLOAD SWAP1 PUSH2 0x100 EXP SWAP1 DIV PUSH1 0xFF AND DUP2 JUMP JUMPDEST DUP1 PUSH1 0x9 PUSH1 0x0 PUSH1 0x5 SLOAD DUP2 MSTORE PUSH1 0x20 ADD SWAP1 DUP2 MSTORE PUSH1 0x20 ADD PUSH1 0x0 KECCAK256 PUSH1 0x5 ADD SLOAD DUP2 LT PUSH2 0x111B JUMPI PUSH1 0x40 MLOAD PUSH32 0x8C379A000000000000000000000000000000000000000000000000000000000 DUP2 MSTORE PUSH1 0x4 ADD PUSH2 0x1112 SWAP1 PUSH2 0x2C6C JUMP JUMPDEST PUSH1 0x40 MLOAD DUP1 SWAP2 SUB SWAP1 REVERT JUMPDEST PUSH1 0x0 PUSH1 0x5 SLOAD SWAP1 POP PUSH1 0x0 PUSH1 0xA PUSH1 0x0 CALLER PUSH20 0xFFFFFFFFFFFFFFFFFFFFFFFFFFFFFFFFFFFFFFFF AND PUSH20 0xFFFFFFFFFFFFFFFFFFFFFFFFFFFFFFFFFFFFFFFF AND DUP2 MSTORE PUSH1 0x20 ADD SWAP1 DUP2 MSTORE PUSH1 0x20 ADD PUSH1 0x0 KECCAK256 PUSH1 0x0 DUP4 DUP2 MSTORE PUSH1 0x20 ADD SWAP1 DUP2 MSTORE PUSH1 0x20 ADD PUSH1 0x0 KECCAK256 PUSH1 0x40 MLOAD DUP1 PUSH1 0x60 ADD PUSH1 0x40 MSTORE SWAP1 DUP2 PUSH1 0x0 DUP3 ADD SLOAD DUP2 MSTORE PUSH1 0x20 ADD PUSH1 0x1 DUP3 ADD PUSH1 0x0 SWAP1 SLOAD SWAP1 PUSH2 0x100 EXP SWAP1 DIV PUSH1 0xFF AND ISZERO ISZERO ISZERO ISZERO DUP2 MSTORE PUSH1 0x20 ADD PUSH1 0x1 DUP3 ADD PUSH1 0x1 SWAP1 SLOAD SWAP1 PUSH2 0x100 EXP SWAP1 DIV PUSH1 0xFF AND ISZERO ISZERO ISZERO ISZERO DUP2 MSTORE POP POP SWAP1 POP DUP1 PUSH1 0x20 ADD MLOAD PUSH2 0x1205 JUMPI PUSH1 0x40 MLOAD PUSH32 0x8C379A000000000000000000000000000000000000000000000000000000000 DUP2 MSTORE PUSH1 0x4 ADD PUSH2 0x11FC SWAP1 PUSH2 0x3359 JUMP JUMPDEST PUSH1 0x40 MLOAD DUP1 SWAP2 SUB SWAP1 REVERT JUMPDEST DUP1 PUSH1 0x40 ADD MLOAD ISZERO PUSH2 0x124A JUMPI PUSH1 0x40 MLOAD PUSH32 0x8C379A000000000000000000000000000000000000000000000000000000000 DUP2 MSTORE PUSH1 0x4 ADD PUSH2 0x1241 SWAP1 PUSH2 0x33C5 JUMP JUMPDEST PUSH1 0x40 MLOAD DUP1 SWAP2 SUB SWAP1 REVERT JUMPDEST PUSH1 0x8 PUSH1 0x0 DUP4 DUP2 MSTORE PUSH1 0x20 ADD SWAP1 DUP2 MSTORE PUSH1 0x20 ADD PUSH1 0x0 KECCAK256 PUSH1 0x0 DUP3 PUSH1 0x0 ADD MLOAD DUP2 MSTORE PUSH1 0x20 ADD SWAP1 DUP2 MSTORE PUSH1 0x20 ADD PUSH1 0x0 KECCAK256 PUSH1 0x0 ADD SLOAD PUSH2 0x12AD PUSH1 0x9 PUSH1 0x0 DUP6 DUP2 MSTORE PUSH1 0x20 ADD SWAP1 DUP2 MSTORE PUSH1 0x20 ADD PUSH1 0x0 KECCAK256 PUSH1 0x3 ADD SLOAD DUP7 PUSH1 0x9 PUSH1 0x0 DUP8 DUP2 MSTORE PUSH1 0x20 ADD SWAP1 DUP2 MSTORE PUSH1 0x20 ADD PUSH1 0x0 KECCAK256 PUSH1 0x5 ADD SLOAD PUSH2 0x1A6A JUMP JUMPDEST EQ PUSH2 0x12ED JUMPI PUSH1 0x40 MLOAD PUSH32 0x8C379A000000000000000000000000000000000000000000000000000000000 DUP2 MSTORE PUSH1 0x4 ADD PUSH2 0x12E4 SWAP1 PUSH2 0x3431 JUMP JUMPDEST PUSH1 0x40 MLOAD DUP1 SWAP2 SUB SWAP1 REVERT JUMPDEST PUSH2 0x12F5 PUSH2 0xB76 JUMP JUMPDEST PUSH2 0x12FF PUSH1 0x1 PUSH2 0x1924 JUMP JUMPDEST PUSH1 0x0 PUSH1 0x4 PUSH1 0x0 DUP2 SLOAD PUSH2 0x1310 SWAP1 PUSH2 0x3451 JUMP JUMPDEST SWAP2 SWAP1 POP DUP2 SWAP1 SSTORE SWAP1 POP DUP5 PUSH1 0x8 PUSH1 0x0 DUP6 DUP2 MSTORE PUSH1 0x20 ADD SWAP1 DUP2 MSTORE PUSH1 0x20 ADD PUSH1 0x0 KECCAK256 PUSH1 0x0 DUP5 PUSH1 0x0 ADD MLOAD DUP2 MSTORE PUSH1 0x20 ADD SWAP1 DUP2 MSTORE PUSH1 0x20 ADD PUSH1 0x0 KECCAK256 PUSH1 0x1 ADD DUP2 SWAP1 SSTORE POP PUSH1 0x0 DUP2 SUB PUSH2 0x13AB JUMPI PUSH1 0x2 PUSH1 0x7 PUSH1 0x0 PUSH2 0x100 EXP DUP2 SLOAD DUP2 PUSH1 0xFF MUL NOT AND SWAP1 DUP4 PUSH1 0x2 DUP2 GT ISZERO PUSH2 0x1376 JUMPI PUSH2 0x1375 PUSH2 0x283D JUMP JUMPDEST JUMPDEST MUL OR SWAP1 SSTORE POP PUSH1 0x1 PUSH1 0x9 PUSH1 0x0 DUP6 DUP2 MSTORE PUSH1 0x20 ADD SWAP1 DUP2 MSTORE PUSH1 0x20 ADD PUSH1 0x0 KECCAK256 PUSH1 0x7 ADD PUSH1 0x1 PUSH2 0x100 EXP DUP2 SLOAD DUP2 PUSH1 0xFF MUL NOT AND SWAP1 DUP4 ISZERO ISZERO MUL OR SWAP1 SSTORE POP JUMPDEST PUSH1 0x1 PUSH1 0xA PUSH1 0x0 CALLER PUSH20 0xFFFFFFFFFFFFFFFFFFFFFFFFFFFFFFFFFFFFFFFF AND PUSH20 0xFFFFFFFFFFFFFFFFFFFFFFFFFFFFFFFFFFFFFFFF AND DUP2 MSTORE PUSH1 0x20 ADD SWAP1 DUP2 MSTORE PUSH1 0x20 ADD PUSH1 0x0 KECCAK256 PUSH1 0x0 DUP6 DUP2 MSTORE PUSH1 0x20 ADD SWAP1 DUP2 MSTORE PUSH1 0x20 ADD PUSH1 0x0 KECCAK256 PUSH1 0x1 ADD PUSH1 0x1 PUSH2 0x100 EXP DUP2 SLOAD DUP2 PUSH1 0xFF MUL NOT AND SWAP1 DUP4 ISZERO ISZERO MUL OR SWAP1 SSTORE POP PUSH32 0x167147E5476FB37532A0AAB79DEA3EB6B8FE0FBD723AC6025B0DE29237B0496 CALLER DUP7 DUP4 TIMESTAMP PUSH1 0x40 MLOAD PUSH2 0x144C SWAP5 SWAP4 SWAP3 SWAP2 SWAP1 PUSH2 0x2D91 JUMP JUMPDEST PUSH1 0x40 MLOAD DUP1 SWAP2 SUB SWAP1 LOG1 POP POP POP POP POP JUMP JUMPDEST PUSH1 0x6 DUP1 SLOAD PUSH2 0x1468 SWAP1 PUSH2 0x2E39 JUMP JUMPDEST DUP1 PUSH1 0x1F ADD PUSH1 0x20 DUP1 SWAP2 DIV MUL PUSH1 0x20 ADD PUSH1 0x40 MLOAD SWAP1 DUP2 ADD PUSH1 0x40 MSTORE DUP1 SWAP3 SWAP2 SWAP1 DUP2 DUP2 MSTORE PUSH1 0x20 ADD DUP3 DUP1 SLOAD PUSH2 0x1494 SWAP1 PUSH2 0x2E39 JUMP JUMPDEST DUP1 ISZERO PUSH2 0x14E1 JUMPI DUP1 PUSH1 0x1F LT PUSH2 0x14B6 JUMPI PUSH2 0x100 DUP1 DUP4 SLOAD DIV MUL DUP4 MSTORE SWAP2 PUSH1 0x20 ADD SWAP2 PUSH2 0x14E1 JUMP JUMPDEST DUP3 ADD SWAP2 SWAP1 PUSH1 0x0 MSTORE PUSH1 0x20 PUSH1 0x0 KECCAK256 SWAP1 JUMPDEST DUP2 SLOAD DUP2 MSTORE SWAP1 PUSH1 0x1 ADD SWAP1 PUSH1 0x20 ADD DUP1 DUP4 GT PUSH2 0x14C4 JUMPI DUP3 SWAP1 SUB PUSH1 0x1F AND DUP3 ADD SWAP2 JUMPDEST POP POP POP POP POP DUP2 JUMP JUMPDEST PUSH2 0x14F1 PUSH2 0x1C8B JUMP JUMPDEST PUSH1 0x0 PUSH20 0xFFFFFFFFFFFFFFFFFFFFFFFFFFFFFFFFFFFFFFFF AND DUP2 PUSH20 0xFFFFFFFFFFFFFFFFFFFFFFFFFFFFFFFFFFFFFFFF AND SUB PUSH2 0x1560 JUMPI PUSH1 0x40 MLOAD PUSH32 0x8C379A000000000000000000000000000000000000000000000000000000000 DUP2 MSTORE PUSH1 0x4 ADD PUSH2 0x1557 SWAP1 PUSH2 0x34EC JUMP JUMPDEST PUSH1 0x40 MLOAD DUP1 SWAP2 SUB SWAP1 REVERT JUMPDEST PUSH2 0x1569 DUP2 PUSH2 0x1D09 JUMP JUMPDEST POP JUMP JUMPDEST DUP1 PUSH1 0x9 PUSH1 0x0 PUSH1 0x5 SLOAD DUP2 MSTORE PUSH1 0x20 ADD SWAP1 DUP2 MSTORE PUSH1 0x20 ADD PUSH1 0x0 KECCAK256 PUSH1 0x5 ADD SLOAD DUP2 LT PUSH2 0x15C7 JUMPI PUSH1 0x40 MLOAD PUSH32 0x8C379A000000000000000000000000000000000000000000000000000000000 DUP2 MSTORE PUSH1 0x4 ADD PUSH2 0x15BE SWAP1 PUSH2 0x2C6C JUMP JUMPDEST PUSH1 0x40 MLOAD DUP1 SWAP2 SUB SWAP1 REVERT JUMPDEST PUSH2 0x15CF PUSH2 0x1C8B JUMP JUMPDEST PUSH1 0xA PUSH1 0x0 CALLER PUSH20 0xFFFFFFFFFFFFFFFFFFFFFFFFFFFFFFFFFFFFFFFF AND PUSH20 0xFFFFFFFFFFFFFFFFFFFFFFFFFFFFFFFFFFFFFFFF AND DUP2 MSTORE PUSH1 0x20 ADD SWAP1 DUP2 MSTORE PUSH1 0x20 ADD PUSH1 0x0 KECCAK256 PUSH1 0x0 PUSH1 0x5 SLOAD DUP2 MSTORE PUSH1 0x20 ADD SWAP1 DUP2 MSTORE PUSH1 0x20 ADD PUSH1 0x0 KECCAK256 PUSH1 0x1 ADD PUSH1 0x0 SWAP1 SLOAD SWAP1 PUSH2 0x100 EXP SWAP1 DIV PUSH1 0xFF AND ISZERO PUSH2 0x1672 JUMPI PUSH1 0x40 MLOAD PUSH32 0x8C379A000000000000000000000000000000000000000000000000000000000 DUP2 MSTORE PUSH1 0x4 ADD PUSH2 0x1669 SWAP1 PUSH2 0x3558 JUMP JUMPDEST PUSH1 0x40 MLOAD DUP1 SWAP2 SUB SWAP1 REVERT JUMPDEST PUSH2 0x167A PUSH2 0xB76 JUMP JUMPDEST PUSH2 0x1684 PUSH1 0x0 PUSH2 0x1924 JUMP JUMPDEST PUSH1 0x0 PUSH1 0x4 SLOAD SWAP1 POP PUSH1 0x0 PUSH1 0x6 DUP1 SLOAD PUSH2 0x169A SWAP1 PUSH2 0x2E39 JUMP JUMPDEST DUP1 PUSH1 0x1F ADD PUSH1 0x20 DUP1 SWAP2 DIV MUL PUSH1 0x20 ADD PUSH1 0x40 MLOAD SWAP1 DUP2 ADD PUSH1 0x40 MSTORE DUP1 SWAP3 SWAP2 SWAP1 DUP2 DUP2 MSTORE PUSH1 0x20 ADD DUP3 DUP1 SLOAD PUSH2 0x16C6 SWAP1 PUSH2 0x2E39 JUMP JUMPDEST DUP1 ISZERO PUSH2 0x1713 JUMPI DUP1 PUSH1 0x1F LT PUSH2 0x16E8 JUMPI PUSH2 0x100 DUP1 DUP4 SLOAD DIV MUL DUP4 MSTORE SWAP2 PUSH1 0x20 ADD SWAP2 PUSH2 0x1713 JUMP JUMPDEST DUP3 ADD SWAP2 SWAP1 PUSH1 0x0 MSTORE PUSH1 0x20 PUSH1 0x0 KECCAK256 SWAP1 JUMPDEST DUP2 SLOAD DUP2 MSTORE SWAP1 PUSH1 0x1 ADD SWAP1 PUSH1 0x20 ADD DUP1 DUP4 GT PUSH2 0x16F6 JUMPI DUP3 SWAP1 SUB PUSH1 0x1F AND DUP3 ADD SWAP2 JUMPDEST POP POP POP POP POP SWAP1 POP DUP1 PUSH2 0x1724 DUP6 PUSH2 0x199C JUMP JUMPDEST PUSH1 0x40 MLOAD PUSH1 0x20 ADD PUSH2 0x1735 SWAP3 SWAP2 SWAP1 PUSH2 0x2AE0 JUMP JUMPDEST PUSH1 0x40 MLOAD PUSH1 0x20 DUP2 DUP4 SUB SUB DUP2 MSTORE SWAP1 PUSH1 0x40 MSTORE SWAP1 POP PUSH1 0x40 MLOAD DUP1 PUSH1 0x60 ADD PUSH1 0x40 MSTORE DUP1 DUP4 DUP2 MSTORE PUSH1 0x20 ADD PUSH1 0x1 ISZERO ISZERO DUP2 MSTORE PUSH1 0x20 ADD PUSH1 0x0 ISZERO ISZERO DUP2 MSTORE POP PUSH1 0xA PUSH1 0x0 CALLER PUSH20 0xFFFFFFFFFFFFFFFFFFFFFFFFFFFFFFFFFFFFFFFF AND PUSH20 0xFFFFFFFFFFFFFFFFFFFFFFFFFFFFFFFFFFFFFFFF AND DUP2 MSTORE PUSH1 0x20 ADD SWAP1 DUP2 MSTORE PUSH1 0x20 ADD PUSH1 0x0 KECCAK256 PUSH1 0x0 PUSH1 0x5 SLOAD DUP2 MSTORE PUSH1 0x20 ADD SWAP1 DUP2 MSTORE PUSH1 0x20 ADD PUSH1 0x0 KECCAK256 PUSH1 0x0 DUP3 ADD MLOAD DUP2 PUSH1 0x0 ADD SSTORE PUSH1 0x20 DUP3 ADD MLOAD DUP2 PUSH1 0x1 ADD PUSH1 0x0 PUSH2 0x100 EXP DUP2 SLOAD DUP2 PUSH1 0xFF MUL NOT AND SWAP1 DUP4 ISZERO ISZERO MUL OR SWAP1 SSTORE POP PUSH1 0x40 DUP3 ADD MLOAD DUP2 PUSH1 0x1 ADD PUSH1 0x1 PUSH2 0x100 EXP DUP2 SLOAD DUP2 PUSH1 0xFF MUL NOT AND SWAP1 DUP4 ISZERO ISZERO MUL OR SWAP1 SSTORE POP SWAP1 POP POP PUSH1 0x40 MLOAD DUP1 PUSH1 0x60 ADD PUSH1 0x40 MSTORE DUP1 DUP6 DUP2 MSTORE PUSH1 0x20 ADD PUSH1 0x0 DUP2 MSTORE PUSH1 0x20 ADD CALLER PUSH20 0xFFFFFFFFFFFFFFFFFFFFFFFFFFFFFFFFFFFFFFFF AND DUP2 MSTORE POP PUSH1 0x8 PUSH1 0x0 PUSH1 0x5 SLOAD DUP2 MSTORE PUSH1 0x20 ADD SWAP1 DUP2 MSTORE PUSH1 0x20 ADD PUSH1 0x0 KECCAK256 PUSH1 0x0 DUP5 DUP2 MSTORE PUSH1 0x20 ADD SWAP1 DUP2 MSTORE PUSH1 0x20 ADD PUSH1 0x0 KECCAK256 PUSH1 0x0 DUP3 ADD MLOAD DUP2 PUSH1 0x0 ADD SSTORE PUSH1 0x20 DUP3 ADD MLOAD DUP2 PUSH1 0x1 ADD SSTORE PUSH1 0x40 DUP3 ADD MLOAD DUP2 PUSH1 0x2 ADD PUSH1 0x0 PUSH2 0x100 EXP DUP2 SLOAD DUP2 PUSH20 0xFFFFFFFFFFFFFFFFFFFFFFFFFFFFFFFFFFFFFFFF MUL NOT AND SWAP1 DUP4 PUSH20 0xFFFFFFFFFFFFFFFFFFFFFFFFFFFFFFFFFFFFFFFF AND MUL OR SWAP1 SSTORE POP SWAP1 POP POP DUP1 PUSH1 0x6 SWAP1 DUP2 PUSH2 0x18CB SWAP2 SWAP1 PUSH2 0x31AE JUMP JUMPDEST POP DUP2 PUSH2 0x18D6 SWAP1 PUSH2 0x2B64 JUMP JUMPDEST SWAP2 POP DUP2 PUSH1 0x4 DUP2 SWAP1 SSTORE POP PUSH32 0xBD41A700367CDF3254812A81BAAD606F9D6102E946F1BB28AAB0A4AFE25EF0C9 CALLER DUP6 DUP4 DUP6 TIMESTAMP PUSH1 0x40 MLOAD PUSH2 0x1916 SWAP6 SWAP5 SWAP4 SWAP3 SWAP2 SWAP1 PUSH2 0x3578 JUMP JUMPDEST PUSH1 0x40 MLOAD DUP1 SWAP2 SUB SWAP1 LOG1 POP POP POP POP JUMP JUMPDEST DUP1 PUSH1 0x2 DUP2 GT ISZERO PUSH2 0x1937 JUMPI PUSH2 0x1936 PUSH2 0x283D JUMP JUMPDEST JUMPDEST PUSH1 0x7 PUSH1 0x0 SWAP1 SLOAD SWAP1 PUSH2 0x100 EXP SWAP1 DIV PUSH1 0xFF AND PUSH1 0x2 DUP2 GT ISZERO PUSH2 0x1959 JUMPI PUSH2 0x1958 PUSH2 0x283D JUMP JUMPDEST JUMPDEST EQ PUSH2 0x1999 JUMPI PUSH1 0x40 MLOAD PUSH32 0x8C379A000000000000000000000000000000000000000000000000000000000 DUP2 MSTORE PUSH1 0x4 ADD PUSH2 0x1990 SWAP1 PUSH2 0x361E JUMP JUMPDEST PUSH1 0x40 MLOAD DUP1 SWAP2 SUB SWAP1 REVERT JUMPDEST POP JUMP JUMPDEST PUSH1 0x60 PUSH1 0x0 PUSH1 0x1 PUSH2 0x19AB DUP5 PUSH2 0x1EB4 JUMP JUMPDEST ADD SWAP1 POP PUSH1 0x0 DUP2 PUSH8 0xFFFFFFFFFFFFFFFF DUP2 GT ISZERO PUSH2 0x19CA JUMPI PUSH2 0x19C9 PUSH2 0x2548 JUMP JUMPDEST JUMPDEST PUSH1 0x40 MLOAD SWAP1 DUP1 DUP3 MSTORE DUP1 PUSH1 0x1F ADD PUSH1 0x1F NOT AND PUSH1 0x20 ADD DUP3 ADD PUSH1 0x40 MSTORE DUP1 ISZERO PUSH2 0x19FC JUMPI DUP2 PUSH1 0x20 ADD PUSH1 0x1 DUP3 MUL DUP1 CALLDATASIZE DUP4 CALLDATACOPY DUP1 DUP3 ADD SWAP2 POP POP SWAP1 POP JUMPDEST POP SWAP1 POP PUSH1 0x0 DUP3 PUSH1 0x20 ADD DUP3 ADD SWAP1 POP JUMPDEST PUSH1 0x1 ISZERO PUSH2 0x1A5F JUMPI DUP1 DUP1 PUSH1 0x1 SWAP1 SUB SWAP2 POP POP PUSH32 0x3031323334353637383961626364656600000000000000000000000000000000 PUSH1 0xA DUP7 MOD BYTE DUP2 MSTORE8 PUSH1 0xA DUP6 DUP2 PUSH2 0x1A53 JUMPI PUSH2 0x1A52 PUSH2 0x2A75 JUMP JUMPDEST JUMPDEST DIV SWAP5 POP PUSH1 0x0 DUP6 SUB PUSH2 0x1A0A JUMPI JUMPDEST DUP2 SWAP4 POP POP POP POP SWAP2 SWAP1 POP JUMP JUMPDEST PUSH1 0x0 DUP1 PUSH1 0x1 SWAP1 POP JUMPDEST PUSH1 0x0 DUP5 GT ISZERO PUSH2 0x1AC2 JUMPI PUSH1 0x1 DUP1 DUP6 AND SUB PUSH2 0x1A9A JUMPI DUP3 DUP1 PUSH2 0x1A94 JUMPI PUSH2 0x1A93 PUSH2 0x2A75 JUMP JUMPDEST JUMPDEST DUP6 DUP3 MULMOD SWAP1 POP JUMPDEST DUP3 DUP1 PUSH2 0x1AA9 JUMPI PUSH2 0x1AA8 PUSH2 0x2A75 JUMP JUMPDEST JUMPDEST DUP6 DUP7 MULMOD SWAP5 POP PUSH1 0x2 DUP5 PUSH2 0x1ABB SWAP2 SWAP1 PUSH2 0x363E JUMP JUMPDEST SWAP4 POP PUSH2 0x1A72 JUMP JUMPDEST DUP1 SWAP2 POP POP SWAP4 SWAP3 POP POP POP JUMP JUMPDEST DUP1 PUSH1 0x2 DUP2 GT ISZERO PUSH2 0x1AE0 JUMPI PUSH2 0x1ADF PUSH2 0x283D JUMP JUMPDEST JUMPDEST PUSH1 0x7 PUSH1 0x0 SWAP1 SLOAD SWAP1 PUSH2 0x100 EXP SWAP1 DIV PUSH1 0xFF AND PUSH1 0x2 DUP2 GT ISZERO PUSH2 0x1B02 JUMPI PUSH2 0x1B01 PUSH2 0x283D JUMP JUMPDEST JUMPDEST GT PUSH2 0x1B42 JUMPI PUSH1 0x40 MLOAD PUSH32 0x8C379A000000000000000000000000000000000000000000000000000000000 DUP2 MSTORE PUSH1 0x4 ADD PUSH2 0x1B39 SWAP1 PUSH2 0x361E JUMP JUMPDEST PUSH1 0x40 MLOAD DUP1 SWAP2 SUB SWAP1 REVERT JUMPDEST POP JUMP JUMPDEST PUSH1 0x0 DUP1 DUP3 MLOAD SWAP1 POP PUSH1 0x0 JUMPDEST DUP2 DUP2 LT ISZERO PUSH2 0x1C7F JUMPI PUSH1 0x0 PUSH2 0x1B7C DUP6 DUP4 DUP2 MLOAD DUP2 LT PUSH2 0x1B6F JUMPI PUSH2 0x1B6E PUSH2 0x2BF1 JUMP JUMPDEST JUMPDEST PUSH1 0x20 MUL PUSH1 0x20 ADD ADD MLOAD PUSH2 0x2007 JUMP JUMPDEST SWAP1 POP DUP1 PUSH1 0x0 ADD MLOAD PUSH2 0x1B93 JUMPI PUSH1 0x0 SWAP4 POP POP POP POP PUSH2 0x1C86 JUMP JUMPDEST DUP1 PUSH1 0x20 ADD MLOAD PUSH2 0x1BA8 JUMPI PUSH1 0x1 SWAP4 POP POP POP POP PUSH2 0x1C86 JUMP JUMPDEST DUP5 PUSH1 0x1 DUP4 PUSH2 0x1BB6 SWAP2 SWAP1 PUSH2 0x2DD6 JUMP JUMPDEST DUP2 MLOAD DUP2 LT PUSH2 0x1BC7 JUMPI PUSH2 0x1BC6 PUSH2 0x2BF1 JUMP JUMPDEST JUMPDEST PUSH1 0x20 MUL PUSH1 0x20 ADD ADD MLOAD PUSH1 0x20 ADD MLOAD DUP2 PUSH1 0x40 ADD MLOAD EQ PUSH2 0x1BE9 JUMPI PUSH1 0x0 SWAP4 POP POP POP POP PUSH2 0x1C86 JUMP JUMPDEST DUP5 PUSH1 0x1 DUP4 PUSH2 0x1BF7 SWAP2 SWAP1 PUSH2 0x2DD6 JUMP JUMPDEST DUP2 MLOAD DUP2 LT PUSH2 0x1C08 JUMPI PUSH2 0x1C07 PUSH2 0x2BF1 JUMP JUMPDEST JUMPDEST PUSH1 0x20 MUL PUSH1 0x20 ADD ADD MLOAD PUSH1 0x40 ADD MLOAD DUP2 PUSH1 0x60 ADD MLOAD EQ PUSH2 0x1C2A JUMPI PUSH1 0x0 SWAP4 POP POP POP POP PUSH2 0x1C86 JUMP JUMPDEST DUP5 PUSH1 0x1 DUP4 PUSH2 0x1C38 SWAP2 SWAP1 PUSH2 0x2DD6 JUMP JUMPDEST DUP2 MLOAD DUP2 LT PUSH2 0x1C49 JUMPI PUSH2 0x1C48 PUSH2 0x2BF1 JUMP JUMPDEST JUMPDEST PUSH1 0x20 MUL PUSH1 0x20 ADD ADD MLOAD PUSH1 0x60 ADD MLOAD DUP2 PUSH1 0x80 ADD MLOAD EQ PUSH2 0x1C6B JUMPI PUSH1 0x0 SWAP4 POP POP POP POP PUSH2 0x1C86 JUMP JUMPDEST POP DUP1 DUP1 PUSH2 0x1C77 SWAP1 PUSH2 0x2B64 JUMP JUMPDEST SWAP2 POP POP PUSH2 0x1B4F JUMP JUMPDEST POP PUSH1 0x1 SWAP2 POP POP JUMPDEST SWAP2 SWAP1 POP JUMP JUMPDEST PUSH2 0x1C93 PUSH2 0x21DC JUMP JUMPDEST PUSH20 0xFFFFFFFFFFFFFFFFFFFFFFFFFFFFFFFFFFFFFFFF AND PUSH2 0x1CB1 PUSH2 0xD13 JUMP JUMPDEST PUSH20 0xFFFFFFFFFFFFFFFFFFFFFFFFFFFFFFFFFFFFFFFF AND EQ PUSH2 0x1D07 JUMPI PUSH1 0x40 MLOAD PUSH32 0x8C379A000000000000000000000000000000000000000000000000000000000 DUP2 MSTORE PUSH1 0x4 ADD PUSH2 0x1CFE SWAP1 PUSH2 0x36BB JUMP JUMPDEST PUSH1 0x40 MLOAD DUP1 SWAP2 SUB SWAP1 REVERT JUMPDEST JUMP JUMPDEST PUSH1 0x0 DUP1 PUSH1 0x0 SWAP1 SLOAD SWAP1 PUSH2 0x100 EXP SWAP1 DIV PUSH20 0xFFFFFFFFFFFFFFFFFFFFFFFFFFFFFFFFFFFFFFFF AND SWAP1 POP DUP2 PUSH1 0x0 DUP1 PUSH2 0x100 EXP DUP2 SLOAD DUP2 PUSH20 0xFFFFFFFFFFFFFFFFFFFFFFFFFFFFFFFFFFFFFFFF MUL NOT AND SWAP1 DUP4 PUSH20 0xFFFFFFFFFFFFFFFFFFFFFFFFFFFFFFFFFFFFFFFF AND MUL OR SWAP1 SSTORE POP DUP2 PUSH20 0xFFFFFFFFFFFFFFFFFFFFFFFFFFFFFFFFFFFFFFFF AND DUP2 PUSH20 0xFFFFFFFFFFFFFFFFFFFFFFFFFFFFFFFFFFFFFFFF AND PUSH32 0x8BE0079C531659141344CD1FD0A4F28419497F9722A3DAAFE3B4186F6B6457E0 PUSH1 0x40 MLOAD PUSH1 0x40 MLOAD DUP1 SWAP2 SUB SWAP1 LOG3 POP POP JUMP JUMPDEST PUSH1 0x2 DUP1 DUP2 GT ISZERO PUSH2 0x1DE0 JUMPI PUSH2 0x1DDF PUSH2 0x283D JUMP JUMPDEST JUMPDEST PUSH1 0x7 PUSH1 0x0 SWAP1 SLOAD SWAP1 PUSH2 0x100 EXP SWAP1 DIV PUSH1 0xFF AND PUSH1 0x2 DUP2 GT ISZERO PUSH2 0x1E02 JUMPI PUSH2 0x1E01 PUSH2 0x283D JUMP JUMPDEST JUMPDEST SUB PUSH2 0x1E42 JUMPI PUSH1 0x40 MLOAD PUSH32 0x8C379A000000000000000000000000000000000000000000000000000000000 DUP2 MSTORE PUSH1 0x4 ADD PUSH2 0x1E39 SWAP1 PUSH2 0x3727 JUMP JUMPDEST PUSH1 0x40 MLOAD DUP1 SWAP2 SUB SWAP1 REVERT JUMPDEST PUSH1 0x3 DUP1 PUSH2 0x1E52 JUMPI PUSH2 0x1E51 PUSH2 0x2A75 JUMP JUMPDEST JUMPDEST PUSH1 0x1 PUSH1 0x7 PUSH1 0x0 SWAP1 SLOAD SWAP1 PUSH2 0x100 EXP SWAP1 DIV PUSH1 0xFF AND PUSH1 0x2 DUP2 GT ISZERO PUSH2 0x1E76 JUMPI PUSH2 0x1E75 PUSH2 0x283D JUMP JUMPDEST JUMPDEST ADDMOD PUSH1 0x2 DUP2 GT ISZERO PUSH2 0x1E89 JUMPI PUSH2 0x1E88 PUSH2 0x283D JUMP JUMPDEST JUMPDEST PUSH1 0x7 PUSH1 0x0 PUSH2 0x100 EXP DUP2 SLOAD DUP2 PUSH1 0xFF MUL NOT AND SWAP1 DUP4 PUSH1 0x2 DUP2 GT ISZERO PUSH2 0x1EAD JUMPI PUSH2 0x1EAC PUSH2 0x283D JUMP JUMPDEST JUMPDEST MUL OR SWAP1 SSTORE POP JUMP JUMPDEST PUSH1 0x0 DUP1 PUSH1 0x0 SWAP1 POP PUSH27 0x184F03E93FF9F4DAA797ED6E38ED64BF6A1F010000000000000000 DUP4 LT PUSH2 0x1F12 JUMPI PUSH27 0x184F03E93FF9F4DAA797ED6E38ED64BF6A1F010000000000000000 DUP4 DUP2 PUSH2 0x1F08 JUMPI PUSH2 0x1F07 PUSH2 0x2A75 JUMP JUMPDEST JUMPDEST DIV SWAP3 POP PUSH1 0x40 DUP2 ADD SWAP1 POP JUMPDEST PUSH14 0x4EE2D6D415B85ACEF8100000000 DUP4 LT PUSH2 0x1F4F JUMPI PUSH14 0x4EE2D6D415B85ACEF8100000000 DUP4 DUP2 PUSH2 0x1F45 JUMPI PUSH2 0x1F44 PUSH2 0x2A75 JUMP JUMPDEST JUMPDEST DIV SWAP3 POP PUSH1 0x20 DUP2 ADD SWAP1 POP JUMPDEST PUSH7 0x2386F26FC10000 DUP4 LT PUSH2 0x1F7E JUMPI PUSH7 0x2386F26FC10000 DUP4 DUP2 PUSH2 0x1F74 JUMPI PUSH2 0x1F73 PUSH2 0x2A75 JUMP JUMPDEST JUMPDEST DIV SWAP3 POP PUSH1 0x10 DUP2 ADD SWAP1 POP JUMPDEST PUSH4 0x5F5E100 DUP4 LT PUSH2 0x1FA7 JUMPI PUSH4 0x5F5E100 DUP4 DUP2 PUSH2 0x1F9D JUMPI PUSH2 0x1F9C PUSH2 0x2A75 JUMP JUMPDEST JUMPDEST DIV SWAP3 POP PUSH1 0x8 DUP2 ADD SWAP1 POP JUMPDEST PUSH2 0x2710 DUP4 LT PUSH2 0x1FCC JUMPI PUSH2 0x2710 DUP4 DUP2 PUSH2 0x1FC2 JUMPI PUSH2 0x1FC1 PUSH2 0x2A75 JUMP JUMPDEST JUMPDEST DIV SWAP3 POP PUSH1 0x4 DUP2 ADD SWAP1 POP JUMPDEST PUSH1 0x64 DUP4 LT PUSH2 0x1FEF JUMPI PUSH1 0x64 DUP4 DUP2 PUSH2 0x1FE5 JUMPI PUSH2 0x1FE4 PUSH2 0x2A75 JUMP JUMPDEST JUMPDEST DIV SWAP3 POP PUSH1 0x2 DUP2 ADD SWAP1 POP JUMPDEST PUSH1 0xA DUP4 LT PUSH2 0x1FFE JUMPI PUSH1 0x1 DUP2 ADD SWAP1 POP JUMPDEST DUP1 SWAP2 POP POP SWAP2 SWAP1 POP JUMP JUMPDEST PUSH2 0x200F PUSH2 0x2223 JUMP JUMPDEST PUSH1 0x1 DUP3 PUSH1 0x60 ADD MLOAD SUB PUSH2 0x20A7 JUMPI PUSH2 0x202F DUP3 PUSH1 0x20 ADD MLOAD PUSH1 0x2 DUP5 PUSH1 0x0 ADD MLOAD PUSH2 0x1A6A JUMP JUMPDEST DUP3 PUSH1 0x40 ADD MLOAD SUB PUSH2 0x2070 JUMPI PUSH1 0x40 MLOAD DUP1 PUSH1 0xA0 ADD PUSH1 0x40 MSTORE DUP1 PUSH1 0x1 ISZERO ISZERO DUP2 MSTORE PUSH1 0x20 ADD PUSH1 0x0 ISZERO ISZERO DUP2 MSTORE PUSH1 0x20 ADD PUSH1 0x0 DUP2 MSTORE PUSH1 0x20 ADD PUSH1 0x0 DUP2 MSTORE PUSH1 0x20 ADD PUSH1 0x0 DUP2 MSTORE POP SWAP1 POP PUSH2 0x21D7 JUMP JUMPDEST PUSH1 0x40 MLOAD DUP1 PUSH1 0xA0 ADD PUSH1 0x40 MSTORE DUP1 PUSH1 0x0 ISZERO ISZERO DUP2 MSTORE PUSH1 0x20 ADD PUSH1 0x0 ISZERO ISZERO DUP2 MSTORE PUSH1 0x20 ADD PUSH1 0x0 DUP2 MSTORE PUSH1 0x20 ADD PUSH1 0x0 DUP2 MSTORE PUSH1 0x20 ADD PUSH1 0x0 DUP2 MSTORE POP SWAP1 POP PUSH2 0x21D7 JUMP JUMPDEST PUSH1 0x0 DUP1 DUP4 PUSH1 0x40 ADD MLOAD SWAP1 POP PUSH1 0x0 PUSH2 0x20FA DUP6 PUSH1 0x20 ADD MLOAD PUSH2 0x20C8 DUP8 PUSH1 0x40 ADD MLOAD PUSH2 0x199C JUMP JUMPDEST PUSH2 0x20D5 DUP9 PUSH1 0x80 ADD MLOAD PUSH2 0x199C JUMP JUMPDEST PUSH1 0x40 MLOAD PUSH1 0x20 ADD PUSH2 0x20E6 SWAP3 SWAP2 SWAP1 PUSH2 0x2AE0 JUMP JUMPDEST PUSH1 0x40 MLOAD PUSH1 0x20 DUP2 DUP4 SUB SUB DUP2 MSTORE SWAP1 PUSH1 0x40 MSTORE PUSH2 0x21E4 JUMP JUMPDEST SWAP1 POP PUSH1 0x0 PUSH1 0x1 DUP7 PUSH1 0x60 ADD MLOAD AND SUB PUSH2 0x2123 JUMPI PUSH1 0x2 DUP6 PUSH1 0x60 ADD MLOAD PUSH2 0x211C SWAP2 SWAP1 PUSH2 0x363E JUMP JUMPDEST SWAP3 POP PUSH2 0x2160 JUMP JUMPDEST PUSH1 0x2 PUSH1 0x1 DUP7 PUSH1 0x60 ADD MLOAD PUSH2 0x2136 SWAP2 SWAP1 PUSH2 0x2DD6 JUMP JUMPDEST PUSH2 0x2140 SWAP2 SWAP1 PUSH2 0x363E JUMP JUMPDEST SWAP3 POP DUP5 PUSH1 0x0 ADD MLOAD DUP3 DUP4 PUSH2 0x2153 SWAP2 SWAP1 PUSH2 0x3747 JUMP JUMPDEST PUSH2 0x215D SWAP2 SWAP1 PUSH2 0x2B04 JUMP JUMPDEST SWAP2 POP JUMPDEST PUSH1 0x40 MLOAD DUP1 PUSH1 0xA0 ADD PUSH1 0x40 MSTORE DUP1 PUSH1 0x1 ISZERO ISZERO DUP2 MSTORE PUSH1 0x20 ADD PUSH1 0x1 ISZERO ISZERO DUP2 MSTORE PUSH1 0x20 ADD PUSH2 0x21A2 PUSH2 0x2193 DUP9 PUSH1 0x20 ADD MLOAD DUP6 DUP11 PUSH1 0x0 ADD MLOAD PUSH2 0x1A6A JUMP JUMPDEST DUP9 PUSH1 0x80 ADD MLOAD DUP10 PUSH1 0x0 ADD MLOAD PUSH2 0x1A6A JUMP JUMPDEST DUP2 MSTORE PUSH1 0x20 ADD PUSH2 0x21C8 PUSH2 0x21BD DUP9 PUSH1 0x80 ADD MLOAD DUP6 DUP11 PUSH1 0x0 ADD MLOAD PUSH2 0x1A6A JUMP JUMPDEST DUP6 DUP10 PUSH1 0x0 ADD MLOAD PUSH2 0x1A6A JUMP JUMPDEST DUP2 MSTORE PUSH1 0x20 ADD DUP5 DUP2 MSTORE POP SWAP4 POP POP POP POP JUMPDEST SWAP2 SWAP1 POP JUMP JUMPDEST PUSH1 0x0 CALLER SWAP1 POP SWAP1 JUMP JUMPDEST PUSH1 0x0 DUP3 DUP3 PUSH1 0x40 MLOAD PUSH1 0x20 ADD PUSH2 0x21F8 SWAP2 SWAP1 PUSH2 0x3789 JUMP JUMPDEST PUSH1 0x40 MLOAD PUSH1 0x20 DUP2 DUP4 SUB SUB DUP2 MSTORE SWAP1 PUSH1 0x40 MSTORE DUP1 MLOAD SWAP1 PUSH1 0x20 ADD KECCAK256 PUSH1 0x0 SHR PUSH2 0x221B SWAP2 SWAP1 PUSH2 0x2B04 JUMP JUMPDEST SWAP1 POP SWAP3 SWAP2 POP POP JUMP JUMPDEST PUSH1 0x40 MLOAD DUP1 PUSH1 0xA0 ADD PUSH1 0x40 MSTORE DUP1 PUSH1 0x0 ISZERO ISZERO DUP2 MSTORE PUSH1 0x20 ADD PUSH1 0x0 ISZERO ISZERO DUP2 MSTORE PUSH1 0x20 ADD PUSH1 0x0 DUP2 MSTORE PUSH1 0x20 ADD PUSH1 0x0 DUP2 MSTORE PUSH1 0x20 ADD PUSH1 0x0 DUP2 MSTORE POP SWAP1 JUMP JUMPDEST PUSH1 0x0 DUP2 SWAP1 POP SWAP2 SWAP1 POP JUMP JUMPDEST PUSH2 0x2269 DUP2 PUSH2 0x2256 JUMP JUMPDEST DUP3 MSTORE POP POP JUMP JUMPDEST PUSH1 0x0 PUSH1 0x20 DUP3 ADD SWAP1 POP PUSH2 0x2284 PUSH1 0x0 DUP4 ADD DUP5 PUSH2 0x2260 JUMP JUMPDEST SWAP3 SWAP2 POP POP JUMP JUMPDEST PUSH1 0x0 PUSH1 0x40 MLOAD SWAP1 POP SWAP1 JUMP JUMPDEST PUSH1 0x0 DUP1 REVERT JUMPDEST PUSH1 0x0 DUP1 REVERT JUMPDEST PUSH2 0x22A7 DUP2 PUSH2 0x2256 JUMP JUMPDEST DUP2 EQ PUSH2 0x22B2 JUMPI PUSH1 0x0 DUP1 REVERT JUMPDEST POP JUMP JUMPDEST PUSH1 0x0 DUP2 CALLDATALOAD SWAP1 POP PUSH2 0x22C4 DUP2 PUSH2 0x229E JUMP JUMPDEST SWAP3 SWAP2 POP POP JUMP JUMPDEST PUSH1 0x0 DUP1 PUSH1 0x40 DUP4 DUP6 SUB SLT ISZERO PUSH2 0x22E1 JUMPI PUSH2 0x22E0 PUSH2 0x2294 JUMP JUMPDEST JUMPDEST PUSH1 0x0 PUSH2 0x22EF DUP6 DUP3 DUP7 ADD PUSH2 0x22B5 JUMP JUMPDEST SWAP3 POP POP PUSH1 0x20 PUSH2 0x2300 DUP6 DUP3 DUP7 ADD PUSH2 0x22B5 JUMP JUMPDEST SWAP2 POP POP SWAP3 POP SWAP3 SWAP1 POP JUMP JUMPDEST PUSH1 0x0 PUSH20 0xFFFFFFFFFFFFFFFFFFFFFFFFFFFFFFFFFFFFFFFF DUP3 AND SWAP1 POP SWAP2 SWAP1 POP JUMP JUMPDEST PUSH1 0x0 PUSH2 0x2335 DUP3 PUSH2 0x230A JUMP JUMPDEST SWAP1 POP SWAP2 SWAP1 POP JUMP JUMPDEST PUSH2 0x2345 DUP2 PUSH2 0x232A JUMP JUMPDEST DUP3 MSTORE POP POP JUMP JUMPDEST PUSH1 0x0 PUSH1 0x60 DUP3 ADD SWAP1 POP PUSH2 0x2360 PUSH1 0x0 DUP4 ADD DUP7 PUSH2 0x2260 JUMP JUMPDEST PUSH2 0x236D PUSH1 0x20 DUP4 ADD DUP6 PUSH2 0x2260 JUMP JUMPDEST PUSH2 0x237A PUSH1 0x40 DUP4 ADD DUP5 PUSH2 0x233C JUMP JUMPDEST SWAP5 SWAP4 POP POP POP POP JUMP JUMPDEST PUSH1 0x0 DUP1 REVERT JUMPDEST PUSH1 0x0 DUP1 REVERT JUMPDEST PUSH1 0x0 DUP1 REVERT JUMPDEST PUSH1 0x0 DUP1 DUP4 PUSH1 0x1F DUP5 ADD SLT PUSH2 0x23A7 JUMPI PUSH2 0x23A6 PUSH2 0x2382 JUMP JUMPDEST JUMPDEST DUP3 CALLDATALOAD SWAP1 POP PUSH8 0xFFFFFFFFFFFFFFFF DUP2 GT ISZERO PUSH2 0x23C4 JUMPI PUSH2 0x23C3 PUSH2 0x2387 JUMP JUMPDEST JUMPDEST PUSH1 0x20 DUP4 ADD SWAP2 POP DUP4 PUSH1 0xA0 DUP3 MUL DUP4 ADD GT ISZERO PUSH2 0x23E0 JUMPI PUSH2 0x23DF PUSH2 0x238C JUMP JUMPDEST JUMPDEST SWAP3 POP SWAP3 SWAP1 POP JUMP JUMPDEST PUSH1 0x0 DUP1 PUSH1 0x0 PUSH1 0x40 DUP5 DUP7 SUB SLT ISZERO PUSH2 0x2400 JUMPI PUSH2 0x23FF PUSH2 0x2294 JUMP JUMPDEST JUMPDEST PUSH1 0x0 PUSH2 0x240E DUP7 DUP3 DUP8 ADD PUSH2 0x22B5 JUMP JUMPDEST SWAP4 POP POP PUSH1 0x20 DUP5 ADD CALLDATALOAD PUSH8 0xFFFFFFFFFFFFFFFF DUP2 GT ISZERO PUSH2 0x242F JUMPI PUSH2 0x242E PUSH2 0x2299 JUMP JUMPDEST JUMPDEST PUSH2 0x243B DUP7 DUP3 DUP8 ADD PUSH2 0x2391 JUMP JUMPDEST SWAP3 POP SWAP3 POP POP SWAP3 POP SWAP3 POP SWAP3 JUMP JUMPDEST PUSH1 0x0 PUSH1 0x20 DUP3 DUP5 SUB SLT ISZERO PUSH2 0x245D JUMPI PUSH2 0x245C PUSH2 0x2294 JUMP JUMPDEST JUMPDEST PUSH1 0x0 PUSH2 0x246B DUP5 DUP3 DUP6 ADD PUSH2 0x22B5 JUMP JUMPDEST SWAP2 POP POP SWAP3 SWAP2 POP POP JUMP JUMPDEST PUSH1 0x0 DUP2 ISZERO ISZERO SWAP1 POP SWAP2 SWAP1 POP JUMP JUMPDEST PUSH2 0x2489 DUP2 PUSH2 0x2474 JUMP JUMPDEST DUP3 MSTORE POP POP JUMP JUMPDEST PUSH1 0x0 PUSH2 0x120 DUP3 ADD SWAP1 POP PUSH2 0x24A5 PUSH1 0x0 DUP4 ADD DUP13 PUSH2 0x2260 JUMP JUMPDEST PUSH2 0x24B2 PUSH1 0x20 DUP4 ADD DUP12 PUSH2 0x2260 JUMP JUMPDEST PUSH2 0x24BF PUSH1 0x40 DUP4 ADD DUP11 PUSH2 0x2260 JUMP JUMPDEST PUSH2 0x24CC PUSH1 0x60 DUP4 ADD DUP10 PUSH2 0x2260 JUMP JUMPDEST PUSH2 0x24D9 PUSH1 0x80 DUP4 ADD DUP9 PUSH2 0x2260 JUMP JUMPDEST PUSH2 0x24E6 PUSH1 0xA0 DUP4 ADD DUP8 PUSH2 0x2260 JUMP JUMPDEST PUSH2 0x24F3 PUSH1 0xC0 DUP4 ADD DUP7 PUSH2 0x2260 JUMP JUMPDEST PUSH2 0x2500 PUSH1 0xE0 DUP4 ADD DUP6 PUSH2 0x2480 JUMP JUMPDEST PUSH2 0x250E PUSH2 0x100 DUP4 ADD DUP5 PUSH2 0x2480 JUMP JUMPDEST SWAP11 SWAP10 POP POP POP POP POP POP POP POP POP POP JUMP JUMPDEST PUSH1 0x0 PUSH1 0x20 DUP3 ADD SWAP1 POP PUSH2 0x2531 PUSH1 0x0 DUP4 ADD DUP5 PUSH2 0x233C JUMP JUMPDEST SWAP3 SWAP2 POP POP JUMP JUMPDEST PUSH1 0x0 PUSH1 0x1F NOT PUSH1 0x1F DUP4 ADD AND SWAP1 POP SWAP2 SWAP1 POP JUMP JUMPDEST PUSH32 0x4E487B7100000000000000000000000000000000000000000000000000000000 PUSH1 0x0 MSTORE PUSH1 0x41 PUSH1 0x4 MSTORE PUSH1 0x24 PUSH1 0x0 REVERT JUMPDEST PUSH2 0x2580 DUP3 PUSH2 0x2537 JUMP JUMPDEST DUP2 ADD DUP2 DUP2 LT PUSH8 0xFFFFFFFFFFFFFFFF DUP3 GT OR ISZERO PUSH2 0x259F JUMPI PUSH2 0x259E PUSH2 0x2548 JUMP JUMPDEST JUMPDEST DUP1 PUSH1 0x40 MSTORE POP POP POP JUMP JUMPDEST PUSH1 0x0 PUSH2 0x25B2 PUSH2 0x228A JUMP JUMPDEST SWAP1 POP PUSH2 0x25BE DUP3 DUP3 PUSH2 0x2577 JUMP JUMPDEST SWAP2 SWAP1 POP JUMP JUMPDEST PUSH1 0x0 PUSH8 0xFFFFFFFFFFFFFFFF DUP3 GT ISZERO PUSH2 0x25DE JUMPI PUSH2 0x25DD PUSH2 0x2548 JUMP JUMPDEST JUMPDEST PUSH1 0x20 DUP3 MUL SWAP1 POP PUSH1 0x20 DUP2 ADD SWAP1 POP SWAP2 SWAP1 POP JUMP JUMPDEST PUSH1 0x0 DUP1 REVERT JUMPDEST PUSH1 0x0 PUSH1 0xA0 DUP3 DUP5 SUB SLT ISZERO PUSH2 0x260A JUMPI PUSH2 0x2609 PUSH2 0x25EF JUMP JUMPDEST JUMPDEST PUSH2 0x2614 PUSH1 0xA0 PUSH2 0x25A8 JUMP JUMPDEST SWAP1 POP PUSH1 0x0 PUSH2 0x2624 DUP5 DUP3 DUP6 ADD PUSH2 0x22B5 JUMP JUMPDEST PUSH1 0x0 DUP4 ADD MSTORE POP PUSH1 0x20 PUSH2 0x2638 DUP5 DUP3 DUP6 ADD PUSH2 0x22B5 JUMP JUMPDEST PUSH1 0x20 DUP4 ADD MSTORE POP PUSH1 0x40 PUSH2 0x264C DUP5 DUP3 DUP6 ADD PUSH2 0x22B5 JUMP JUMPDEST PUSH1 0x40 DUP4 ADD MSTORE POP PUSH1 0x60 PUSH2 0x2660 DUP5 DUP3 DUP6 ADD PUSH2 0x22B5 JUMP JUMPDEST PUSH1 0x60 DUP4 ADD MSTORE POP PUSH1 0x80 PUSH2 0x2674 DUP5 DUP3 DUP6 ADD PUSH2 0x22B5 JUMP JUMPDEST PUSH1 0x80 DUP4 ADD MSTORE POP SWAP3 SWAP2 POP POP JUMP JUMPDEST PUSH1 0x0 PUSH2 0x2693 PUSH2 0x268E DUP5 PUSH2 0x25C3 JUMP JUMPDEST PUSH2 0x25A8 JUMP JUMPDEST SWAP1 POP DUP1 DUP4 DUP3 MSTORE PUSH1 0x20 DUP3 ADD SWAP1 POP PUSH1 0xA0 DUP5 MUL DUP4 ADD DUP6 DUP2 GT ISZERO PUSH2 0x26B6 JUMPI PUSH2 0x26B5 PUSH2 0x238C JUMP JUMPDEST JUMPDEST DUP4 JUMPDEST DUP2 DUP2 LT ISZERO PUSH2 0x26DF JUMPI DUP1 PUSH2 0x26CB DUP9 DUP3 PUSH2 0x25F4 JUMP JUMPDEST DUP5 MSTORE PUSH1 0x20 DUP5 ADD SWAP4 POP POP PUSH1 0xA0 DUP2 ADD SWAP1 POP PUSH2 0x26B8 JUMP JUMPDEST POP POP POP SWAP4 SWAP3 POP POP POP JUMP JUMPDEST PUSH1 0x0 DUP3 PUSH1 0x1F DUP4 ADD SLT PUSH2 0x26FE JUMPI PUSH2 0x26FD PUSH2 0x2382 JUMP JUMPDEST JUMPDEST DUP2 CALLDATALOAD PUSH2 0x270E DUP5 DUP3 PUSH1 0x20 DUP7 ADD PUSH2 0x2680 JUMP JUMPDEST SWAP2 POP POP SWAP3 SWAP2 POP POP JUMP JUMPDEST PUSH1 0x0 DUP1 PUSH1 0x0 DUP1 PUSH1 0x80 DUP6 DUP8 SUB SLT ISZERO PUSH2 0x2731 JUMPI PUSH2 0x2730 PUSH2 0x2294 JUMP JUMPDEST JUMPDEST PUSH1 0x0 PUSH2 0x273F DUP8 DUP3 DUP9 ADD PUSH2 0x22B5 JUMP JUMPDEST SWAP5 POP POP PUSH1 0x20 PUSH2 0x2750 DUP8 DUP3 DUP9 ADD PUSH2 0x22B5 JUMP JUMPDEST SWAP4 POP POP PUSH1 0x40 PUSH2 0x2761 DUP8 DUP3 DUP9 ADD PUSH2 0x22B5 JUMP JUMPDEST SWAP3 POP POP PUSH1 0x60 DUP6 ADD CALLDATALOAD PUSH8 0xFFFFFFFFFFFFFFFF DUP2 GT ISZERO PUSH2 0x2782 JUMPI PUSH2 0x2781 PUSH2 0x2299 JUMP JUMPDEST JUMPDEST PUSH2 0x278E DUP8 DUP3 DUP9 ADD PUSH2 0x26E9 JUMP JUMPDEST SWAP2 POP POP SWAP3 SWAP6 SWAP2 SWAP5 POP SWAP3 POP JUMP JUMPDEST PUSH2 0x27A3 DUP2 PUSH2 0x232A JUMP JUMPDEST DUP2 EQ PUSH2 0x27AE JUMPI PUSH1 0x0 DUP1 REVERT JUMPDEST POP JUMP JUMPDEST PUSH1 0x0 DUP2 CALLDATALOAD SWAP1 POP PUSH2 0x27C0 DUP2 PUSH2 0x279A JUMP JUMPDEST SWAP3 SWAP2 POP POP JUMP JUMPDEST PUSH1 0x0 DUP1 PUSH1 0x40 DUP4 DUP6 SUB SLT ISZERO PUSH2 0x27DD JUMPI PUSH2 0x27DC PUSH2 0x2294 JUMP JUMPDEST JUMPDEST PUSH1 0x0 PUSH2 0x27EB DUP6 DUP3 DUP7 ADD PUSH2 0x27B1 JUMP JUMPDEST SWAP3 POP POP PUSH1 0x20 PUSH2 0x27FC DUP6 DUP3 DUP7 ADD PUSH2 0x22B5 JUMP JUMPDEST SWAP2 POP POP SWAP3 POP SWAP3 SWAP1 POP JUMP JUMPDEST PUSH1 0x0 PUSH1 0x60 DUP3 ADD SWAP1 POP PUSH2 0x281B PUSH1 0x0 DUP4 ADD DUP7 PUSH2 0x2260 JUMP JUMPDEST PUSH2 0x2828 PUSH1 0x20 DUP4 ADD DUP6 PUSH2 0x2480 JUMP JUMPDEST PUSH2 0x2835 PUSH1 0x40 DUP4 ADD DUP5 PUSH2 0x2480 JUMP JUMPDEST SWAP5 SWAP4 POP POP POP POP JUMP JUMPDEST PUSH32 0x4E487B7100000000000000000000000000000000000000000000000000000000 PUSH1 0x0 MSTORE PUSH1 0x21 PUSH1 0x4 MSTORE PUSH1 0x24 PUSH1 0x0 REVERT JUMPDEST PUSH1 0x3 DUP2 LT PUSH2 0x287D JUMPI PUSH2 0x287C PUSH2 0x283D JUMP JUMPDEST JUMPDEST POP JUMP JUMPDEST PUSH1 0x0 DUP2 SWAP1 POP PUSH2 0x288E DUP3 PUSH2 0x286C JUMP JUMPDEST SWAP2 SWAP1 POP JUMP JUMPDEST PUSH1 0x0 PUSH2 0x289E DUP3 PUSH2 0x2880 JUMP JUMPDEST SWAP1 POP SWAP2 SWAP1 POP JUMP JUMPDEST PUSH2 0x28AE DUP2 PUSH2 0x2893 JUMP JUMPDEST DUP3 MSTORE POP POP JUMP JUMPDEST PUSH1 0x0 PUSH1 0x20 DUP3 ADD SWAP1 POP PUSH2 0x28C9 PUSH1 0x0 DUP4 ADD DUP5 PUSH2 0x28A5 JUMP JUMPDEST SWAP3 SWAP2 POP POP JUMP JUMPDEST PUSH1 0x0 DUP2 MLOAD SWAP1 POP SWAP2 SWAP1 POP JUMP JUMPDEST PUSH1 0x0 DUP3 DUP3 MSTORE PUSH1 0x20 DUP3 ADD SWAP1 POP SWAP3 SWAP2 POP POP JUMP JUMPDEST PUSH1 0x0 JUMPDEST DUP4 DUP2 LT ISZERO PUSH2 0x2909 JUMPI DUP1 DUP3 ADD MLOAD DUP2 DUP5 ADD MSTORE PUSH1 0x20 DUP2 ADD SWAP1 POP PUSH2 0x28EE JUMP JUMPDEST PUSH1 0x0 DUP5 DUP5 ADD MSTORE POP POP POP POP JUMP JUMPDEST PUSH1 0x0 PUSH2 0x2920 DUP3 PUSH2 0x28CF JUMP JUMPDEST PUSH2 0x292A DUP2 DUP6 PUSH2 0x28DA JUMP JUMPDEST SWAP4 POP PUSH2 0x293A DUP2 DUP6 PUSH1 0x20 DUP7 ADD PUSH2 0x28EB JUMP JUMPDEST PUSH2 0x2943 DUP2 PUSH2 0x2537 JUMP JUMPDEST DUP5 ADD SWAP2 POP POP SWAP3 SWAP2 POP POP JUMP JUMPDEST PUSH1 0x0 PUSH1 0x20 DUP3 ADD SWAP1 POP DUP2 DUP2 SUB PUSH1 0x0 DUP4 ADD MSTORE PUSH2 0x2968 DUP2 DUP5 PUSH2 0x2915 JUMP JUMPDEST SWAP1 POP SWAP3 SWAP2 POP POP JUMP JUMPDEST PUSH1 0x0 PUSH1 0x20 DUP3 DUP5 SUB SLT ISZERO PUSH2 0x2986 JUMPI PUSH2 0x2985 PUSH2 0x2294 JUMP JUMPDEST JUMPDEST PUSH1 0x0 PUSH2 0x2994 DUP5 DUP3 DUP6 ADD PUSH2 0x27B1 JUMP JUMPDEST SWAP2 POP POP SWAP3 SWAP2 POP POP JUMP JUMPDEST PUSH32 0x4E6F74416C6C52657665616C6564000000000000000000000000000000000000 PUSH1 0x0 DUP3 ADD MSTORE POP JUMP JUMPDEST PUSH1 0x0 PUSH2 0x29D3 PUSH1 0xE DUP4 PUSH2 0x28DA JUMP JUMPDEST SWAP2 POP PUSH2 0x29DE DUP3 PUSH2 0x299D JUMP JUMPDEST PUSH1 0x20 DUP3 ADD SWAP1 POP SWAP2 SWAP1 POP JUMP JUMPDEST PUSH1 0x0 PUSH1 0x20 DUP3 ADD SWAP1 POP DUP2 DUP2 SUB PUSH1 0x0 DUP4 ADD MSTORE PUSH2 0x2A02 DUP2 PUSH2 0x29C6 JUMP JUMPDEST SWAP1 POP SWAP2 SWAP1 POP JUMP JUMPDEST PUSH32 0x4F6D656761416C7265616479436F6D706C657465640000000000000000000000 PUSH1 0x0 DUP3 ADD MSTORE POP JUMP JUMPDEST PUSH1 0x0 PUSH2 0x2A3F PUSH1 0x15 DUP4 PUSH2 0x28DA JUMP JUMPDEST SWAP2 POP PUSH2 0x2A4A DUP3 PUSH2 0x2A09 JUMP JUMPDEST PUSH1 0x20 DUP3 ADD SWAP1 POP SWAP2 SWAP1 POP JUMP JUMPDEST PUSH1 0x0 PUSH1 0x20 DUP3 ADD SWAP1 POP DUP2 DUP2 SUB PUSH1 0x0 DUP4 ADD MSTORE PUSH2 0x2A6E DUP2 PUSH2 0x2A32 JUMP JUMPDEST SWAP1 POP SWAP2 SWAP1 POP JUMP JUMPDEST PUSH32 0x4E487B7100000000000000000000000000000000000000000000000000000000 PUSH1 0x0 MSTORE PUSH1 0x12 PUSH1 0x4 MSTORE PUSH1 0x24 PUSH1 0x0 REVERT JUMPDEST PUSH1 0x0 DUP2 SWAP1 POP SWAP3 SWAP2 POP POP JUMP JUMPDEST PUSH1 0x0 PUSH2 0x2ABA DUP3 PUSH2 0x28CF JUMP JUMPDEST PUSH2 0x2AC4 DUP2 DUP6 PUSH2 0x2AA4 JUMP JUMPDEST SWAP4 POP PUSH2 0x2AD4 DUP2 DUP6 PUSH1 0x20 DUP7 ADD PUSH2 0x28EB JUMP JUMPDEST DUP1 DUP5 ADD SWAP2 POP POP SWAP3 SWAP2 POP POP JUMP JUMPDEST PUSH1 0x0 PUSH2 0x2AEC DUP3 DUP6 PUSH2 0x2AAF JUMP JUMPDEST SWAP2 POP PUSH2 0x2AF8 DUP3 DUP5 PUSH2 0x2AAF JUMP JUMPDEST SWAP2 POP DUP2 SWAP1 POP SWAP4 SWAP3 POP POP POP JUMP JUMPDEST PUSH1 0x0 PUSH2 0x2B0F DUP3 PUSH2 0x2256 JUMP JUMPDEST SWAP2 POP PUSH2 0x2B1A DUP4 PUSH2 0x2256 JUMP JUMPDEST SWAP3 POP DUP3 PUSH2 0x2B2A JUMPI PUSH2 0x2B29 PUSH2 0x2A75 JUMP JUMPDEST JUMPDEST DUP3 DUP3 MOD SWAP1 POP SWAP3 SWAP2 POP POP JUMP JUMPDEST PUSH32 0x4E487B7100000000000000000000000000000000000000000000000000000000 PUSH1 0x0 MSTORE PUSH1 0x11 PUSH1 0x4 MSTORE PUSH1 0x24 PUSH1 0x0 REVERT JUMPDEST PUSH1 0x0 PUSH2 0x2B6F DUP3 PUSH2 0x2256 JUMP JUMPDEST SWAP2 POP PUSH32 0xFFFFFFFFFFFFFFFFFFFFFFFFFFFFFFFFFFFFFFFFFFFFFFFFFFFFFFFFFFFFFFFF DUP3 SUB PUSH2 0x2BA1 JUMPI PUSH2 0x2BA0 PUSH2 0x2B35 JUMP JUMPDEST JUMPDEST PUSH1 0x1 DUP3 ADD SWAP1 POP SWAP2 SWAP1 POP JUMP JUMPDEST PUSH1 0x0 PUSH1 0x80 DUP3 ADD SWAP1 POP PUSH2 0x2BC1 PUSH1 0x0 DUP4 ADD DUP8 PUSH2 0x2260 JUMP JUMPDEST PUSH2 0x2BCE PUSH1 0x20 DUP4 ADD DUP7 PUSH2 0x2260 JUMP JUMPDEST PUSH2 0x2BDB PUSH1 0x40 DUP4 ADD DUP6 PUSH2 0x2260 JUMP JUMPDEST PUSH2 0x2BE8 PUSH1 0x60 DUP4 ADD DUP5 PUSH2 0x2480 JUMP JUMPDEST SWAP6 SWAP5 POP POP POP POP POP JUMP JUMPDEST PUSH32 0x4E487B7100000000000000000000000000000000000000000000000000000000 PUSH1 0x0 MSTORE PUSH1 0x32 PUSH1 0x4 MSTORE PUSH1 0x24 PUSH1 0x0 REVERT JUMPDEST PUSH32 0x477265617465724F72457175616C5468616E4E00000000000000000000000000 PUSH1 0x0 DUP3 ADD MSTORE POP JUMP JUMPDEST PUSH1 0x0 PUSH2 0x2C56 PUSH1 0x13 DUP4 PUSH2 0x28DA JUMP JUMPDEST SWAP2 POP PUSH2 0x2C61 DUP3 PUSH2 0x2C20 JUMP JUMPDEST PUSH1 0x20 DUP3 ADD SWAP1 POP SWAP2 SWAP1 POP JUMP JUMPDEST PUSH1 0x0 PUSH1 0x20 DUP3 ADD SWAP1 POP DUP2 DUP2 SUB PUSH1 0x0 DUP4 ADD MSTORE PUSH2 0x2C85 DUP2 PUSH2 0x2C49 JUMP JUMPDEST SWAP1 POP SWAP2 SWAP1 POP JUMP JUMPDEST PUSH32 0x544E6F744D617463686564000000000000000000000000000000000000000000 PUSH1 0x0 DUP3 ADD MSTORE POP JUMP JUMPDEST PUSH1 0x0 PUSH2 0x2CC2 PUSH1 0xB DUP4 PUSH2 0x28DA JUMP JUMPDEST SWAP2 POP PUSH2 0x2CCD DUP3 PUSH2 0x2C8C JUMP JUMPDEST PUSH1 0x20 DUP3 ADD SWAP1 POP SWAP2 SWAP1 POP JUMP JUMPDEST PUSH1 0x0 PUSH1 0x20 DUP3 ADD SWAP1 POP DUP2 DUP2 SUB PUSH1 0x0 DUP4 ADD MSTORE PUSH2 0x2CF1 DUP2 PUSH2 0x2CB5 JUMP JUMPDEST SWAP1 POP SWAP2 SWAP1 POP JUMP JUMPDEST PUSH1 0x0 PUSH1 0xA0 DUP3 DUP5 SUB SLT ISZERO PUSH2 0x2D0E JUMPI PUSH2 0x2D0D PUSH2 0x2294 JUMP JUMPDEST JUMPDEST PUSH1 0x0 PUSH2 0x2D1C DUP5 DUP3 DUP6 ADD PUSH2 0x25F4 JUMP JUMPDEST SWAP2 POP POP SWAP3 SWAP2 POP POP JUMP JUMPDEST PUSH32 0x5265636F764E6F744D6174636858000000000000000000000000000000000000 PUSH1 0x0 DUP3 ADD MSTORE POP JUMP JUMPDEST PUSH1 0x0 PUSH2 0x2D5B PUSH1 0xE DUP4 PUSH2 0x28DA JUMP JUMPDEST SWAP2 POP PUSH2 0x2D66 DUP3 PUSH2 0x2D25 JUMP JUMPDEST PUSH1 0x20 DUP3 ADD SWAP1 POP SWAP2 SWAP1 POP JUMP JUMPDEST PUSH1 0x0 PUSH1 0x20 DUP3 ADD SWAP1 POP DUP2 DUP2 SUB PUSH1 0x0 DUP4 ADD MSTORE PUSH2 0x2D8A DUP2 PUSH2 0x2D4E JUMP JUMPDEST SWAP1 POP SWAP2 SWAP1 POP JUMP JUMPDEST PUSH1 0x0 PUSH1 0x80 DUP3 ADD SWAP1 POP PUSH2 0x2DA6 PUSH1 0x0 DUP4 ADD DUP8 PUSH2 0x233C JUMP JUMPDEST PUSH2 0x2DB3 PUSH1 0x20 DUP4 ADD DUP7 PUSH2 0x2260 JUMP JUMPDEST PUSH2 0x2DC0 PUSH1 0x40 DUP4 ADD DUP6 PUSH2 0x2260 JUMP JUMPDEST PUSH2 0x2DCD PUSH1 0x60 DUP4 ADD DUP5 PUSH2 0x2260 JUMP JUMPDEST SWAP6 SWAP5 POP POP POP POP POP JUMP JUMPDEST PUSH1 0x0 PUSH2 0x2DE1 DUP3 PUSH2 0x2256 JUMP JUMPDEST SWAP2 POP PUSH2 0x2DEC DUP4 PUSH2 0x2256 JUMP JUMPDEST SWAP3 POP DUP3 DUP3 ADD SWAP1 POP DUP1 DUP3 GT ISZERO PUSH2 0x2E04 JUMPI PUSH2 0x2E03 PUSH2 0x2B35 JUMP JUMPDEST JUMPDEST SWAP3 SWAP2 POP POP JUMP JUMPDEST PUSH32 0x4E487B7100000000000000000000000000000000000000000000000000000000 PUSH1 0x0 MSTORE PUSH1 0x22 PUSH1 0x4 MSTORE PUSH1 0x24 PUSH1 0x0 REVERT JUMPDEST PUSH1 0x0 PUSH1 0x2 DUP3 DIV SWAP1 POP PUSH1 0x1 DUP3 AND DUP1 PUSH2 0x2E51 JUMPI PUSH1 0x7F DUP3 AND SWAP2 POP JUMPDEST PUSH1 0x20 DUP3 LT DUP2 SUB PUSH2 0x2E64 JUMPI PUSH2 0x2E63 PUSH2 0x2E0A JUMP JUMPDEST JUMPDEST POP SWAP2 SWAP1 POP JUMP JUMPDEST PUSH1 0x0 DUP2 SWAP1 POP DUP2 PUSH1 0x0 MSTORE PUSH1 0x20 PUSH1 0x0 KECCAK256 SWAP1 POP SWAP2 SWAP1 POP JUMP JUMPDEST PUSH1 0x0 DUP2 SLOAD PUSH2 0x2E8C DUP2 PUSH2 0x2E39 JUMP JUMPDEST PUSH2 0x2E96 DUP2 DUP7 PUSH2 0x2AA4 JUMP JUMPDEST SWAP5 POP PUSH1 0x1 DUP3 AND PUSH1 0x0 DUP2 EQ PUSH2 0x2EB1 JUMPI PUSH1 0x1 DUP2 EQ PUSH2 0x2EC6 JUMPI PUSH2 0x2EF9 JUMP JUMPDEST PUSH1 0xFF NOT DUP4 AND DUP7 MSTORE DUP2 ISZERO ISZERO DUP3 MUL DUP7 ADD SWAP4 POP PUSH2 0x2EF9 JUMP JUMPDEST PUSH2 0x2ECF DUP6 PUSH2 0x2E6A JUMP JUMPDEST PUSH1 0x0 JUMPDEST DUP4 DUP2 LT ISZERO PUSH2 0x2EF1 JUMPI DUP2 SLOAD DUP2 DUP10 ADD MSTORE PUSH1 0x1 DUP3 ADD SWAP2 POP PUSH1 0x20 DUP2 ADD SWAP1 POP PUSH2 0x2ED2 JUMP JUMPDEST DUP4 DUP9 ADD SWAP6 POP POP POP JUMPDEST POP POP POP SWAP3 SWAP2 POP POP JUMP JUMPDEST PUSH1 0x0 PUSH2 0x2F0E DUP3 DUP5 PUSH2 0x2E7F JUMP JUMPDEST SWAP2 POP DUP2 SWAP1 POP SWAP3 SWAP2 POP POP JUMP JUMPDEST PUSH32 0x436F6D6D697452657665616C4475726174696F6E4C6573735468616E436F6D6D PUSH1 0x0 DUP3 ADD MSTORE PUSH32 0x69744475726174696F6E00000000000000000000000000000000000000000000 PUSH1 0x20 DUP3 ADD MSTORE POP JUMP JUMPDEST PUSH1 0x0 PUSH2 0x2F75 PUSH1 0x2A DUP4 PUSH2 0x28DA JUMP JUMPDEST SWAP2 POP PUSH2 0x2F80 DUP3 PUSH2 0x2F19 JUMP JUMPDEST PUSH1 0x40 DUP3 ADD SWAP1 POP SWAP2 SWAP1 POP JUMP JUMPDEST PUSH1 0x0 PUSH1 0x20 DUP3 ADD SWAP1 POP DUP2 DUP2 SUB PUSH1 0x0 DUP4 ADD MSTORE PUSH2 0x2FA4 DUP2 PUSH2 0x2F68 JUMP JUMPDEST SWAP1 POP SWAP2 SWAP1 POP JUMP JUMPDEST PUSH32 0x53746167654E6F7446696E697368656400000000000000000000000000000000 PUSH1 0x0 DUP3 ADD MSTORE POP JUMP JUMPDEST PUSH1 0x0 PUSH2 0x2FE1 PUSH1 0x10 DUP4 PUSH2 0x28DA JUMP JUMPDEST SWAP2 POP PUSH2 0x2FEC DUP3 PUSH2 0x2FAB JUMP JUMPDEST PUSH1 0x20 DUP3 ADD SWAP1 POP SWAP2 SWAP1 POP JUMP JUMPDEST PUSH1 0x0 PUSH1 0x20 DUP3 ADD SWAP1 POP DUP2 DUP2 SUB PUSH1 0x0 DUP4 ADD MSTORE PUSH2 0x3010 DUP2 PUSH2 0x2FD4 JUMP JUMPDEST SWAP1 POP SWAP2 SWAP1 POP JUMP JUMPDEST PUSH1 0x0 PUSH1 0x20 PUSH1 0x1F DUP4 ADD DIV SWAP1 POP SWAP2 SWAP1 POP JUMP JUMPDEST PUSH1 0x0 DUP3 DUP3 SHL SWAP1 POP SWAP3 SWAP2 POP POP JUMP JUMPDEST PUSH1 0x0 PUSH1 0x8 DUP4 MUL PUSH2 0x3064 PUSH32 0xFFFFFFFFFFFFFFFFFFFFFFFFFFFFFFFFFFFFFFFFFFFFFFFFFFFFFFFFFFFFFFFF DUP3 PUSH2 0x3027 JUMP JUMPDEST PUSH2 0x306E DUP7 DUP4 PUSH2 0x3027 JUMP JUMPDEST SWAP6 POP DUP1 NOT DUP5 AND SWAP4 POP DUP1 DUP7 AND DUP5 OR SWAP3 POP POP POP SWAP4 SWAP3 POP POP POP JUMP JUMPDEST PUSH1 0x0 DUP2 SWAP1 POP SWAP2 SWAP1 POP JUMP JUMPDEST PUSH1 0x0 PUSH2 0x30AB PUSH2 0x30A6 PUSH2 0x30A1 DUP5 PUSH2 0x2256 JUMP JUMPDEST PUSH2 0x3086 JUMP JUMPDEST PUSH2 0x2256 JUMP JUMPDEST SWAP1 POP SWAP2 SWAP1 POP JUMP JUMPDEST PUSH1 0x0 DUP2 SWAP1 POP SWAP2 SWAP1 POP JUMP JUMPDEST PUSH2 0x30C5 DUP4 PUSH2 0x3090 JUMP JUMPDEST PUSH2 0x30D9 PUSH2 0x30D1 DUP3 PUSH2 0x30B2 JUMP JUMPDEST DUP5 DUP5 SLOAD PUSH2 0x3034 JUMP JUMPDEST DUP3 SSTORE POP POP POP POP JUMP JUMPDEST PUSH1 0x0 SWAP1 JUMP JUMPDEST PUSH2 0x30EE PUSH2 0x30E1 JUMP JUMPDEST PUSH2 0x30F9 DUP2 DUP5 DUP5 PUSH2 0x30BC JUMP JUMPDEST POP POP POP JUMP JUMPDEST JUMPDEST DUP2 DUP2 LT ISZERO PUSH2 0x311D JUMPI PUSH2 0x3112 PUSH1 0x0 DUP3 PUSH2 0x30E6 JUMP JUMPDEST PUSH1 0x1 DUP2 ADD SWAP1 POP PUSH2 0x30FF JUMP JUMPDEST POP POP JUMP JUMPDEST PUSH1 0x1F DUP3 GT ISZERO PUSH2 0x3162 JUMPI PUSH2 0x3133 DUP2 PUSH2 0x2E6A JUMP JUMPDEST PUSH2 0x313C DUP5 PUSH2 0x3017 JUMP JUMPDEST DUP2 ADD PUSH1 0x20 DUP6 LT ISZERO PUSH2 0x314B JUMPI DUP2 SWAP1 POP JUMPDEST PUSH2 0x315F PUSH2 0x3157 DUP6 PUSH2 0x3017 JUMP JUMPDEST DUP4 ADD DUP3 PUSH2 0x30FE JUMP JUMPDEST POP POP JUMPDEST POP POP POP JUMP JUMPDEST PUSH1 0x0 DUP3 DUP3 SHR SWAP1 POP SWAP3 SWAP2 POP POP JUMP JUMPDEST PUSH1 0x0 PUSH2 0x3185 PUSH1 0x0 NOT DUP5 PUSH1 0x8 MUL PUSH2 0x3167 JUMP JUMPDEST NOT DUP1 DUP4 AND SWAP2 POP POP SWAP3 SWAP2 POP POP JUMP JUMPDEST PUSH1 0x0 PUSH2 0x319E DUP4 DUP4 PUSH2 0x3174 JUMP JUMPDEST SWAP2 POP DUP3 PUSH1 0x2 MUL DUP3 OR SWAP1 POP SWAP3 SWAP2 POP POP JUMP JUMPDEST PUSH2 0x31B7 DUP3 PUSH2 0x28CF JUMP JUMPDEST PUSH8 0xFFFFFFFFFFFFFFFF DUP2 GT ISZERO PUSH2 0x31D0 JUMPI PUSH2 0x31CF PUSH2 0x2548 JUMP JUMPDEST JUMPDEST PUSH2 0x31DA DUP3 SLOAD PUSH2 0x2E39 JUMP JUMPDEST PUSH2 0x31E5 DUP3 DUP3 DUP6 PUSH2 0x3121 JUMP JUMPDEST PUSH1 0x0 PUSH1 0x20 SWAP1 POP PUSH1 0x1F DUP4 GT PUSH1 0x1 DUP2 EQ PUSH2 0x3218 JUMPI PUSH1 0x0 DUP5 ISZERO PUSH2 0x3206 JUMPI DUP3 DUP8 ADD MLOAD SWAP1 POP JUMPDEST PUSH2 0x3210 DUP6 DUP3 PUSH2 0x3192 JUMP JUMPDEST DUP7 SSTORE POP PUSH2 0x3278 JUMP JUMPDEST PUSH1 0x1F NOT DUP5 AND PUSH2 0x3226 DUP7 PUSH2 0x2E6A JUMP JUMPDEST PUSH1 0x0 JUMPDEST DUP3 DUP2 LT ISZERO PUSH2 0x324E JUMPI DUP5 DUP10 ADD MLOAD DUP3 SSTORE PUSH1 0x1 DUP3 ADD SWAP2 POP PUSH1 0x20 DUP6 ADD SWAP5 POP PUSH1 0x20 DUP2 ADD SWAP1 POP PUSH2 0x3229 JUMP JUMPDEST DUP7 DUP4 LT ISZERO PUSH2 0x326B JUMPI DUP5 DUP10 ADD MLOAD PUSH2 0x3267 PUSH1 0x1F DUP10 AND DUP3 PUSH2 0x3174 JUMP JUMPDEST DUP4 SSTORE POP JUMPDEST PUSH1 0x1 PUSH1 0x2 DUP9 MUL ADD DUP9 SSTORE POP POP POP JUMPDEST POP POP POP POP POP POP JUMP JUMPDEST PUSH1 0x0 PUSH2 0x120 DUP3 ADD SWAP1 POP PUSH2 0x3296 PUSH1 0x0 DUP4 ADD DUP13 PUSH2 0x233C JUMP JUMPDEST PUSH2 0x32A3 PUSH1 0x20 DUP4 ADD DUP12 PUSH2 0x2260 JUMP JUMPDEST PUSH2 0x32B0 PUSH1 0x40 DUP4 ADD DUP11 PUSH2 0x2260 JUMP JUMPDEST PUSH2 0x32BD PUSH1 0x60 DUP4 ADD DUP10 PUSH2 0x2260 JUMP JUMPDEST PUSH2 0x32CA PUSH1 0x80 DUP4 ADD DUP9 PUSH2 0x2260 JUMP JUMPDEST PUSH2 0x32D7 PUSH1 0xA0 DUP4 ADD DUP8 PUSH2 0x2260 JUMP JUMPDEST PUSH2 0x32E4 PUSH1 0xC0 DUP4 ADD DUP7 PUSH2 0x2260 JUMP JUMPDEST PUSH2 0x32F1 PUSH1 0xE0 DUP4 ADD DUP6 PUSH2 0x2260 JUMP JUMPDEST PUSH2 0x32FF PUSH2 0x100 DUP4 ADD DUP5 PUSH2 0x2260 JUMP JUMPDEST SWAP11 SWAP10 POP POP POP POP POP POP POP POP POP POP JUMP JUMPDEST PUSH32 0x4E6F74436F6D6D69747465645061727469636970616E74000000000000000000 PUSH1 0x0 DUP3 ADD MSTORE POP JUMP JUMPDEST PUSH1 0x0 PUSH2 0x3343 PUSH1 0x17 DUP4 PUSH2 0x28DA JUMP JUMPDEST SWAP2 POP PUSH2 0x334E DUP3 PUSH2 0x330D JUMP JUMPDEST PUSH1 0x20 DUP3 ADD SWAP1 POP SWAP2 SWAP1 POP JUMP JUMPDEST PUSH1 0x0 PUSH1 0x20 DUP3 ADD SWAP1 POP DUP2 DUP2 SUB PUSH1 0x0 DUP4 ADD MSTORE PUSH2 0x3372 DUP2 PUSH2 0x3336 JUMP JUMPDEST SWAP1 POP SWAP2 SWAP1 POP JUMP JUMPDEST PUSH32 0x416C726561647952657665616C65640000000000000000000000000000000000 PUSH1 0x0 DUP3 ADD MSTORE POP JUMP JUMPDEST PUSH1 0x0 PUSH2 0x33AF PUSH1 0xF DUP4 PUSH2 0x28DA JUMP JUMPDEST SWAP2 POP PUSH2 0x33BA DUP3 PUSH2 0x3379 JUMP JUMPDEST PUSH1 0x20 DUP3 ADD SWAP1 POP SWAP2 SWAP1 POP JUMP JUMPDEST PUSH1 0x0 PUSH1 0x20 DUP3 ADD SWAP1 POP DUP2 DUP2 SUB PUSH1 0x0 DUP4 ADD MSTORE PUSH2 0x33DE DUP2 PUSH2 0x33A2 JUMP JUMPDEST SWAP1 POP SWAP2 SWAP1 POP JUMP JUMPDEST PUSH32 0x414E6F744D61746368436F6D6D69740000000000000000000000000000000000 PUSH1 0x0 DUP3 ADD MSTORE POP JUMP JUMPDEST PUSH1 0x0 PUSH2 0x341B PUSH1 0xF DUP4 PUSH2 0x28DA JUMP JUMPDEST SWAP2 POP PUSH2 0x3426 DUP3 PUSH2 0x33E5 JUMP JUMPDEST PUSH1 0x20 DUP3 ADD SWAP1 POP SWAP2 SWAP1 POP JUMP JUMPDEST PUSH1 0x0 PUSH1 0x20 DUP3 ADD SWAP1 POP DUP2 DUP2 SUB PUSH1 0x0 DUP4 ADD MSTORE PUSH2 0x344A DUP2 PUSH2 0x340E JUMP JUMPDEST SWAP1 POP SWAP2 SWAP1 POP JUMP JUMPDEST PUSH1 0x0 PUSH2 0x345C DUP3 PUSH2 0x2256 JUMP JUMPDEST SWAP2 POP PUSH1 0x0 DUP3 SUB PUSH2 0x346F JUMPI PUSH2 0x346E PUSH2 0x2B35 JUMP JUMPDEST JUMPDEST PUSH1 0x1 DUP3 SUB SWAP1 POP SWAP2 SWAP1 POP JUMP JUMPDEST PUSH32 0x4F776E61626C653A206E6577206F776E657220697320746865207A65726F2061 PUSH1 0x0 DUP3 ADD MSTORE PUSH32 0x6464726573730000000000000000000000000000000000000000000000000000 PUSH1 0x20 DUP3 ADD MSTORE POP JUMP JUMPDEST PUSH1 0x0 PUSH2 0x34D6 PUSH1 0x26 DUP4 PUSH2 0x28DA JUMP JUMPDEST SWAP2 POP PUSH2 0x34E1 DUP3 PUSH2 0x347A JUMP JUMPDEST PUSH1 0x40 DUP3 ADD SWAP1 POP SWAP2 SWAP1 POP JUMP JUMPDEST PUSH1 0x0 PUSH1 0x20 DUP3 ADD SWAP1 POP DUP2 DUP2 SUB PUSH1 0x0 DUP4 ADD MSTORE PUSH2 0x3505 DUP2 PUSH2 0x34C9 JUMP JUMPDEST SWAP1 POP SWAP2 SWAP1 POP JUMP JUMPDEST PUSH32 0x416C7265616479436F6D6D697474656400000000000000000000000000000000 PUSH1 0x0 DUP3 ADD MSTORE POP JUMP JUMPDEST PUSH1 0x0 PUSH2 0x3542 PUSH1 0x10 DUP4 PUSH2 0x28DA JUMP JUMPDEST SWAP2 POP PUSH2 0x354D DUP3 PUSH2 0x350C JUMP JUMPDEST PUSH1 0x20 DUP3 ADD SWAP1 POP SWAP2 SWAP1 POP JUMP JUMPDEST PUSH1 0x0 PUSH1 0x20 DUP3 ADD SWAP1 POP DUP2 DUP2 SUB PUSH1 0x0 DUP4 ADD MSTORE PUSH2 0x3571 DUP2 PUSH2 0x3535 JUMP JUMPDEST SWAP1 POP SWAP2 SWAP1 POP JUMP JUMPDEST PUSH1 0x0 PUSH1 0xA0 DUP3 ADD SWAP1 POP PUSH2 0x358D PUSH1 0x0 DUP4 ADD DUP9 PUSH2 0x233C JUMP JUMPDEST PUSH2 0x359A PUSH1 0x20 DUP4 ADD DUP8 PUSH2 0x2260 JUMP JUMPDEST DUP2 DUP2 SUB PUSH1 0x40 DUP4 ADD MSTORE PUSH2 0x35AC DUP2 DUP7 PUSH2 0x2915 JUMP JUMPDEST SWAP1 POP PUSH2 0x35BB PUSH1 0x60 DUP4 ADD DUP6 PUSH2 0x2260 JUMP JUMPDEST PUSH2 0x35C8 PUSH1 0x80 DUP4 ADD DUP5 PUSH2 0x2260 JUMP JUMPDEST SWAP7 SWAP6 POP POP POP POP POP POP JUMP JUMPDEST PUSH32 0x46756E6374696F6E496E76616C69644174546869735374616765000000000000 PUSH1 0x0 DUP3 ADD MSTORE POP JUMP JUMPDEST PUSH1 0x0 PUSH2 0x3608 PUSH1 0x1A DUP4 PUSH2 0x28DA JUMP JUMPDEST SWAP2 POP PUSH2 0x3613 DUP3 PUSH2 0x35D2 JUMP JUMPDEST PUSH1 0x20 DUP3 ADD SWAP1 POP SWAP2 SWAP1 POP JUMP JUMPDEST PUSH1 0x0 PUSH1 0x20 DUP3 ADD SWAP1 POP DUP2 DUP2 SUB PUSH1 0x0 DUP4 ADD MSTORE PUSH2 0x3637 DUP2 PUSH2 0x35FB JUMP JUMPDEST SWAP1 POP SWAP2 SWAP1 POP JUMP JUMPDEST PUSH1 0x0 PUSH2 0x3649 DUP3 PUSH2 0x2256 JUMP JUMPDEST SWAP2 POP PUSH2 0x3654 DUP4 PUSH2 0x2256 JUMP JUMPDEST SWAP3 POP DUP3 PUSH2 0x3664 JUMPI PUSH2 0x3663 PUSH2 0x2A75 JUMP JUMPDEST JUMPDEST DUP3 DUP3 DIV SWAP1 POP SWAP3 SWAP2 POP POP JUMP JUMPDEST PUSH32 0x4F776E61626C653A2063616C6C6572206973206E6F7420746865206F776E6572 PUSH1 0x0 DUP3 ADD MSTORE POP JUMP JUMPDEST PUSH1 0x0 PUSH2 0x36A5 PUSH1 0x20 DUP4 PUSH2 0x28DA JUMP JUMPDEST SWAP2 POP PUSH2 0x36B0 DUP3 PUSH2 0x366F JUMP JUMPDEST PUSH1 0x20 DUP3 ADD SWAP1 POP SWAP2 SWAP1 POP JUMP JUMPDEST PUSH1 0x0 PUSH1 0x20 DUP3 ADD SWAP1 POP DUP2 DUP2 SUB PUSH1 0x0 DUP4 ADD MSTORE PUSH2 0x36D4 DUP2 PUSH2 0x3698 JUMP JUMPDEST SWAP1 POP SWAP2 SWAP1 POP JUMP JUMPDEST PUSH32 0x416C6C46696E6973686564000000000000000000000000000000000000000000 PUSH1 0x0 DUP3 ADD MSTORE POP JUMP JUMPDEST PUSH1 0x0 PUSH2 0x3711 PUSH1 0xB DUP4 PUSH2 0x28DA JUMP JUMPDEST SWAP2 POP PUSH2 0x371C DUP3 PUSH2 0x36DB JUMP JUMPDEST PUSH1 0x20 DUP3 ADD SWAP1 POP SWAP2 SWAP1 POP JUMP JUMPDEST PUSH1 0x0 PUSH1 0x20 DUP3 ADD SWAP1 POP DUP2 DUP2 SUB PUSH1 0x0 DUP4 ADD MSTORE PUSH2 0x3740 DUP2 PUSH2 0x3704 JUMP JUMPDEST SWAP1 POP SWAP2 SWAP1 POP JUMP JUMPDEST PUSH1 0x0 PUSH2 0x3752 DUP3 PUSH2 0x2256 JUMP JUMPDEST SWAP2 POP PUSH2 0x375D DUP4 PUSH2 0x2256 JUMP JUMPDEST SWAP3 POP DUP3 DUP3 MUL PUSH2 0x376B DUP2 PUSH2 0x2256 JUMP JUMPDEST SWAP2 POP DUP3 DUP3 DIV DUP5 EQ DUP4 ISZERO OR PUSH2 0x3782 JUMPI PUSH2 0x3781 PUSH2 0x2B35 JUMP JUMPDEST JUMPDEST POP SWAP3 SWAP2 POP POP JUMP JUMPDEST PUSH1 0x0 PUSH2 0x3795 DUP3 DUP5 PUSH2 0x2AAF JUMP JUMPDEST SWAP2 POP DUP2 SWAP1 POP SWAP3 SWAP2 POP POP JUMP INVALID LOG2 PUSH5 0x6970667358 0x22 SLT KECCAK256 REVERT BALANCE EXTCODEHASH SMOD 0xD7 DUP12 SELFBALANCE 0xA9 PUSH7 0x3C8F84DD0DAD20 0x1E 0xB0 0x1F DUP5 0x24 PUSH5 0x54464CF9C SWAP11 0xE RETURNDATACOPY 0xBC 0xA8 PUSH5 0x736F6C6343 STOP ADDMOD SGT STOP CALLER "},"gasEstimates":{"creation":{"codeDepositCost":"2858800","executionCost":"infinite","totalCost":"infinite"},"external":{"calculateOmega()":"infinite","checkStage()":"infinite","commit(uint256)":"infinite","commitDuration()":"2474","commitRevealDuration()":"2518","commitRevealValues(uint256,uint256)":"infinite","commitsString()":"infinite","count()":"2453","owner()":"2589","recover(uint256,(uint256,uint256,uint256,uint256,uint256)[])":"infinite","renounceOwnership()":"30465","reveal(uint256)":"infinite","round()":"2497","stage()":"2582","start(uint256,uint256,uint256,(uint256,uint256,uint256,uint256,uint256)[])":"infinite","startTime()":"2452","transferOwnership(address)":"30832","userInfosAtRound(address,uint256)":"infinite","valuesAtRound(uint256)":"infinite"},"internal":{"equalStage(enum CommitRecover.Stages)":"infinite","nextStage()":"infinite","overStage(enum CommitRecover.Stages)":"infinite"}},"methodIdentifiers":{"calculateOmega()":"12ce9906","checkStage()":"7f93c751","commit(uint256)":"f4f98ad5","commitDuration()":"6f833811","commitRevealDuration()":"73fa4f46","commitRevealValues(uint256,uint256)":"22fadc28","commitsString()":"dca669e4","count()":"06661abd","owner()":"8da5cb5b","recover(uint256,(uint256,uint256,uint256,uint256,uint256)[])":"50d30cbf","renounceOwnership()":"715018a6","reveal(uint256)":"c2ca0ac5","round()":"146ca531","stage()":"c040e6b8","start(uint256,uint256,uint256,(uint256,uint256,uint256,uint256,uint256)[])":"a58be661","startTime()":"78e97925","transferOwnership(address)":"f2fde38b","userInfosAtRound(address,uint256)":"b0e9eb3f","valuesAtRound(uint256)":"77f0ade9"}},"storageLayout":{"storage":[{"astId":7,"contract":"contracts/CommitRecover.sol:CommitRecover","label":"_owner","offset":0,"slot":"0","type":"t_address"},{"astId":180,"contract":"contracts/CommitRecover.sol:CommitRecover","label":"startTime","offset":0,"slot":"1","type":"t_uint256"},{"astId":182,"contract":"contracts/CommitRecover.sol:CommitRecover","label":"commitDuration","offset":0,"slot":"2","type":"t_uint256"},{"astId":184,"contract":"contracts/CommitRecover.sol:CommitRecover","label":"commitRevealDuration","offset":0,"slot":"3","type":"t_uint256"},{"astId":186,"contract":"contracts/CommitRecover.sol:CommitRecover","label":"count","offset":0,"slot":"4","type":"t_uint256"},{"astId":188,"contract":"contracts/CommitRecover.sol:CommitRecover","label":"round","offset":0,"slot":"5","type":"t_uint256"},{"astId":190,"contract":"contracts/CommitRecover.sol:CommitRecover","label":"commitsString","offset":0,"slot":"6","type":"t_string_storage"},{"astId":193,"contract":"contracts/CommitRecover.sol:CommitRecover","label":"stage","offset":0,"slot":"7","type":"t_enum(Stages)145"},{"astId":200,"contract":"contracts/CommitRecover.sol:CommitRecover","label":"commitRevealValues","offset":0,"slot":"8","type":"t_mapping(t_uint256,t_mapping(t_uint256,t_struct(CommitRevealValue)171_storage))"},{"astId":205,"contract":"contracts/CommitRecover.sol:CommitRecover","label":"valuesAtRound","offset":0,"slot":"9","type":"t_mapping(t_uint256,t_struct(ValueAtRound)164_storage)"},{"astId":212,"contract":"contracts/CommitRecover.sol:CommitRecover","label":"userInfosAtRound","offset":0,"slot":"10","type":"t_mapping(t_address,t_mapping(t_uint256,t_struct(UserAtRound)178_storage))"}],"types":{"t_address":{"encoding":"inplace","label":"address","numberOfBytes":"20"},"t_bool":{"encoding":"inplace","label":"bool","numberOfBytes":"1"},"t_enum(Stages)145":{"encoding":"inplace","label":"enum CommitRecover.Stages","numberOfBytes":"1"},"t_mapping(t_address,t_mapping(t_uint256,t_struct(UserAtRound)178_storage))":{"encoding":"mapping","key":"t_address","label":"mapping(address => mapping(uint256 => struct CommitRecover.UserAtRound))","numberOfBytes":"32","value":"t_mapping(t_uint256,t_struct(UserAtRound)178_storage)"},"t_mapping(t_uint256,t_mapping(t_uint256,t_struct(CommitRevealValue)171_storage))":{"encoding":"mapping","key":"t_uint256","label":"mapping(uint256 => mapping(uint256 => struct CommitRecover.CommitRevealValue))","numberOfBytes":"32","value":"t_mapping(t_uint256,t_struct(CommitRevealValue)171_storage)"},"t_mapping(t_uint256,t_struct(CommitRevealValue)171_storage)":{"encoding":"mapping","key":"t_uint256","label":"mapping(uint256 => struct CommitRecover.CommitRevealValue)","numberOfBytes":"32","value":"t_struct(CommitRevealValue)171_storage"},"t_mapping(t_uint256,t_struct(UserAtRound)178_storage)":{"encoding":"mapping","key":"t_uint256","label":"mapping(uint256 => struct CommitRecover.UserAtRound)","numberOfBytes":"32","value":"t_struct(UserAtRound)178_storage"},"t_mapping(t_uint256,t_struct(ValueAtRound)164_storage)":{"encoding":"mapping","key":"t_uint256","label":"mapping(uint256 => struct CommitRecover.ValueAtRound)","numberOfBytes":"32","value":"t_struct(ValueAtRound)164_storage"},"t_string_storage":{"encoding":"bytes","label":"string","numberOfBytes":"32"},"t_struct(CommitRevealValue)171_storage":{"encoding":"inplace","label":"struct CommitRecover.CommitRevealValue","members":[{"astId":166,"contract":"contracts/CommitRecover.sol:CommitRecover","label":"c","offset":0,"slot":"0","type":"t_uint256"},{"astId":168,"contract":"contracts/CommitRecover.sol:CommitRecover","label":"a","offset":0,"slot":"1","type":"t_uint256"},{"astId":170,"contract":"contracts/CommitRecover.sol:CommitRecover","label":"participantAddress","offset":0,"slot":"2","type":"t_address"}],"numberOfBytes":"96"},"t_struct(UserAtRound)178_storage":{"encoding":"inplace","label":"struct CommitRecover.UserAtRound","members":[{"astId":173,"contract":"contracts/CommitRecover.sol:CommitRecover","label":"index","offset":0,"slot":"0","type":"t_uint256"},{"astId":175,"contract":"contracts/CommitRecover.sol:CommitRecover","label":"committed","offset":0,"slot":"1","type":"t_bool"},{"astId":177,"contract":"contracts/CommitRecover.sol:CommitRecover","label":"revealed","offset":1,"slot":"1","type":"t_bool"}],"numberOfBytes":"64"},"t_struct(ValueAtRound)164_storage":{"encoding":"inplace","label":"struct CommitRecover.ValueAtRound","members":[{"astId":147,"contract":"contracts/CommitRecover.sol:CommitRecover","label":"omega","offset":0,"slot":"0","type":"t_uint256"},{"astId":149,"contract":"contracts/CommitRecover.sol:CommitRecover","label":"bStar","offset":0,"slot":"1","type":"t_uint256"},{"astId":151,"contract":"contracts/CommitRecover.sol:CommitRecover","label":"numOfParticipants","offset":0,"slot":"2","type":"t_uint256"},{"astId":153,"contract":"contracts/CommitRecover.sol:CommitRecover","label":"g","offset":0,"slot":"3","type":"t_uint256"},{"astId":155,"contract":"contracts/CommitRecover.sol:CommitRecover","label":"h","offset":0,"slot":"4","type":"t_uint256"},{"astId":157,"contract":"contracts/CommitRecover.sol:CommitRecover","label":"n","offset":0,"slot":"5","type":"t_uint256"},{"astId":159,"contract":"contracts/CommitRecover.sol:CommitRecover","label":"T","offset":0,"slot":"6","type":"t_uint256"},{"astId":161,"contract":"contracts/CommitRecover.sol:CommitRecover","label":"isCompleted","offset":0,"slot":"7","type":"t_bool"},{"astId":163,"contract":"contracts/CommitRecover.sol:CommitRecover","label":"isAllRevealed","offset":1,"slot":"7","type":"t_bool"}],"numberOfBytes":"256"},"t_uint256":{"encoding":"inplace","label":"uint256","numberOfBytes":"32"}}},"userdoc":{"kind":"user","methods":{"checkStage()":{"notice":"checkStage functionrevert if the current stage is not the given stagethis function is used to check if the current stage is the given stageit will update the stage to the next stage if needed"},"commit(uint256)":{"notice":"Commit functionThe participant's commit value must be less than the modulorThe participant can only commit oncecheck period, update stage if needed, revert if not currently at commit stage"},"recover(uint256,(uint256,uint256,uint256,uint256,uint256)[])":{"notice":"Recover functionThe recovered value must be less than the modulorrevert if currently at commit stagerevert if count == 0 meaning no one has committedcalculate and finalize omega"},"reveal(uint256)":{"notice":"Reveal functionh must be set before revealparticipant must have committedparticipant must not have revealedThe participant's reveal value must match the commit valueThe participant's reveal value must be less than the modulorcheck period, update stage if needed, revert if not currently at reveal stageupdate omega, countif count == 0, update valuesAtRound, stageupdate userInfosAtRound"},"start(uint256,uint256,uint256,(uint256,uint256,uint256,uint256,uint256)[])":{"notice":"Start functionThe contract must be in the Finished stageThe commit period must be less than the commit + reveal periodThe g value must be less than the modulorreset count, commitsString, isHAndBStarSet, stage, startTime, commitDuration, commitRevealDuration, n, g, omegaincrease round"}},"notice":"This contract is for generating random number    1. Commit: participants commit their value    2. Reveal: participants reveal their value    3. Finished: Calculate or recover the random number    4. go to 1","version":1}}}}