{"contracts/CommitRecover.sol":{"CommitRecover":{"abi":[{"inputs":[],"stateMutability":"nonpayable","type":"constructor"},{"anonymous":false,"inputs":[{"indexed":false,"internalType":"uint256","name":"round","type":"uint256"},{"indexed":false,"internalType":"uint256","name":"omega","type":"uint256"},{"indexed":false,"internalType":"uint256","name":"calculatedTimestamp","type":"uint256"},{"indexed":false,"internalType":"bool","name":"isCompleted","type":"bool"}],"name":"CalculatedOmega","type":"event"},{"anonymous":false,"inputs":[{"indexed":false,"internalType":"address","name":"participant","type":"address"},{"indexed":false,"internalType":"uint256","name":"commit","type":"uint256"},{"indexed":false,"internalType":"string","name":"commitsString","type":"string"},{"indexed":false,"internalType":"uint256","name":"commitCount","type":"uint256"},{"indexed":false,"internalType":"uint256","name":"commitTimestamp","type":"uint256"}],"name":"CommitC","type":"event"},{"anonymous":false,"inputs":[{"indexed":true,"internalType":"address","name":"previousOwner","type":"address"},{"indexed":true,"internalType":"address","name":"newOwner","type":"address"}],"name":"OwnershipTransferred","type":"event"},{"anonymous":false,"inputs":[{"indexed":false,"internalType":"address","name":"msgSender","type":"address"},{"indexed":false,"internalType":"uint256","name":"recov","type":"uint256"},{"indexed":false,"internalType":"uint256","name":"omegaRecov","type":"uint256"},{"indexed":false,"internalType":"uint256","name":"recoveredTimestamp","type":"uint256"}],"name":"Recovered","type":"event"},{"anonymous":false,"inputs":[{"indexed":false,"internalType":"address","name":"participant","type":"address"},{"indexed":false,"internalType":"uint256","name":"a","type":"uint256"},{"indexed":false,"internalType":"uint256","name":"revealLeftCount","type":"uint256"},{"indexed":false,"internalType":"uint256","name":"revealTimestamp","type":"uint256"}],"name":"RevealA","type":"event"},{"anonymous":false,"inputs":[{"indexed":false,"internalType":"address","name":"msgSender","type":"address"},{"indexed":false,"internalType":"uint256","name":"startTime","type":"uint256"},{"indexed":false,"internalType":"uint256","name":"commitDuration","type":"uint256"},{"indexed":false,"internalType":"uint256","name":"commitRevealDuration","type":"uint256"},{"indexed":false,"internalType":"uint256","name":"n","type":"uint256"},{"indexed":false,"internalType":"uint256","name":"g","type":"uint256"},{"indexed":false,"internalType":"uint256","name":"h","type":"uint256"},{"indexed":false,"internalType":"uint256","name":"T","type":"uint256"},{"indexed":false,"internalType":"uint256","name":"round","type":"uint256"}],"name":"Start","type":"event"},{"inputs":[],"name":"calculateOmega","outputs":[{"internalType":"uint256","name":"","type":"uint256"}],"stateMutability":"nonpayable","type":"function"},{"inputs":[],"name":"checkStage","outputs":[],"stateMutability":"nonpayable","type":"function"},{"inputs":[{"internalType":"uint256","name":"_commit","type":"uint256"},{"internalType":"address","name":"_userAddress","type":"address"}],"name":"commit","outputs":[],"stateMutability":"nonpayable","type":"function"},{"inputs":[],"name":"commitDuration","outputs":[{"internalType":"uint256","name":"","type":"uint256"}],"stateMutability":"view","type":"function"},{"inputs":[],"name":"commitRevealDuration","outputs":[{"internalType":"uint256","name":"","type":"uint256"}],"stateMutability":"view","type":"function"},{"inputs":[{"internalType":"uint256","name":"round","type":"uint256"},{"internalType":"uint256","name":"index","type":"uint256"}],"name":"commitRevealValues","outputs":[{"internalType":"uint256","name":"c","type":"uint256"},{"internalType":"uint256","name":"a","type":"uint256"},{"internalType":"address","name":"participantAddress","type":"address"}],"stateMutability":"view","type":"function"},{"inputs":[],"name":"commitsString","outputs":[{"internalType":"string","name":"","type":"string"}],"stateMutability":"view","type":"function"},{"inputs":[],"name":"count","outputs":[{"internalType":"uint256","name":"","type":"uint256"}],"stateMutability":"view","type":"function"},{"inputs":[],"name":"owner","outputs":[{"internalType":"address","name":"","type":"address"}],"stateMutability":"view","type":"function"},{"inputs":[{"internalType":"uint256","name":"_round","type":"uint256"},{"components":[{"internalType":"uint256","name":"n","type":"uint256"},{"internalType":"uint256","name":"x","type":"uint256"},{"internalType":"uint256","name":"y","type":"uint256"},{"internalType":"uint256","name":"T","type":"uint256"},{"internalType":"uint256","name":"v","type":"uint256"}],"internalType":"struct Pietrzak_VDF.VDFClaim[]","name":"proofs","type":"tuple[]"}],"name":"recover","outputs":[],"stateMutability":"nonpayable","type":"function"},{"inputs":[],"name":"renounceOwnership","outputs":[],"stateMutability":"nonpayable","type":"function"},{"inputs":[{"internalType":"uint256","name":"_a","type":"uint256"},{"internalType":"address","name":"_userAddress","type":"address"}],"name":"reveal","outputs":[],"stateMutability":"nonpayable","type":"function"},{"inputs":[],"name":"round","outputs":[{"internalType":"uint256","name":"","type":"uint256"}],"stateMutability":"view","type":"function"},{"inputs":[],"name":"stage","outputs":[{"internalType":"enum CommitRecover.Stages","name":"","type":"uint8"}],"stateMutability":"view","type":"function"},{"inputs":[{"internalType":"uint256","name":"_commitDuration","type":"uint256"},{"internalType":"uint256","name":"_commitRevealDuration","type":"uint256"},{"internalType":"uint256","name":"_n","type":"uint256"},{"internalType":"address","name":"_userAddress","type":"address"},{"components":[{"internalType":"uint256","name":"n","type":"uint256"},{"internalType":"uint256","name":"x","type":"uint256"},{"internalType":"uint256","name":"y","type":"uint256"},{"internalType":"uint256","name":"T","type":"uint256"},{"internalType":"uint256","name":"v","type":"uint256"}],"internalType":"struct Pietrzak_VDF.VDFClaim[]","name":"_proofs","type":"tuple[]"}],"name":"start","outputs":[],"stateMutability":"nonpayable","type":"function"},{"inputs":[],"name":"startTime","outputs":[{"internalType":"uint256","name":"","type":"uint256"}],"stateMutability":"view","type":"function"},{"inputs":[{"internalType":"address","name":"newOwner","type":"address"}],"name":"transferOwnership","outputs":[],"stateMutability":"nonpayable","type":"function"},{"inputs":[{"internalType":"address","name":"owner","type":"address"},{"internalType":"uint256","name":"round","type":"uint256"}],"name":"userInfosAtRound","outputs":[{"internalType":"uint256","name":"index","type":"uint256"},{"internalType":"bool","name":"committed","type":"bool"},{"internalType":"bool","name":"revealed","type":"bool"}],"stateMutability":"view","type":"function"},{"inputs":[{"internalType":"uint256","name":"round","type":"uint256"}],"name":"valuesAtRound","outputs":[{"internalType":"uint256","name":"omega","type":"uint256"},{"internalType":"uint256","name":"bStar","type":"uint256"},{"internalType":"uint256","name":"numOfParticipants","type":"uint256"},{"internalType":"uint256","name":"g","type":"uint256"},{"internalType":"uint256","name":"h","type":"uint256"},{"internalType":"uint256","name":"n","type":"uint256"},{"internalType":"uint256","name":"T","type":"uint256"},{"internalType":"bool","name":"isCompleted","type":"bool"},{"internalType":"bool","name":"isAllRevealed","type":"bool"}],"stateMutability":"view","type":"function"}],"devdoc":{"author":"Justin g","kind":"dev","methods":{"commit(uint256,address)":{"params":{"_commit":"participant's commit value"}},"owner()":{"details":"Returns the address of the current owner."},"recover(uint256,(uint256,uint256,uint256,uint256,uint256)[])":{"params":{"proofs":"the proof of the recovered value"}},"renounceOwnership()":{"details":"Leaves the contract without owner. It will not be possible to call `onlyOwner` functions. Can only be called by the current owner. NOTE: Renouncing ownership will leave the contract without an owner, thereby disabling any functionality that is only available to the owner."},"reveal(uint256,address)":{"params":{"_a":"participant's reveal value"}},"transferOwnership(address)":{"details":"Transfers ownership of the contract to a new account (`newOwner`). Can only be called by the current owner."}},"title":"Bicorn-RX Commit-Reveal-Recover","version":1},"evm":{"bytecode":{"linkReferences":{},"object":"60806040523480156200001157600080fd5b5062000032620000266200006660201b60201c565b6200006e60201b60201c565b6002600760006101000a81548160ff021916908360028111156200005b576200005a62000132565b5b021790555062000161565b600033905090565b60008060009054906101000a900473ffffffffffffffffffffffffffffffffffffffff169050816000806101000a81548173ffffffffffffffffffffffffffffffffffffffff021916908373ffffffffffffffffffffffffffffffffffffffff1602179055508173ffffffffffffffffffffffffffffffffffffffff168173ffffffffffffffffffffffffffffffffffffffff167f8be0079c531659141344cd1fd0a4f28419497f9722a3daafe3b4186f6b6457e060405160405180910390a35050565b7f4e487b7100000000000000000000000000000000000000000000000000000000600052602160045260246000fd5b61382d80620001716000396000f3fe608060405234801561001057600080fd5b50600436106101215760003560e01c806377f0ade9116100ad578063b6ca76e011610071578063b6ca76e0146102e0578063bfb70e04146102fc578063c040e6b814610318578063dca669e414610336578063f2fde38b1461035457610121565b806377f0ade91461023057806378e97925146102685780637f93c751146102865780638da5cb5b14610290578063b0e9eb3f146102ae57610121565b806322fadc28116100f457806322fadc281461019c57806350d30cbf146101ce5780636f833811146101ea578063715018a61461020857806373fa4f461461021257610121565b806306661abd146101265780630d64b0711461014457806312ce990614610160578063146ca5311461017e575b600080fd5b61012e610370565b60405161013b9190612272565b60405180910390f35b61015e6004803603810190610159919061232b565b610376565b005b61016861072f565b6040516101759190612272565b60405180910390f35b610186610a25565b6040516101939190612272565b60405180910390f35b6101b660048036038101906101b1919061236b565b610a2b565b6040516101c5939291906123ba565b60405180910390f35b6101e860048036038101906101e39190612456565b610a82565b005b6101f2610ea1565b6040516101ff9190612272565b60405180910390f35b610210610ea7565b005b61021a610ebb565b6040516102279190612272565b60405180910390f35b61024a600480360381019061024591906124b6565b610ec1565b60405161025f999897969594939291906124fe565b60405180910390f35b610270610f29565b60405161027d9190612272565b60405180910390f35b61028e610f2f565b005b6102986110cc565b6040516102a5919061258b565b60405180910390f35b6102c860048036038101906102c391906125a6565b6110f5565b6040516102d7939291906125e6565b60405180910390f35b6102fa60048036038101906102f591906127fd565b611146565b005b6103166004803603810190610311919061232b565b611467565b005b610320611803565b60405161032d919061290b565b60405180910390f35b61033e611816565b60405161034b91906129a5565b60405180910390f35b61036e600480360381019061036991906129c7565b6118a4565b005b60045481565b816009600060055481526020019081526020016000206005015481106103d1576040517f08c379a00000000000000000000000000000000000000000000000000000000081526004016103c890612a40565b60405180910390fd5b6103d9611927565b600a60008373ffffffffffffffffffffffffffffffffffffffff1673ffffffffffffffffffffffffffffffffffffffff1681526020019081526020016000206000600554815260200190815260200160002060010160009054906101000a900460ff161561047c576040517f08c379a000000000000000000000000000000000000000000000000000000000815260040161047390612aac565b60405180910390fd5b610484610f2f565b61048e60006119a5565b600060045490506000600680546104a490612afb565b80601f01602080910402602001604051908101604052809291908181526020018280546104d090612afb565b801561051d5780601f106104f25761010080835404028352916020019161051d565b820191906000526020600020905b81548152906001019060200180831161050057829003601f168201915b505050505090508061052e86611a1d565b60405160200161053f929190612b68565b6040516020818303038152906040529050604051806060016040528083815260200160011515815260200160001515815250600a60008673ffffffffffffffffffffffffffffffffffffffff1673ffffffffffffffffffffffffffffffffffffffff168152602001908152602001600020600060055481526020019081526020016000206000820151816000015560208201518160010160006101000a81548160ff02191690831515021790555060408201518160010160016101000a81548160ff0219169083151502179055509050506040518060600160405280868152602001600081526020018573ffffffffffffffffffffffffffffffffffffffff168152506008600060055481526020019081526020016000206000848152602001908152602001600020600082015181600001556020820151816001015560408201518160020160006101000a81548173ffffffffffffffffffffffffffffffffffffffff021916908373ffffffffffffffffffffffffffffffffffffffff16021790555090505080600690816106d59190612d38565b50816106e090612e39565b9150816004819055507fbd41a700367cdf3254812a81baad606f9d6102e946f1bb28aab0a4afe25ef0c98486838542604051610720959493929190612e81565b60405180910390a15050505050565b60008060055490506009600082815260200190815260200160002060070160019054906101000a900460ff1661079a576040517f08c379a000000000000000000000000000000000000000000000000000000000815260040161079190612f27565b60405180910390fd5b6009600082815260200190815260200160002060070160009054906101000a900460ff16156107fe576040517f08c379a00000000000000000000000000000000000000000000000000000000081526004016107f590612f93565b60405180910390fd5b610806610f2f565b61081060026119a5565b6000600960008381526020019081526020016000206002015490506000600190506000600960008581526020019081526020016000206001015490506000600960006005548152602001908152602001600020600401549050600060096000600554815260200190815260200160002060050154905060006001905060005b868110156109665782806108a6576108a5612fb3565b5b61094f61092186866108de600860008f8152602001908152602001600020600088815260200190815260200160002060000154611a1d565b6108e78b611a1d565b6040516020016108f8929190612b68565b6040516020818303038152906040528051906020012060001c61091b9190612fe2565b87611aeb565b600860008c815260200190815260200160002060008581526020019081526020016000206001015486611aeb565b87099550808061095e90612e39565b91505061088f565b50846009600089815260200190815260200160002060000181905550806009600089815260200190815260200160002060070160006101000a81548160ff0219169083151502179055506002600760006101000a81548160ff021916908360028111156109d6576109d5612894565b5b02179055507f31d4d513959d79380d7f8af557ac2408b4d6c2cf59af943dd997a11100520f6687864284604051610a109493929190613013565b60405180910390a18497505050505050505090565b60055481565b6008602052816000526040600020602052806000526040600020600091509150508060000154908060010154908060020160009054906101000a900473ffffffffffffffffffffffffffffffffffffffff16905083565b81816000818110610a9657610a95613058565b5b905060a0020160400135600960006005548152602001908152602001600020600501548110610afa576040517f08c379a0000000000000000000000000000000000000000000000000000000008152600401610af190612a40565b60405180910390fd5b600060019050600060096000878152602001908152602001600020600501549050600060096000888152602001908152602001600020600101549050610b3e610f2f565b610b486000611b4e565b6009600088815260200190815260200160002060070160009054906101000a900460ff1615610bac576040517f08c379a0000000000000000000000000000000000000000000000000000000008152600401610ba390612f93565b60405180910390fd5b85856000818110610bc057610bbf613058565b5b905060a0020160600135600960008981526020019081526020016000206006015414610c21576040517f08c379a0000000000000000000000000000000000000000000000000000000008152600401610c18906130d3565b60405180910390fd5b610c808686808060200260200160405190810160405280939291908181526020016000905b82821015610c7657848483905060a00201803603810190610c6791906130f3565b81526020019060010190610c46565b5050505050611bc6565b5060005b6009600089815260200190815260200160002060020154811015610d4c576000600860008a815260200190815260200160002060008381526020019081526020016000206000015490506000610d218286610cde85611a1d565b610ce788611a1d565b604051602001610cf8929190612b68565b6040516020818303038152906040528051906020012060001c610d1b9190612fe2565b87611aeb565b90508480610d3257610d31612fb3565b5b818709955050508080610d4490612e39565b915050610c84565b5085856000818110610d6157610d60613058565b5b905060a00201602001358314610dac576040517f08c379a0000000000000000000000000000000000000000000000000000000008152600401610da39061316c565b60405180910390fd5b60016009600089815260200190815260200160002060070160006101000a81548160ff02191690831515021790555085856000818110610def57610dee613058565b5b905060a002016040013560096000898152602001908152602001600020600001819055506002600760006101000a81548160ff02191690836002811115610e3957610e38612894565b5b02179055507f03fc2d4f2e2e4e84069307a4d3a9b7ad25d93e2026627031a87b54a1c61907ce338488886000818110610e7557610e74613058565b5b905060a002016040013542604051610e90949392919061318c565b60405180910390a150505050505050565b60025481565b610eaf611927565b610eb96000611d0c565b565b60035481565b60096020528060005260406000206000915090508060000154908060010154908060020154908060030154908060040154908060050154908060060154908060070160009054906101000a900460ff16908060070160019054906101000a900460ff16905089565b60015481565b6000600154905060006002811115610f4a57610f49612894565b5b600760009054906101000a900460ff166002811115610f6c57610f6b612894565b5b148015610f86575060025481610f8291906131d1565b4210155b1561105e5760006004541461103157610f9d611dd0565b600454600960006005548152602001908152602001600020600201819055506000600960006005548152602001908152602001600020600501546006604051602001610fe99190613288565b6040516020818303038152906040528051906020012060001c61100c9190612fe2565b905080600960006005548152602001908152602001600020600101819055505061105d565b6002600760006101000a81548160ff0219169083600281111561105757611056612894565b5b02179055505b5b6001600281111561107257611071612894565b5b600760009054906101000a900460ff16600281111561109457611093612894565b5b1480156110bb5750600354816110aa91906131d1565b421015806110ba57506000600454145b5b156110c9576110c8611dd0565b5b50565b60008060009054906101000a900473ffffffffffffffffffffffffffffffffffffffff16905090565b600a602052816000526040600020602052806000526040600020600091509150508060000154908060010160009054906101000a900460ff16908060010160019054906101000a900460ff16905083565b828160008151811061115b5761115a613058565b5b602002602001015160200151106111a7576040517f08c379a000000000000000000000000000000000000000000000000000000000815260040161119e90612a40565b60405180910390fd5b8385106111e9576040517f08c379a00000000000000000000000000000000000000000000000000000000081526004016111e090613311565b60405180910390fd5b6002808111156111fc576111fb612894565b5b600760009054906101000a900460ff16600281111561121e5761121d612894565b5b1461125e576040517f08c379a00000000000000000000000000000000000000000000000000000000081526004016112559061337d565b60405180910390fd5b61126781611bc6565b5060016005600082825461127b91906131d1565b925050819055506000600760006101000a81548160ff021916908360028111156112a8576112a7612894565b5b0217905550426001819055508460028190555083600381905550806000815181106112d6576112d5613058565b5b602002602001015160600151600960006005548152602001908152602001600020600601819055508060008151811061131257611311613058565b5b602002602001015160200151600960006005548152602001908152602001600020600301819055508060008151811061134e5761134d613058565b5b602002602001015160400151600960006005548152602001908152602001600020600401819055508260096000600554815260200190815260200160002060050181905550600060048190555060405180602001604052806000815250600690816113b99190612d38565b507f1a5e4fa05b9601af979a44c50ef7e103b9b51cd105eb42040b5817eb3e58449c8242878787866000815181106113f4576113f3613058565b5b6020026020010151602001518760008151811061141457611413613058565b5b6020026020010151604001518860008151811061143457611433613058565b5b6020026020010151606001516005546040516114589998979695949392919061339d565b60405180910390a15050505050565b816009600060055481526020019081526020016000206005015481106114c2576040517f08c379a00000000000000000000000000000000000000000000000000000000081526004016114b990612a40565b60405180910390fd5b600060055490506000600a60008573ffffffffffffffffffffffffffffffffffffffff1673ffffffffffffffffffffffffffffffffffffffff1681526020019081526020016000206000838152602001908152602001600020604051806060016040529081600082015481526020016001820160009054906101000a900460ff161515151581526020016001820160019054906101000a900460ff161515151581525050905080602001516115ac576040517f08c379a00000000000000000000000000000000000000000000000000000000081526004016115a390613476565b60405180910390fd5b8060400151156115f1576040517f08c379a00000000000000000000000000000000000000000000000000000000081526004016115e8906134e2565b60405180910390fd5b60086000838152602001908152602001600020600082600001518152602001908152602001600020600001546116546009600085815260200190815260200160002060030154876009600087815260200190815260200160002060050154611aeb565b14611694576040517f08c379a000000000000000000000000000000000000000000000000000000000815260040161168b9061354e565b60405180910390fd5b61169c610f2f565b6116a660016119a5565b60006004600081546116b79061356e565b919050819055905085600860008581526020019081526020016000206000846000015181526020019081526020016000206001018190555060008103611752576002600760006101000a81548160ff0219169083600281111561171d5761171c612894565b5b021790555060016009600085815260200190815260200160002060070160016101000a81548160ff0219169083151502179055505b6001600a60008773ffffffffffffffffffffffffffffffffffffffff1673ffffffffffffffffffffffffffffffffffffffff168152602001908152602001600020600085815260200190815260200160002060010160016101000a81548160ff0219169083151502179055507f0167147e5476fb37532a0aab79dea3eb6b8fe0fbd723ac6025b0de29237b0496858783426040516117f3949392919061318c565b60405180910390a1505050505050565b600760009054906101000a900460ff1681565b6006805461182390612afb565b80601f016020809104026020016040519081016040528092919081815260200182805461184f90612afb565b801561189c5780601f106118715761010080835404028352916020019161189c565b820191906000526020600020905b81548152906001019060200180831161187f57829003601f168201915b505050505081565b6118ac611927565b600073ffffffffffffffffffffffffffffffffffffffff168173ffffffffffffffffffffffffffffffffffffffff160361191b576040517f08c379a000000000000000000000000000000000000000000000000000000000815260040161191290613609565b60405180910390fd5b61192481611d0c565b50565b61192f611eb7565b73ffffffffffffffffffffffffffffffffffffffff1661194d6110cc565b73ffffffffffffffffffffffffffffffffffffffff16146119a3576040517f08c379a000000000000000000000000000000000000000000000000000000000815260040161199a90613675565b60405180910390fd5b565b8060028111156119b8576119b7612894565b5b600760009054906101000a900460ff1660028111156119da576119d9612894565b5b14611a1a576040517f08c379a0000000000000000000000000000000000000000000000000000000008152600401611a11906136e1565b60405180910390fd5b50565b606060006001611a2c84611ebf565b01905060008167ffffffffffffffff811115611a4b57611a4a61262e565b5b6040519080825280601f01601f191660200182016040528015611a7d5781602001600182028036833780820191505090505b509050600082602001820190505b600115611ae0578080600190039150507f3031323334353637383961626364656600000000000000000000000000000000600a86061a8153600a8581611ad457611ad3612fb3565b5b04945060008503611a8b575b819350505050919050565b600080600190505b6000841115611b4357600180851603611b1b578280611b1557611b14612fb3565b5b85820990505b8280611b2a57611b29612fb3565b5b8586099450600284611b3c9190613701565b9350611af3565b809150509392505050565b806002811115611b6157611b60612894565b5b600760009054906101000a900460ff166002811115611b8357611b82612894565b5b11611bc3576040517f08c379a0000000000000000000000000000000000000000000000000000000008152600401611bba906136e1565b60405180910390fd5b50565b6000808251905060005b81811015611d00576000611bfd858381518110611bf057611bef613058565b5b6020026020010151612012565b90508060000151611c145760009350505050611d07565b8060200151611c295760019350505050611d07565b84600183611c3791906131d1565b81518110611c4857611c47613058565b5b602002602001015160200151816040015114611c6a5760009350505050611d07565b84600183611c7891906131d1565b81518110611c8957611c88613058565b5b602002602001015160400151816060015114611cab5760009350505050611d07565b84600183611cb991906131d1565b81518110611cca57611cc9613058565b5b602002602001015160600151816080015114611cec5760009350505050611d07565b508080611cf890612e39565b915050611bd0565b5060019150505b919050565b60008060009054906101000a900473ffffffffffffffffffffffffffffffffffffffff169050816000806101000a81548173ffffffffffffffffffffffffffffffffffffffff021916908373ffffffffffffffffffffffffffffffffffffffff1602179055508173ffffffffffffffffffffffffffffffffffffffff168173ffffffffffffffffffffffffffffffffffffffff167f8be0079c531659141344cd1fd0a4f28419497f9722a3daafe3b4186f6b6457e060405160405180910390a35050565b600280811115611de357611de2612894565b5b600760009054906101000a900460ff166002811115611e0557611e04612894565b5b03611e45576040517f08c379a0000000000000000000000000000000000000000000000000000000008152600401611e3c9061377e565b60405180910390fd5b600380611e5557611e54612fb3565b5b6001600760009054906101000a900460ff166002811115611e7957611e78612894565b5b086002811115611e8c57611e8b612894565b5b600760006101000a81548160ff02191690836002811115611eb057611eaf612894565b5b0217905550565b600033905090565b600080600090507a184f03e93ff9f4daa797ed6e38ed64bf6a1f0100000000000000008310611f1d577a184f03e93ff9f4daa797ed6e38ed64bf6a1f0100000000000000008381611f1357611f12612fb3565b5b0492506040810190505b6d04ee2d6d415b85acef81000000008310611f5a576d04ee2d6d415b85acef81000000008381611f5057611f4f612fb3565b5b0492506020810190505b662386f26fc100008310611f8957662386f26fc100008381611f7f57611f7e612fb3565b5b0492506010810190505b6305f5e1008310611fb2576305f5e1008381611fa857611fa7612fb3565b5b0492506008810190505b6127108310611fd7576127108381611fcd57611fcc612fb3565b5b0492506004810190505b60648310611ffa5760648381611ff057611fef612fb3565b5b0492506002810190505b600a8310612009576001810190505b80915050919050565b61201a612226565b60018260600151036120b25761203a826020015160028460000151611aeb565b82604001510361207b576040518060a001604052806001151581526020016000151581526020016000815260200160008152602001600081525090506121e2565b6040518060a001604052806000151581526020016000151581526020016000815260200160008152602001600081525090506121e2565b60008083604001519050600061210585602001516120d38760400151611a1d565b6120e08860800151611a1d565b6040516020016120f1929190612b68565b6040516020818303038152906040526121e7565b9050600060018660600151160361212e57600285606001516121279190613701565b925061216b565b60026001866060015161214191906131d1565b61214b9190613701565b92508460000151828361215e919061379e565b6121689190612fe2565b91505b6040518060a001604052806001151581526020016001151581526020016121ad61219e8860200151858a60000151611aeb565b88608001518960000151611aeb565b81526020016121d36121c88860800151858a60000151611aeb565b858960000151611aeb565b81526020018481525093505050505b919050565b600082826040516020016121fb91906137e0565b6040516020818303038152906040528051906020012060001c61221e9190612fe2565b905092915050565b6040518060a001604052806000151581526020016000151581526020016000815260200160008152602001600081525090565b6000819050919050565b61226c81612259565b82525050565b60006020820190506122876000830184612263565b92915050565b6000604051905090565b600080fd5b600080fd5b6122aa81612259565b81146122b557600080fd5b50565b6000813590506122c7816122a1565b92915050565b600073ffffffffffffffffffffffffffffffffffffffff82169050919050565b60006122f8826122cd565b9050919050565b612308816122ed565b811461231357600080fd5b50565b600081359050612325816122ff565b92915050565b6000806040838503121561234257612341612297565b5b6000612350858286016122b8565b925050602061236185828601612316565b9150509250929050565b6000806040838503121561238257612381612297565b5b6000612390858286016122b8565b92505060206123a1858286016122b8565b9150509250929050565b6123b4816122ed565b82525050565b60006060820190506123cf6000830186612263565b6123dc6020830185612263565b6123e960408301846123ab565b949350505050565b600080fd5b600080fd5b600080fd5b60008083601f840112612416576124156123f1565b5b8235905067ffffffffffffffff811115612433576124326123f6565b5b6020830191508360a082028301111561244f5761244e6123fb565b5b9250929050565b60008060006040848603121561246f5761246e612297565b5b600061247d868287016122b8565b935050602084013567ffffffffffffffff81111561249e5761249d61229c565b5b6124aa86828701612400565b92509250509250925092565b6000602082840312156124cc576124cb612297565b5b60006124da848285016122b8565b91505092915050565b60008115159050919050565b6124f8816124e3565b82525050565b600061012082019050612514600083018c612263565b612521602083018b612263565b61252e604083018a612263565b61253b6060830189612263565b6125486080830188612263565b61255560a0830187612263565b61256260c0830186612263565b61256f60e08301856124ef565b61257d6101008301846124ef565b9a9950505050505050505050565b60006020820190506125a060008301846123ab565b92915050565b600080604083850312156125bd576125bc612297565b5b60006125cb85828601612316565b92505060206125dc858286016122b8565b9150509250929050565b60006060820190506125fb6000830186612263565b61260860208301856124ef565b61261560408301846124ef565b949350505050565b6000601f19601f8301169050919050565b7f4e487b7100000000000000000000000000000000000000000000000000000000600052604160045260246000fd5b6126668261261d565b810181811067ffffffffffffffff821117156126855761268461262e565b5b80604052505050565b600061269861228d565b90506126a4828261265d565b919050565b600067ffffffffffffffff8211156126c4576126c361262e565b5b602082029050602081019050919050565b600080fd5b600060a082840312156126f0576126ef6126d5565b5b6126fa60a061268e565b9050600061270a848285016122b8565b600083015250602061271e848285016122b8565b6020830152506040612732848285016122b8565b6040830152506060612746848285016122b8565b606083015250608061275a848285016122b8565b60808301525092915050565b6000612779612774846126a9565b61268e565b90508083825260208201905060a0840283018581111561279c5761279b6123fb565b5b835b818110156127c557806127b188826126da565b84526020840193505060a08101905061279e565b5050509392505050565b600082601f8301126127e4576127e36123f1565b5b81356127f4848260208601612766565b91505092915050565b600080600080600060a0868803121561281957612818612297565b5b6000612827888289016122b8565b9550506020612838888289016122b8565b9450506040612849888289016122b8565b935050606061285a88828901612316565b925050608086013567ffffffffffffffff81111561287b5761287a61229c565b5b612887888289016127cf565b9150509295509295909350565b7f4e487b7100000000000000000000000000000000000000000000000000000000600052602160045260246000fd5b600381106128d4576128d3612894565b5b50565b60008190506128e5826128c3565b919050565b60006128f5826128d7565b9050919050565b612905816128ea565b82525050565b600060208201905061292060008301846128fc565b92915050565b600081519050919050565b600082825260208201905092915050565b60005b83811015612960578082015181840152602081019050612945565b60008484015250505050565b600061297782612926565b6129818185612931565b9350612991818560208601612942565b61299a8161261d565b840191505092915050565b600060208201905081810360008301526129bf818461296c565b905092915050565b6000602082840312156129dd576129dc612297565b5b60006129eb84828501612316565b91505092915050565b7f477265617465724f72457175616c5468616e4e00000000000000000000000000600082015250565b6000612a2a601383612931565b9150612a35826129f4565b602082019050919050565b60006020820190508181036000830152612a5981612a1d565b9050919050565b7f416c7265616479436f6d6d697474656400000000000000000000000000000000600082015250565b6000612a96601083612931565b9150612aa182612a60565b602082019050919050565b60006020820190508181036000830152612ac581612a89565b9050919050565b7f4e487b7100000000000000000000000000000000000000000000000000000000600052602260045260246000fd5b60006002820490506001821680612b1357607f821691505b602082108103612b2657612b25612acc565b5b50919050565b600081905092915050565b6000612b4282612926565b612b4c8185612b2c565b9350612b5c818560208601612942565b80840191505092915050565b6000612b748285612b37565b9150612b808284612b37565b91508190509392505050565b60008190508160005260206000209050919050565b60006020601f8301049050919050565b600082821b905092915050565b600060088302612bee7fffffffffffffffffffffffffffffffffffffffffffffffffffffffffffffffff82612bb1565b612bf88683612bb1565b95508019841693508086168417925050509392505050565b6000819050919050565b6000612c35612c30612c2b84612259565b612c10565b612259565b9050919050565b6000819050919050565b612c4f83612c1a565b612c63612c5b82612c3c565b848454612bbe565b825550505050565b600090565b612c78612c6b565b612c83818484612c46565b505050565b5b81811015612ca757612c9c600082612c70565b600181019050612c89565b5050565b601f821115612cec57612cbd81612b8c565b612cc684612ba1565b81016020851015612cd5578190505b612ce9612ce185612ba1565b830182612c88565b50505b505050565b600082821c905092915050565b6000612d0f60001984600802612cf1565b1980831691505092915050565b6000612d288383612cfe565b9150826002028217905092915050565b612d4182612926565b67ffffffffffffffff811115612d5a57612d5961262e565b5b612d648254612afb565b612d6f828285612cab565b600060209050601f831160018114612da25760008415612d90578287015190505b612d9a8582612d1c565b865550612e02565b601f198416612db086612b8c565b60005b82811015612dd857848901518255600182019150602085019450602081019050612db3565b86831015612df55784890151612df1601f891682612cfe565b8355505b6001600288020188555050505b505050505050565b7f4e487b7100000000000000000000000000000000000000000000000000000000600052601160045260246000fd5b6000612e4482612259565b91507fffffffffffffffffffffffffffffffffffffffffffffffffffffffffffffffff8203612e7657612e75612e0a565b5b600182019050919050565b600060a082019050612e9660008301886123ab565b612ea36020830187612263565b8181036040830152612eb5818661296c565b9050612ec46060830185612263565b612ed16080830184612263565b9695505050505050565b7f4e6f74416c6c52657665616c6564000000000000000000000000000000000000600082015250565b6000612f11600e83612931565b9150612f1c82612edb565b602082019050919050565b60006020820190508181036000830152612f4081612f04565b9050919050565b7f4f6d656761416c7265616479436f6d706c657465640000000000000000000000600082015250565b6000612f7d601583612931565b9150612f8882612f47565b602082019050919050565b60006020820190508181036000830152612fac81612f70565b9050919050565b7f4e487b7100000000000000000000000000000000000000000000000000000000600052601260045260246000fd5b6000612fed82612259565b9150612ff883612259565b92508261300857613007612fb3565b5b828206905092915050565b60006080820190506130286000830187612263565b6130356020830186612263565b6130426040830185612263565b61304f60608301846124ef565b95945050505050565b7f4e487b7100000000000000000000000000000000000000000000000000000000600052603260045260246000fd5b7f544e6f744d617463686564000000000000000000000000000000000000000000600082015250565b60006130bd600b83612931565b91506130c882613087565b602082019050919050565b600060208201905081810360008301526130ec816130b0565b9050919050565b600060a0828403121561310957613108612297565b5b6000613117848285016126da565b91505092915050565b7f5265636f764e6f744d6174636858000000000000000000000000000000000000600082015250565b6000613156600e83612931565b915061316182613120565b602082019050919050565b6000602082019050818103600083015261318581613149565b9050919050565b60006080820190506131a160008301876123ab565b6131ae6020830186612263565b6131bb6040830185612263565b6131c86060830184612263565b95945050505050565b60006131dc82612259565b91506131e783612259565b92508282019050808211156131ff576131fe612e0a565b5b92915050565b6000815461321281612afb565b61321c8186612b2c565b94506001821660008114613237576001811461324c5761327f565b60ff198316865281151582028601935061327f565b61325585612b8c565b60005b8381101561327757815481890152600182019150602081019050613258565b838801955050505b50505092915050565b60006132948284613205565b915081905092915050565b7f436f6d6d697452657665616c4475726174696f6e4c6573735468616e436f6d6d60008201527f69744475726174696f6e00000000000000000000000000000000000000000000602082015250565b60006132fb602a83612931565b91506133068261329f565b604082019050919050565b6000602082019050818103600083015261332a816132ee565b9050919050565b7f53746167654e6f7446696e697368656400000000000000000000000000000000600082015250565b6000613367601083612931565b915061337282613331565b602082019050919050565b600060208201905081810360008301526133968161335a565b9050919050565b6000610120820190506133b3600083018c6123ab565b6133c0602083018b612263565b6133cd604083018a612263565b6133da6060830189612263565b6133e76080830188612263565b6133f460a0830187612263565b61340160c0830186612263565b61340e60e0830185612263565b61341c610100830184612263565b9a9950505050505050505050565b7f4e6f74436f6d6d69747465645061727469636970616e74000000000000000000600082015250565b6000613460601783612931565b915061346b8261342a565b602082019050919050565b6000602082019050818103600083015261348f81613453565b9050919050565b7f416c726561647952657665616c65640000000000000000000000000000000000600082015250565b60006134cc600f83612931565b91506134d782613496565b602082019050919050565b600060208201905081810360008301526134fb816134bf565b9050919050565b7f414e6f744d61746368436f6d6d69740000000000000000000000000000000000600082015250565b6000613538600f83612931565b915061354382613502565b602082019050919050565b600060208201905081810360008301526135678161352b565b9050919050565b600061357982612259565b91506000820361358c5761358b612e0a565b5b600182039050919050565b7f4f776e61626c653a206e6577206f776e657220697320746865207a65726f206160008201527f6464726573730000000000000000000000000000000000000000000000000000602082015250565b60006135f3602683612931565b91506135fe82613597565b604082019050919050565b60006020820190508181036000830152613622816135e6565b9050919050565b7f4f776e61626c653a2063616c6c6572206973206e6f7420746865206f776e6572600082015250565b600061365f602083612931565b915061366a82613629565b602082019050919050565b6000602082019050818103600083015261368e81613652565b9050919050565b7f46756e6374696f6e496e76616c69644174546869735374616765000000000000600082015250565b60006136cb601a83612931565b91506136d682613695565b602082019050919050565b600060208201905081810360008301526136fa816136be565b9050919050565b600061370c82612259565b915061371783612259565b92508261372757613726612fb3565b5b828204905092915050565b7f416c6c46696e6973686564000000000000000000000000000000000000000000600082015250565b6000613768600b83612931565b915061377382613732565b602082019050919050565b600060208201905081810360008301526137978161375b565b9050919050565b60006137a982612259565b91506137b483612259565b92508282026137c281612259565b915082820484148315176137d9576137d8612e0a565b5b5092915050565b60006137ec8284612b37565b91508190509291505056fea2646970667358221220343233826b2e261a6ed600ced5b5c0ca8ed1f0fea33ba07e7d43434e7ab3eefb64736f6c63430008130033","opcodes":"PUSH1 0x80 PUSH1 0x40 MSTORE CALLVALUE DUP1 ISZERO PUSH3 0x11 JUMPI PUSH1 0x0 DUP1 REVERT JUMPDEST POP PUSH3 0x32 PUSH3 0x26 PUSH3 0x66 PUSH1 0x20 SHL PUSH1 0x20 SHR JUMP JUMPDEST PUSH3 0x6E PUSH1 0x20 SHL PUSH1 0x20 SHR JUMP JUMPDEST PUSH1 0x2 PUSH1 0x7 PUSH1 0x0 PUSH2 0x100 EXP DUP2 SLOAD DUP2 PUSH1 0xFF MUL NOT AND SWAP1 DUP4 PUSH1 0x2 DUP2 GT ISZERO PUSH3 0x5B JUMPI PUSH3 0x5A PUSH3 0x132 JUMP JUMPDEST JUMPDEST MUL OR SWAP1 SSTORE POP PUSH3 0x161 JUMP JUMPDEST PUSH1 0x0 CALLER SWAP1 POP SWAP1 JUMP JUMPDEST PUSH1 0x0 DUP1 PUSH1 0x0 SWAP1 SLOAD SWAP1 PUSH2 0x100 EXP SWAP1 DIV PUSH20 0xFFFFFFFFFFFFFFFFFFFFFFFFFFFFFFFFFFFFFFFF AND SWAP1 POP DUP2 PUSH1 0x0 DUP1 PUSH2 0x100 EXP DUP2 SLOAD DUP2 PUSH20 0xFFFFFFFFFFFFFFFFFFFFFFFFFFFFFFFFFFFFFFFF MUL NOT AND SWAP1 DUP4 PUSH20 0xFFFFFFFFFFFFFFFFFFFFFFFFFFFFFFFFFFFFFFFF AND MUL OR SWAP1 SSTORE POP DUP2 PUSH20 0xFFFFFFFFFFFFFFFFFFFFFFFFFFFFFFFFFFFFFFFF AND DUP2 PUSH20 0xFFFFFFFFFFFFFFFFFFFFFFFFFFFFFFFFFFFFFFFF AND PUSH32 0x8BE0079C531659141344CD1FD0A4F28419497F9722A3DAAFE3B4186F6B6457E0 PUSH1 0x40 MLOAD PUSH1 0x40 MLOAD DUP1 SWAP2 SUB SWAP1 LOG3 POP POP JUMP JUMPDEST PUSH32 0x4E487B7100000000000000000000000000000000000000000000000000000000 PUSH1 0x0 MSTORE PUSH1 0x21 PUSH1 0x4 MSTORE PUSH1 0x24 PUSH1 0x0 REVERT JUMPDEST PUSH2 0x382D DUP1 PUSH3 0x171 PUSH1 0x0 CODECOPY PUSH1 0x0 RETURN INVALID PUSH1 0x80 PUSH1 0x40 MSTORE CALLVALUE DUP1 ISZERO PUSH2 0x10 JUMPI PUSH1 0x0 DUP1 REVERT JUMPDEST POP PUSH1 0x4 CALLDATASIZE LT PUSH2 0x121 JUMPI PUSH1 0x0 CALLDATALOAD PUSH1 0xE0 SHR DUP1 PUSH4 0x77F0ADE9 GT PUSH2 0xAD JUMPI DUP1 PUSH4 0xB6CA76E0 GT PUSH2 0x71 JUMPI DUP1 PUSH4 0xB6CA76E0 EQ PUSH2 0x2E0 JUMPI DUP1 PUSH4 0xBFB70E04 EQ PUSH2 0x2FC JUMPI DUP1 PUSH4 0xC040E6B8 EQ PUSH2 0x318 JUMPI DUP1 PUSH4 0xDCA669E4 EQ PUSH2 0x336 JUMPI DUP1 PUSH4 0xF2FDE38B EQ PUSH2 0x354 JUMPI PUSH2 0x121 JUMP JUMPDEST DUP1 PUSH4 0x77F0ADE9 EQ PUSH2 0x230 JUMPI DUP1 PUSH4 0x78E97925 EQ PUSH2 0x268 JUMPI DUP1 PUSH4 0x7F93C751 EQ PUSH2 0x286 JUMPI DUP1 PUSH4 0x8DA5CB5B EQ PUSH2 0x290 JUMPI DUP1 PUSH4 0xB0E9EB3F EQ PUSH2 0x2AE JUMPI PUSH2 0x121 JUMP JUMPDEST DUP1 PUSH4 0x22FADC28 GT PUSH2 0xF4 JUMPI DUP1 PUSH4 0x22FADC28 EQ PUSH2 0x19C JUMPI DUP1 PUSH4 0x50D30CBF EQ PUSH2 0x1CE JUMPI DUP1 PUSH4 0x6F833811 EQ PUSH2 0x1EA JUMPI DUP1 PUSH4 0x715018A6 EQ PUSH2 0x208 JUMPI DUP1 PUSH4 0x73FA4F46 EQ PUSH2 0x212 JUMPI PUSH2 0x121 JUMP JUMPDEST DUP1 PUSH4 0x6661ABD EQ PUSH2 0x126 JUMPI DUP1 PUSH4 0xD64B071 EQ PUSH2 0x144 JUMPI DUP1 PUSH4 0x12CE9906 EQ PUSH2 0x160 JUMPI DUP1 PUSH4 0x146CA531 EQ PUSH2 0x17E JUMPI JUMPDEST PUSH1 0x0 DUP1 REVERT JUMPDEST PUSH2 0x12E PUSH2 0x370 JUMP JUMPDEST PUSH1 0x40 MLOAD PUSH2 0x13B SWAP2 SWAP1 PUSH2 0x2272 JUMP JUMPDEST PUSH1 0x40 MLOAD DUP1 SWAP2 SUB SWAP1 RETURN JUMPDEST PUSH2 0x15E PUSH1 0x4 DUP1 CALLDATASIZE SUB DUP2 ADD SWAP1 PUSH2 0x159 SWAP2 SWAP1 PUSH2 0x232B JUMP JUMPDEST PUSH2 0x376 JUMP JUMPDEST STOP JUMPDEST PUSH2 0x168 PUSH2 0x72F JUMP JUMPDEST PUSH1 0x40 MLOAD PUSH2 0x175 SWAP2 SWAP1 PUSH2 0x2272 JUMP JUMPDEST PUSH1 0x40 MLOAD DUP1 SWAP2 SUB SWAP1 RETURN JUMPDEST PUSH2 0x186 PUSH2 0xA25 JUMP JUMPDEST PUSH1 0x40 MLOAD PUSH2 0x193 SWAP2 SWAP1 PUSH2 0x2272 JUMP JUMPDEST PUSH1 0x40 MLOAD DUP1 SWAP2 SUB SWAP1 RETURN JUMPDEST PUSH2 0x1B6 PUSH1 0x4 DUP1 CALLDATASIZE SUB DUP2 ADD SWAP1 PUSH2 0x1B1 SWAP2 SWAP1 PUSH2 0x236B JUMP JUMPDEST PUSH2 0xA2B JUMP JUMPDEST PUSH1 0x40 MLOAD PUSH2 0x1C5 SWAP4 SWAP3 SWAP2 SWAP1 PUSH2 0x23BA JUMP JUMPDEST PUSH1 0x40 MLOAD DUP1 SWAP2 SUB SWAP1 RETURN JUMPDEST PUSH2 0x1E8 PUSH1 0x4 DUP1 CALLDATASIZE SUB DUP2 ADD SWAP1 PUSH2 0x1E3 SWAP2 SWAP1 PUSH2 0x2456 JUMP JUMPDEST PUSH2 0xA82 JUMP JUMPDEST STOP JUMPDEST PUSH2 0x1F2 PUSH2 0xEA1 JUMP JUMPDEST PUSH1 0x40 MLOAD PUSH2 0x1FF SWAP2 SWAP1 PUSH2 0x2272 JUMP JUMPDEST PUSH1 0x40 MLOAD DUP1 SWAP2 SUB SWAP1 RETURN JUMPDEST PUSH2 0x210 PUSH2 0xEA7 JUMP JUMPDEST STOP JUMPDEST PUSH2 0x21A PUSH2 0xEBB JUMP JUMPDEST PUSH1 0x40 MLOAD PUSH2 0x227 SWAP2 SWAP1 PUSH2 0x2272 JUMP JUMPDEST PUSH1 0x40 MLOAD DUP1 SWAP2 SUB SWAP1 RETURN JUMPDEST PUSH2 0x24A PUSH1 0x4 DUP1 CALLDATASIZE SUB DUP2 ADD SWAP1 PUSH2 0x245 SWAP2 SWAP1 PUSH2 0x24B6 JUMP JUMPDEST PUSH2 0xEC1 JUMP JUMPDEST PUSH1 0x40 MLOAD PUSH2 0x25F SWAP10 SWAP9 SWAP8 SWAP7 SWAP6 SWAP5 SWAP4 SWAP3 SWAP2 SWAP1 PUSH2 0x24FE JUMP JUMPDEST PUSH1 0x40 MLOAD DUP1 SWAP2 SUB SWAP1 RETURN JUMPDEST PUSH2 0x270 PUSH2 0xF29 JUMP JUMPDEST PUSH1 0x40 MLOAD PUSH2 0x27D SWAP2 SWAP1 PUSH2 0x2272 JUMP JUMPDEST PUSH1 0x40 MLOAD DUP1 SWAP2 SUB SWAP1 RETURN JUMPDEST PUSH2 0x28E PUSH2 0xF2F JUMP JUMPDEST STOP JUMPDEST PUSH2 0x298 PUSH2 0x10CC JUMP JUMPDEST PUSH1 0x40 MLOAD PUSH2 0x2A5 SWAP2 SWAP1 PUSH2 0x258B JUMP JUMPDEST PUSH1 0x40 MLOAD DUP1 SWAP2 SUB SWAP1 RETURN JUMPDEST PUSH2 0x2C8 PUSH1 0x4 DUP1 CALLDATASIZE SUB DUP2 ADD SWAP1 PUSH2 0x2C3 SWAP2 SWAP1 PUSH2 0x25A6 JUMP JUMPDEST PUSH2 0x10F5 JUMP JUMPDEST PUSH1 0x40 MLOAD PUSH2 0x2D7 SWAP4 SWAP3 SWAP2 SWAP1 PUSH2 0x25E6 JUMP JUMPDEST PUSH1 0x40 MLOAD DUP1 SWAP2 SUB SWAP1 RETURN JUMPDEST PUSH2 0x2FA PUSH1 0x4 DUP1 CALLDATASIZE SUB DUP2 ADD SWAP1 PUSH2 0x2F5 SWAP2 SWAP1 PUSH2 0x27FD JUMP JUMPDEST PUSH2 0x1146 JUMP JUMPDEST STOP JUMPDEST PUSH2 0x316 PUSH1 0x4 DUP1 CALLDATASIZE SUB DUP2 ADD SWAP1 PUSH2 0x311 SWAP2 SWAP1 PUSH2 0x232B JUMP JUMPDEST PUSH2 0x1467 JUMP JUMPDEST STOP JUMPDEST PUSH2 0x320 PUSH2 0x1803 JUMP JUMPDEST PUSH1 0x40 MLOAD PUSH2 0x32D SWAP2 SWAP1 PUSH2 0x290B JUMP JUMPDEST PUSH1 0x40 MLOAD DUP1 SWAP2 SUB SWAP1 RETURN JUMPDEST PUSH2 0x33E PUSH2 0x1816 JUMP JUMPDEST PUSH1 0x40 MLOAD PUSH2 0x34B SWAP2 SWAP1 PUSH2 0x29A5 JUMP JUMPDEST PUSH1 0x40 MLOAD DUP1 SWAP2 SUB SWAP1 RETURN JUMPDEST PUSH2 0x36E PUSH1 0x4 DUP1 CALLDATASIZE SUB DUP2 ADD SWAP1 PUSH2 0x369 SWAP2 SWAP1 PUSH2 0x29C7 JUMP JUMPDEST PUSH2 0x18A4 JUMP JUMPDEST STOP JUMPDEST PUSH1 0x4 SLOAD DUP2 JUMP JUMPDEST DUP2 PUSH1 0x9 PUSH1 0x0 PUSH1 0x5 SLOAD DUP2 MSTORE PUSH1 0x20 ADD SWAP1 DUP2 MSTORE PUSH1 0x20 ADD PUSH1 0x0 KECCAK256 PUSH1 0x5 ADD SLOAD DUP2 LT PUSH2 0x3D1 JUMPI PUSH1 0x40 MLOAD PUSH32 0x8C379A000000000000000000000000000000000000000000000000000000000 DUP2 MSTORE PUSH1 0x4 ADD PUSH2 0x3C8 SWAP1 PUSH2 0x2A40 JUMP JUMPDEST PUSH1 0x40 MLOAD DUP1 SWAP2 SUB SWAP1 REVERT JUMPDEST PUSH2 0x3D9 PUSH2 0x1927 JUMP JUMPDEST PUSH1 0xA PUSH1 0x0 DUP4 PUSH20 0xFFFFFFFFFFFFFFFFFFFFFFFFFFFFFFFFFFFFFFFF AND PUSH20 0xFFFFFFFFFFFFFFFFFFFFFFFFFFFFFFFFFFFFFFFF AND DUP2 MSTORE PUSH1 0x20 ADD SWAP1 DUP2 MSTORE PUSH1 0x20 ADD PUSH1 0x0 KECCAK256 PUSH1 0x0 PUSH1 0x5 SLOAD DUP2 MSTORE PUSH1 0x20 ADD SWAP1 DUP2 MSTORE PUSH1 0x20 ADD PUSH1 0x0 KECCAK256 PUSH1 0x1 ADD PUSH1 0x0 SWAP1 SLOAD SWAP1 PUSH2 0x100 EXP SWAP1 DIV PUSH1 0xFF AND ISZERO PUSH2 0x47C JUMPI PUSH1 0x40 MLOAD PUSH32 0x8C379A000000000000000000000000000000000000000000000000000000000 DUP2 MSTORE PUSH1 0x4 ADD PUSH2 0x473 SWAP1 PUSH2 0x2AAC JUMP JUMPDEST PUSH1 0x40 MLOAD DUP1 SWAP2 SUB SWAP1 REVERT JUMPDEST PUSH2 0x484 PUSH2 0xF2F JUMP JUMPDEST PUSH2 0x48E PUSH1 0x0 PUSH2 0x19A5 JUMP JUMPDEST PUSH1 0x0 PUSH1 0x4 SLOAD SWAP1 POP PUSH1 0x0 PUSH1 0x6 DUP1 SLOAD PUSH2 0x4A4 SWAP1 PUSH2 0x2AFB JUMP JUMPDEST DUP1 PUSH1 0x1F ADD PUSH1 0x20 DUP1 SWAP2 DIV MUL PUSH1 0x20 ADD PUSH1 0x40 MLOAD SWAP1 DUP2 ADD PUSH1 0x40 MSTORE DUP1 SWAP3 SWAP2 SWAP1 DUP2 DUP2 MSTORE PUSH1 0x20 ADD DUP3 DUP1 SLOAD PUSH2 0x4D0 SWAP1 PUSH2 0x2AFB JUMP JUMPDEST DUP1 ISZERO PUSH2 0x51D JUMPI DUP1 PUSH1 0x1F LT PUSH2 0x4F2 JUMPI PUSH2 0x100 DUP1 DUP4 SLOAD DIV MUL DUP4 MSTORE SWAP2 PUSH1 0x20 ADD SWAP2 PUSH2 0x51D JUMP JUMPDEST DUP3 ADD SWAP2 SWAP1 PUSH1 0x0 MSTORE PUSH1 0x20 PUSH1 0x0 KECCAK256 SWAP1 JUMPDEST DUP2 SLOAD DUP2 MSTORE SWAP1 PUSH1 0x1 ADD SWAP1 PUSH1 0x20 ADD DUP1 DUP4 GT PUSH2 0x500 JUMPI DUP3 SWAP1 SUB PUSH1 0x1F AND DUP3 ADD SWAP2 JUMPDEST POP POP POP POP POP SWAP1 POP DUP1 PUSH2 0x52E DUP7 PUSH2 0x1A1D JUMP JUMPDEST PUSH1 0x40 MLOAD PUSH1 0x20 ADD PUSH2 0x53F SWAP3 SWAP2 SWAP1 PUSH2 0x2B68 JUMP JUMPDEST PUSH1 0x40 MLOAD PUSH1 0x20 DUP2 DUP4 SUB SUB DUP2 MSTORE SWAP1 PUSH1 0x40 MSTORE SWAP1 POP PUSH1 0x40 MLOAD DUP1 PUSH1 0x60 ADD PUSH1 0x40 MSTORE DUP1 DUP4 DUP2 MSTORE PUSH1 0x20 ADD PUSH1 0x1 ISZERO ISZERO DUP2 MSTORE PUSH1 0x20 ADD PUSH1 0x0 ISZERO ISZERO DUP2 MSTORE POP PUSH1 0xA PUSH1 0x0 DUP7 PUSH20 0xFFFFFFFFFFFFFFFFFFFFFFFFFFFFFFFFFFFFFFFF AND PUSH20 0xFFFFFFFFFFFFFFFFFFFFFFFFFFFFFFFFFFFFFFFF AND DUP2 MSTORE PUSH1 0x20 ADD SWAP1 DUP2 MSTORE PUSH1 0x20 ADD PUSH1 0x0 KECCAK256 PUSH1 0x0 PUSH1 0x5 SLOAD DUP2 MSTORE PUSH1 0x20 ADD SWAP1 DUP2 MSTORE PUSH1 0x20 ADD PUSH1 0x0 KECCAK256 PUSH1 0x0 DUP3 ADD MLOAD DUP2 PUSH1 0x0 ADD SSTORE PUSH1 0x20 DUP3 ADD MLOAD DUP2 PUSH1 0x1 ADD PUSH1 0x0 PUSH2 0x100 EXP DUP2 SLOAD DUP2 PUSH1 0xFF MUL NOT AND SWAP1 DUP4 ISZERO ISZERO MUL OR SWAP1 SSTORE POP PUSH1 0x40 DUP3 ADD MLOAD DUP2 PUSH1 0x1 ADD PUSH1 0x1 PUSH2 0x100 EXP DUP2 SLOAD DUP2 PUSH1 0xFF MUL NOT AND SWAP1 DUP4 ISZERO ISZERO MUL OR SWAP1 SSTORE POP SWAP1 POP POP PUSH1 0x40 MLOAD DUP1 PUSH1 0x60 ADD PUSH1 0x40 MSTORE DUP1 DUP7 DUP2 MSTORE PUSH1 0x20 ADD PUSH1 0x0 DUP2 MSTORE PUSH1 0x20 ADD DUP6 PUSH20 0xFFFFFFFFFFFFFFFFFFFFFFFFFFFFFFFFFFFFFFFF AND DUP2 MSTORE POP PUSH1 0x8 PUSH1 0x0 PUSH1 0x5 SLOAD DUP2 MSTORE PUSH1 0x20 ADD SWAP1 DUP2 MSTORE PUSH1 0x20 ADD PUSH1 0x0 KECCAK256 PUSH1 0x0 DUP5 DUP2 MSTORE PUSH1 0x20 ADD SWAP1 DUP2 MSTORE PUSH1 0x20 ADD PUSH1 0x0 KECCAK256 PUSH1 0x0 DUP3 ADD MLOAD DUP2 PUSH1 0x0 ADD SSTORE PUSH1 0x20 DUP3 ADD MLOAD DUP2 PUSH1 0x1 ADD SSTORE PUSH1 0x40 DUP3 ADD MLOAD DUP2 PUSH1 0x2 ADD PUSH1 0x0 PUSH2 0x100 EXP DUP2 SLOAD DUP2 PUSH20 0xFFFFFFFFFFFFFFFFFFFFFFFFFFFFFFFFFFFFFFFF MUL NOT AND SWAP1 DUP4 PUSH20 0xFFFFFFFFFFFFFFFFFFFFFFFFFFFFFFFFFFFFFFFF AND MUL OR SWAP1 SSTORE POP SWAP1 POP POP DUP1 PUSH1 0x6 SWAP1 DUP2 PUSH2 0x6D5 SWAP2 SWAP1 PUSH2 0x2D38 JUMP JUMPDEST POP DUP2 PUSH2 0x6E0 SWAP1 PUSH2 0x2E39 JUMP JUMPDEST SWAP2 POP DUP2 PUSH1 0x4 DUP2 SWAP1 SSTORE POP PUSH32 0xBD41A700367CDF3254812A81BAAD606F9D6102E946F1BB28AAB0A4AFE25EF0C9 DUP5 DUP7 DUP4 DUP6 TIMESTAMP PUSH1 0x40 MLOAD PUSH2 0x720 SWAP6 SWAP5 SWAP4 SWAP3 SWAP2 SWAP1 PUSH2 0x2E81 JUMP JUMPDEST PUSH1 0x40 MLOAD DUP1 SWAP2 SUB SWAP1 LOG1 POP POP POP POP POP JUMP JUMPDEST PUSH1 0x0 DUP1 PUSH1 0x5 SLOAD SWAP1 POP PUSH1 0x9 PUSH1 0x0 DUP3 DUP2 MSTORE PUSH1 0x20 ADD SWAP1 DUP2 MSTORE PUSH1 0x20 ADD PUSH1 0x0 KECCAK256 PUSH1 0x7 ADD PUSH1 0x1 SWAP1 SLOAD SWAP1 PUSH2 0x100 EXP SWAP1 DIV PUSH1 0xFF AND PUSH2 0x79A JUMPI PUSH1 0x40 MLOAD PUSH32 0x8C379A000000000000000000000000000000000000000000000000000000000 DUP2 MSTORE PUSH1 0x4 ADD PUSH2 0x791 SWAP1 PUSH2 0x2F27 JUMP JUMPDEST PUSH1 0x40 MLOAD DUP1 SWAP2 SUB SWAP1 REVERT JUMPDEST PUSH1 0x9 PUSH1 0x0 DUP3 DUP2 MSTORE PUSH1 0x20 ADD SWAP1 DUP2 MSTORE PUSH1 0x20 ADD PUSH1 0x0 KECCAK256 PUSH1 0x7 ADD PUSH1 0x0 SWAP1 SLOAD SWAP1 PUSH2 0x100 EXP SWAP1 DIV PUSH1 0xFF AND ISZERO PUSH2 0x7FE JUMPI PUSH1 0x40 MLOAD PUSH32 0x8C379A000000000000000000000000000000000000000000000000000000000 DUP2 MSTORE PUSH1 0x4 ADD PUSH2 0x7F5 SWAP1 PUSH2 0x2F93 JUMP JUMPDEST PUSH1 0x40 MLOAD DUP1 SWAP2 SUB SWAP1 REVERT JUMPDEST PUSH2 0x806 PUSH2 0xF2F JUMP JUMPDEST PUSH2 0x810 PUSH1 0x2 PUSH2 0x19A5 JUMP JUMPDEST PUSH1 0x0 PUSH1 0x9 PUSH1 0x0 DUP4 DUP2 MSTORE PUSH1 0x20 ADD SWAP1 DUP2 MSTORE PUSH1 0x20 ADD PUSH1 0x0 KECCAK256 PUSH1 0x2 ADD SLOAD SWAP1 POP PUSH1 0x0 PUSH1 0x1 SWAP1 POP PUSH1 0x0 PUSH1 0x9 PUSH1 0x0 DUP6 DUP2 MSTORE PUSH1 0x20 ADD SWAP1 DUP2 MSTORE PUSH1 0x20 ADD PUSH1 0x0 KECCAK256 PUSH1 0x1 ADD SLOAD SWAP1 POP PUSH1 0x0 PUSH1 0x9 PUSH1 0x0 PUSH1 0x5 SLOAD DUP2 MSTORE PUSH1 0x20 ADD SWAP1 DUP2 MSTORE PUSH1 0x20 ADD PUSH1 0x0 KECCAK256 PUSH1 0x4 ADD SLOAD SWAP1 POP PUSH1 0x0 PUSH1 0x9 PUSH1 0x0 PUSH1 0x5 SLOAD DUP2 MSTORE PUSH1 0x20 ADD SWAP1 DUP2 MSTORE PUSH1 0x20 ADD PUSH1 0x0 KECCAK256 PUSH1 0x5 ADD SLOAD SWAP1 POP PUSH1 0x0 PUSH1 0x1 SWAP1 POP PUSH1 0x0 JUMPDEST DUP7 DUP2 LT ISZERO PUSH2 0x966 JUMPI DUP3 DUP1 PUSH2 0x8A6 JUMPI PUSH2 0x8A5 PUSH2 0x2FB3 JUMP JUMPDEST JUMPDEST PUSH2 0x94F PUSH2 0x921 DUP7 DUP7 PUSH2 0x8DE PUSH1 0x8 PUSH1 0x0 DUP16 DUP2 MSTORE PUSH1 0x20 ADD SWAP1 DUP2 MSTORE PUSH1 0x20 ADD PUSH1 0x0 KECCAK256 PUSH1 0x0 DUP9 DUP2 MSTORE PUSH1 0x20 ADD SWAP1 DUP2 MSTORE PUSH1 0x20 ADD PUSH1 0x0 KECCAK256 PUSH1 0x0 ADD SLOAD PUSH2 0x1A1D JUMP JUMPDEST PUSH2 0x8E7 DUP12 PUSH2 0x1A1D JUMP JUMPDEST PUSH1 0x40 MLOAD PUSH1 0x20 ADD PUSH2 0x8F8 SWAP3 SWAP2 SWAP1 PUSH2 0x2B68 JUMP JUMPDEST PUSH1 0x40 MLOAD PUSH1 0x20 DUP2 DUP4 SUB SUB DUP2 MSTORE SWAP1 PUSH1 0x40 MSTORE DUP1 MLOAD SWAP1 PUSH1 0x20 ADD KECCAK256 PUSH1 0x0 SHR PUSH2 0x91B SWAP2 SWAP1 PUSH2 0x2FE2 JUMP JUMPDEST DUP8 PUSH2 0x1AEB JUMP JUMPDEST PUSH1 0x8 PUSH1 0x0 DUP13 DUP2 MSTORE PUSH1 0x20 ADD SWAP1 DUP2 MSTORE PUSH1 0x20 ADD PUSH1 0x0 KECCAK256 PUSH1 0x0 DUP6 DUP2 MSTORE PUSH1 0x20 ADD SWAP1 DUP2 MSTORE PUSH1 0x20 ADD PUSH1 0x0 KECCAK256 PUSH1 0x1 ADD SLOAD DUP7 PUSH2 0x1AEB JUMP JUMPDEST DUP8 MULMOD SWAP6 POP DUP1 DUP1 PUSH2 0x95E SWAP1 PUSH2 0x2E39 JUMP JUMPDEST SWAP2 POP POP PUSH2 0x88F JUMP JUMPDEST POP DUP5 PUSH1 0x9 PUSH1 0x0 DUP10 DUP2 MSTORE PUSH1 0x20 ADD SWAP1 DUP2 MSTORE PUSH1 0x20 ADD PUSH1 0x0 KECCAK256 PUSH1 0x0 ADD DUP2 SWAP1 SSTORE POP DUP1 PUSH1 0x9 PUSH1 0x0 DUP10 DUP2 MSTORE PUSH1 0x20 ADD SWAP1 DUP2 MSTORE PUSH1 0x20 ADD PUSH1 0x0 KECCAK256 PUSH1 0x7 ADD PUSH1 0x0 PUSH2 0x100 EXP DUP2 SLOAD DUP2 PUSH1 0xFF MUL NOT AND SWAP1 DUP4 ISZERO ISZERO MUL OR SWAP1 SSTORE POP PUSH1 0x2 PUSH1 0x7 PUSH1 0x0 PUSH2 0x100 EXP DUP2 SLOAD DUP2 PUSH1 0xFF MUL NOT AND SWAP1 DUP4 PUSH1 0x2 DUP2 GT ISZERO PUSH2 0x9D6 JUMPI PUSH2 0x9D5 PUSH2 0x2894 JUMP JUMPDEST JUMPDEST MUL OR SWAP1 SSTORE POP PUSH32 0x31D4D513959D79380D7F8AF557AC2408B4D6C2CF59AF943DD997A11100520F66 DUP8 DUP7 TIMESTAMP DUP5 PUSH1 0x40 MLOAD PUSH2 0xA10 SWAP5 SWAP4 SWAP3 SWAP2 SWAP1 PUSH2 0x3013 JUMP JUMPDEST PUSH1 0x40 MLOAD DUP1 SWAP2 SUB SWAP1 LOG1 DUP5 SWAP8 POP POP POP POP POP POP POP POP SWAP1 JUMP JUMPDEST PUSH1 0x5 SLOAD DUP2 JUMP JUMPDEST PUSH1 0x8 PUSH1 0x20 MSTORE DUP2 PUSH1 0x0 MSTORE PUSH1 0x40 PUSH1 0x0 KECCAK256 PUSH1 0x20 MSTORE DUP1 PUSH1 0x0 MSTORE PUSH1 0x40 PUSH1 0x0 KECCAK256 PUSH1 0x0 SWAP2 POP SWAP2 POP POP DUP1 PUSH1 0x0 ADD SLOAD SWAP1 DUP1 PUSH1 0x1 ADD SLOAD SWAP1 DUP1 PUSH1 0x2 ADD PUSH1 0x0 SWAP1 SLOAD SWAP1 PUSH2 0x100 EXP SWAP1 DIV PUSH20 0xFFFFFFFFFFFFFFFFFFFFFFFFFFFFFFFFFFFFFFFF AND SWAP1 POP DUP4 JUMP JUMPDEST DUP2 DUP2 PUSH1 0x0 DUP2 DUP2 LT PUSH2 0xA96 JUMPI PUSH2 0xA95 PUSH2 0x3058 JUMP JUMPDEST JUMPDEST SWAP1 POP PUSH1 0xA0 MUL ADD PUSH1 0x40 ADD CALLDATALOAD PUSH1 0x9 PUSH1 0x0 PUSH1 0x5 SLOAD DUP2 MSTORE PUSH1 0x20 ADD SWAP1 DUP2 MSTORE PUSH1 0x20 ADD PUSH1 0x0 KECCAK256 PUSH1 0x5 ADD SLOAD DUP2 LT PUSH2 0xAFA JUMPI PUSH1 0x40 MLOAD PUSH32 0x8C379A000000000000000000000000000000000000000000000000000000000 DUP2 MSTORE PUSH1 0x4 ADD PUSH2 0xAF1 SWAP1 PUSH2 0x2A40 JUMP JUMPDEST PUSH1 0x40 MLOAD DUP1 SWAP2 SUB SWAP1 REVERT JUMPDEST PUSH1 0x0 PUSH1 0x1 SWAP1 POP PUSH1 0x0 PUSH1 0x9 PUSH1 0x0 DUP8 DUP2 MSTORE PUSH1 0x20 ADD SWAP1 DUP2 MSTORE PUSH1 0x20 ADD PUSH1 0x0 KECCAK256 PUSH1 0x5 ADD SLOAD SWAP1 POP PUSH1 0x0 PUSH1 0x9 PUSH1 0x0 DUP9 DUP2 MSTORE PUSH1 0x20 ADD SWAP1 DUP2 MSTORE PUSH1 0x20 ADD PUSH1 0x0 KECCAK256 PUSH1 0x1 ADD SLOAD SWAP1 POP PUSH2 0xB3E PUSH2 0xF2F JUMP JUMPDEST PUSH2 0xB48 PUSH1 0x0 PUSH2 0x1B4E JUMP JUMPDEST PUSH1 0x9 PUSH1 0x0 DUP9 DUP2 MSTORE PUSH1 0x20 ADD SWAP1 DUP2 MSTORE PUSH1 0x20 ADD PUSH1 0x0 KECCAK256 PUSH1 0x7 ADD PUSH1 0x0 SWAP1 SLOAD SWAP1 PUSH2 0x100 EXP SWAP1 DIV PUSH1 0xFF AND ISZERO PUSH2 0xBAC JUMPI PUSH1 0x40 MLOAD PUSH32 0x8C379A000000000000000000000000000000000000000000000000000000000 DUP2 MSTORE PUSH1 0x4 ADD PUSH2 0xBA3 SWAP1 PUSH2 0x2F93 JUMP JUMPDEST PUSH1 0x40 MLOAD DUP1 SWAP2 SUB SWAP1 REVERT JUMPDEST DUP6 DUP6 PUSH1 0x0 DUP2 DUP2 LT PUSH2 0xBC0 JUMPI PUSH2 0xBBF PUSH2 0x3058 JUMP JUMPDEST JUMPDEST SWAP1 POP PUSH1 0xA0 MUL ADD PUSH1 0x60 ADD CALLDATALOAD PUSH1 0x9 PUSH1 0x0 DUP10 DUP2 MSTORE PUSH1 0x20 ADD SWAP1 DUP2 MSTORE PUSH1 0x20 ADD PUSH1 0x0 KECCAK256 PUSH1 0x6 ADD SLOAD EQ PUSH2 0xC21 JUMPI PUSH1 0x40 MLOAD PUSH32 0x8C379A000000000000000000000000000000000000000000000000000000000 DUP2 MSTORE PUSH1 0x4 ADD PUSH2 0xC18 SWAP1 PUSH2 0x30D3 JUMP JUMPDEST PUSH1 0x40 MLOAD DUP1 SWAP2 SUB SWAP1 REVERT JUMPDEST PUSH2 0xC80 DUP7 DUP7 DUP1 DUP1 PUSH1 0x20 MUL PUSH1 0x20 ADD PUSH1 0x40 MLOAD SWAP1 DUP2 ADD PUSH1 0x40 MSTORE DUP1 SWAP4 SWAP3 SWAP2 SWAP1 DUP2 DUP2 MSTORE PUSH1 0x20 ADD PUSH1 0x0 SWAP1 JUMPDEST DUP3 DUP3 LT ISZERO PUSH2 0xC76 JUMPI DUP5 DUP5 DUP4 SWAP1 POP PUSH1 0xA0 MUL ADD DUP1 CALLDATASIZE SUB DUP2 ADD SWAP1 PUSH2 0xC67 SWAP2 SWAP1 PUSH2 0x30F3 JUMP JUMPDEST DUP2 MSTORE PUSH1 0x20 ADD SWAP1 PUSH1 0x1 ADD SWAP1 PUSH2 0xC46 JUMP JUMPDEST POP POP POP POP POP PUSH2 0x1BC6 JUMP JUMPDEST POP PUSH1 0x0 JUMPDEST PUSH1 0x9 PUSH1 0x0 DUP10 DUP2 MSTORE PUSH1 0x20 ADD SWAP1 DUP2 MSTORE PUSH1 0x20 ADD PUSH1 0x0 KECCAK256 PUSH1 0x2 ADD SLOAD DUP2 LT ISZERO PUSH2 0xD4C JUMPI PUSH1 0x0 PUSH1 0x8 PUSH1 0x0 DUP11 DUP2 MSTORE PUSH1 0x20 ADD SWAP1 DUP2 MSTORE PUSH1 0x20 ADD PUSH1 0x0 KECCAK256 PUSH1 0x0 DUP4 DUP2 MSTORE PUSH1 0x20 ADD SWAP1 DUP2 MSTORE PUSH1 0x20 ADD PUSH1 0x0 KECCAK256 PUSH1 0x0 ADD SLOAD SWAP1 POP PUSH1 0x0 PUSH2 0xD21 DUP3 DUP7 PUSH2 0xCDE DUP6 PUSH2 0x1A1D JUMP JUMPDEST PUSH2 0xCE7 DUP9 PUSH2 0x1A1D JUMP JUMPDEST PUSH1 0x40 MLOAD PUSH1 0x20 ADD PUSH2 0xCF8 SWAP3 SWAP2 SWAP1 PUSH2 0x2B68 JUMP JUMPDEST PUSH1 0x40 MLOAD PUSH1 0x20 DUP2 DUP4 SUB SUB DUP2 MSTORE SWAP1 PUSH1 0x40 MSTORE DUP1 MLOAD SWAP1 PUSH1 0x20 ADD KECCAK256 PUSH1 0x0 SHR PUSH2 0xD1B SWAP2 SWAP1 PUSH2 0x2FE2 JUMP JUMPDEST DUP8 PUSH2 0x1AEB JUMP JUMPDEST SWAP1 POP DUP5 DUP1 PUSH2 0xD32 JUMPI PUSH2 0xD31 PUSH2 0x2FB3 JUMP JUMPDEST JUMPDEST DUP2 DUP8 MULMOD SWAP6 POP POP POP DUP1 DUP1 PUSH2 0xD44 SWAP1 PUSH2 0x2E39 JUMP JUMPDEST SWAP2 POP POP PUSH2 0xC84 JUMP JUMPDEST POP DUP6 DUP6 PUSH1 0x0 DUP2 DUP2 LT PUSH2 0xD61 JUMPI PUSH2 0xD60 PUSH2 0x3058 JUMP JUMPDEST JUMPDEST SWAP1 POP PUSH1 0xA0 MUL ADD PUSH1 0x20 ADD CALLDATALOAD DUP4 EQ PUSH2 0xDAC JUMPI PUSH1 0x40 MLOAD PUSH32 0x8C379A000000000000000000000000000000000000000000000000000000000 DUP2 MSTORE PUSH1 0x4 ADD PUSH2 0xDA3 SWAP1 PUSH2 0x316C JUMP JUMPDEST PUSH1 0x40 MLOAD DUP1 SWAP2 SUB SWAP1 REVERT JUMPDEST PUSH1 0x1 PUSH1 0x9 PUSH1 0x0 DUP10 DUP2 MSTORE PUSH1 0x20 ADD SWAP1 DUP2 MSTORE PUSH1 0x20 ADD PUSH1 0x0 KECCAK256 PUSH1 0x7 ADD PUSH1 0x0 PUSH2 0x100 EXP DUP2 SLOAD DUP2 PUSH1 0xFF MUL NOT AND SWAP1 DUP4 ISZERO ISZERO MUL OR SWAP1 SSTORE POP DUP6 DUP6 PUSH1 0x0 DUP2 DUP2 LT PUSH2 0xDEF JUMPI PUSH2 0xDEE PUSH2 0x3058 JUMP JUMPDEST JUMPDEST SWAP1 POP PUSH1 0xA0 MUL ADD PUSH1 0x40 ADD CALLDATALOAD PUSH1 0x9 PUSH1 0x0 DUP10 DUP2 MSTORE PUSH1 0x20 ADD SWAP1 DUP2 MSTORE PUSH1 0x20 ADD PUSH1 0x0 KECCAK256 PUSH1 0x0 ADD DUP2 SWAP1 SSTORE POP PUSH1 0x2 PUSH1 0x7 PUSH1 0x0 PUSH2 0x100 EXP DUP2 SLOAD DUP2 PUSH1 0xFF MUL NOT AND SWAP1 DUP4 PUSH1 0x2 DUP2 GT ISZERO PUSH2 0xE39 JUMPI PUSH2 0xE38 PUSH2 0x2894 JUMP JUMPDEST JUMPDEST MUL OR SWAP1 SSTORE POP PUSH32 0x3FC2D4F2E2E4E84069307A4D3A9B7AD25D93E2026627031A87B54A1C61907CE CALLER DUP5 DUP9 DUP9 PUSH1 0x0 DUP2 DUP2 LT PUSH2 0xE75 JUMPI PUSH2 0xE74 PUSH2 0x3058 JUMP JUMPDEST JUMPDEST SWAP1 POP PUSH1 0xA0 MUL ADD PUSH1 0x40 ADD CALLDATALOAD TIMESTAMP PUSH1 0x40 MLOAD PUSH2 0xE90 SWAP5 SWAP4 SWAP3 SWAP2 SWAP1 PUSH2 0x318C JUMP JUMPDEST PUSH1 0x40 MLOAD DUP1 SWAP2 SUB SWAP1 LOG1 POP POP POP POP POP POP POP JUMP JUMPDEST PUSH1 0x2 SLOAD DUP2 JUMP JUMPDEST PUSH2 0xEAF PUSH2 0x1927 JUMP JUMPDEST PUSH2 0xEB9 PUSH1 0x0 PUSH2 0x1D0C JUMP JUMPDEST JUMP JUMPDEST PUSH1 0x3 SLOAD DUP2 JUMP JUMPDEST PUSH1 0x9 PUSH1 0x20 MSTORE DUP1 PUSH1 0x0 MSTORE PUSH1 0x40 PUSH1 0x0 KECCAK256 PUSH1 0x0 SWAP2 POP SWAP1 POP DUP1 PUSH1 0x0 ADD SLOAD SWAP1 DUP1 PUSH1 0x1 ADD SLOAD SWAP1 DUP1 PUSH1 0x2 ADD SLOAD SWAP1 DUP1 PUSH1 0x3 ADD SLOAD SWAP1 DUP1 PUSH1 0x4 ADD SLOAD SWAP1 DUP1 PUSH1 0x5 ADD SLOAD SWAP1 DUP1 PUSH1 0x6 ADD SLOAD SWAP1 DUP1 PUSH1 0x7 ADD PUSH1 0x0 SWAP1 SLOAD SWAP1 PUSH2 0x100 EXP SWAP1 DIV PUSH1 0xFF AND SWAP1 DUP1 PUSH1 0x7 ADD PUSH1 0x1 SWAP1 SLOAD SWAP1 PUSH2 0x100 EXP SWAP1 DIV PUSH1 0xFF AND SWAP1 POP DUP10 JUMP JUMPDEST PUSH1 0x1 SLOAD DUP2 JUMP JUMPDEST PUSH1 0x0 PUSH1 0x1 SLOAD SWAP1 POP PUSH1 0x0 PUSH1 0x2 DUP2 GT ISZERO PUSH2 0xF4A JUMPI PUSH2 0xF49 PUSH2 0x2894 JUMP JUMPDEST JUMPDEST PUSH1 0x7 PUSH1 0x0 SWAP1 SLOAD SWAP1 PUSH2 0x100 EXP SWAP1 DIV PUSH1 0xFF AND PUSH1 0x2 DUP2 GT ISZERO PUSH2 0xF6C JUMPI PUSH2 0xF6B PUSH2 0x2894 JUMP JUMPDEST JUMPDEST EQ DUP1 ISZERO PUSH2 0xF86 JUMPI POP PUSH1 0x2 SLOAD DUP2 PUSH2 0xF82 SWAP2 SWAP1 PUSH2 0x31D1 JUMP JUMPDEST TIMESTAMP LT ISZERO JUMPDEST ISZERO PUSH2 0x105E JUMPI PUSH1 0x0 PUSH1 0x4 SLOAD EQ PUSH2 0x1031 JUMPI PUSH2 0xF9D PUSH2 0x1DD0 JUMP JUMPDEST PUSH1 0x4 SLOAD PUSH1 0x9 PUSH1 0x0 PUSH1 0x5 SLOAD DUP2 MSTORE PUSH1 0x20 ADD SWAP1 DUP2 MSTORE PUSH1 0x20 ADD PUSH1 0x0 KECCAK256 PUSH1 0x2 ADD DUP2 SWAP1 SSTORE POP PUSH1 0x0 PUSH1 0x9 PUSH1 0x0 PUSH1 0x5 SLOAD DUP2 MSTORE PUSH1 0x20 ADD SWAP1 DUP2 MSTORE PUSH1 0x20 ADD PUSH1 0x0 KECCAK256 PUSH1 0x5 ADD SLOAD PUSH1 0x6 PUSH1 0x40 MLOAD PUSH1 0x20 ADD PUSH2 0xFE9 SWAP2 SWAP1 PUSH2 0x3288 JUMP JUMPDEST PUSH1 0x40 MLOAD PUSH1 0x20 DUP2 DUP4 SUB SUB DUP2 MSTORE SWAP1 PUSH1 0x40 MSTORE DUP1 MLOAD SWAP1 PUSH1 0x20 ADD KECCAK256 PUSH1 0x0 SHR PUSH2 0x100C SWAP2 SWAP1 PUSH2 0x2FE2 JUMP JUMPDEST SWAP1 POP DUP1 PUSH1 0x9 PUSH1 0x0 PUSH1 0x5 SLOAD DUP2 MSTORE PUSH1 0x20 ADD SWAP1 DUP2 MSTORE PUSH1 0x20 ADD PUSH1 0x0 KECCAK256 PUSH1 0x1 ADD DUP2 SWAP1 SSTORE POP POP PUSH2 0x105D JUMP JUMPDEST PUSH1 0x2 PUSH1 0x7 PUSH1 0x0 PUSH2 0x100 EXP DUP2 SLOAD DUP2 PUSH1 0xFF MUL NOT AND SWAP1 DUP4 PUSH1 0x2 DUP2 GT ISZERO PUSH2 0x1057 JUMPI PUSH2 0x1056 PUSH2 0x2894 JUMP JUMPDEST JUMPDEST MUL OR SWAP1 SSTORE POP JUMPDEST JUMPDEST PUSH1 0x1 PUSH1 0x2 DUP2 GT ISZERO PUSH2 0x1072 JUMPI PUSH2 0x1071 PUSH2 0x2894 JUMP JUMPDEST JUMPDEST PUSH1 0x7 PUSH1 0x0 SWAP1 SLOAD SWAP1 PUSH2 0x100 EXP SWAP1 DIV PUSH1 0xFF AND PUSH1 0x2 DUP2 GT ISZERO PUSH2 0x1094 JUMPI PUSH2 0x1093 PUSH2 0x2894 JUMP JUMPDEST JUMPDEST EQ DUP1 ISZERO PUSH2 0x10BB JUMPI POP PUSH1 0x3 SLOAD DUP2 PUSH2 0x10AA SWAP2 SWAP1 PUSH2 0x31D1 JUMP JUMPDEST TIMESTAMP LT ISZERO DUP1 PUSH2 0x10BA JUMPI POP PUSH1 0x0 PUSH1 0x4 SLOAD EQ JUMPDEST JUMPDEST ISZERO PUSH2 0x10C9 JUMPI PUSH2 0x10C8 PUSH2 0x1DD0 JUMP JUMPDEST JUMPDEST POP JUMP JUMPDEST PUSH1 0x0 DUP1 PUSH1 0x0 SWAP1 SLOAD SWAP1 PUSH2 0x100 EXP SWAP1 DIV PUSH20 0xFFFFFFFFFFFFFFFFFFFFFFFFFFFFFFFFFFFFFFFF AND SWAP1 POP SWAP1 JUMP JUMPDEST PUSH1 0xA PUSH1 0x20 MSTORE DUP2 PUSH1 0x0 MSTORE PUSH1 0x40 PUSH1 0x0 KECCAK256 PUSH1 0x20 MSTORE DUP1 PUSH1 0x0 MSTORE PUSH1 0x40 PUSH1 0x0 KECCAK256 PUSH1 0x0 SWAP2 POP SWAP2 POP POP DUP1 PUSH1 0x0 ADD SLOAD SWAP1 DUP1 PUSH1 0x1 ADD PUSH1 0x0 SWAP1 SLOAD SWAP1 PUSH2 0x100 EXP SWAP1 DIV PUSH1 0xFF AND SWAP1 DUP1 PUSH1 0x1 ADD PUSH1 0x1 SWAP1 SLOAD SWAP1 PUSH2 0x100 EXP SWAP1 DIV PUSH1 0xFF AND SWAP1 POP DUP4 JUMP JUMPDEST DUP3 DUP2 PUSH1 0x0 DUP2 MLOAD DUP2 LT PUSH2 0x115B JUMPI PUSH2 0x115A PUSH2 0x3058 JUMP JUMPDEST JUMPDEST PUSH1 0x20 MUL PUSH1 0x20 ADD ADD MLOAD PUSH1 0x20 ADD MLOAD LT PUSH2 0x11A7 JUMPI PUSH1 0x40 MLOAD PUSH32 0x8C379A000000000000000000000000000000000000000000000000000000000 DUP2 MSTORE PUSH1 0x4 ADD PUSH2 0x119E SWAP1 PUSH2 0x2A40 JUMP JUMPDEST PUSH1 0x40 MLOAD DUP1 SWAP2 SUB SWAP1 REVERT JUMPDEST DUP4 DUP6 LT PUSH2 0x11E9 JUMPI PUSH1 0x40 MLOAD PUSH32 0x8C379A000000000000000000000000000000000000000000000000000000000 DUP2 MSTORE PUSH1 0x4 ADD PUSH2 0x11E0 SWAP1 PUSH2 0x3311 JUMP JUMPDEST PUSH1 0x40 MLOAD DUP1 SWAP2 SUB SWAP1 REVERT JUMPDEST PUSH1 0x2 DUP1 DUP2 GT ISZERO PUSH2 0x11FC JUMPI PUSH2 0x11FB PUSH2 0x2894 JUMP JUMPDEST JUMPDEST PUSH1 0x7 PUSH1 0x0 SWAP1 SLOAD SWAP1 PUSH2 0x100 EXP SWAP1 DIV PUSH1 0xFF AND PUSH1 0x2 DUP2 GT ISZERO PUSH2 0x121E JUMPI PUSH2 0x121D PUSH2 0x2894 JUMP JUMPDEST JUMPDEST EQ PUSH2 0x125E JUMPI PUSH1 0x40 MLOAD PUSH32 0x8C379A000000000000000000000000000000000000000000000000000000000 DUP2 MSTORE PUSH1 0x4 ADD PUSH2 0x1255 SWAP1 PUSH2 0x337D JUMP JUMPDEST PUSH1 0x40 MLOAD DUP1 SWAP2 SUB SWAP1 REVERT JUMPDEST PUSH2 0x1267 DUP2 PUSH2 0x1BC6 JUMP JUMPDEST POP PUSH1 0x1 PUSH1 0x5 PUSH1 0x0 DUP3 DUP3 SLOAD PUSH2 0x127B SWAP2 SWAP1 PUSH2 0x31D1 JUMP JUMPDEST SWAP3 POP POP DUP2 SWAP1 SSTORE POP PUSH1 0x0 PUSH1 0x7 PUSH1 0x0 PUSH2 0x100 EXP DUP2 SLOAD DUP2 PUSH1 0xFF MUL NOT AND SWAP1 DUP4 PUSH1 0x2 DUP2 GT ISZERO PUSH2 0x12A8 JUMPI PUSH2 0x12A7 PUSH2 0x2894 JUMP JUMPDEST JUMPDEST MUL OR SWAP1 SSTORE POP TIMESTAMP PUSH1 0x1 DUP2 SWAP1 SSTORE POP DUP5 PUSH1 0x2 DUP2 SWAP1 SSTORE POP DUP4 PUSH1 0x3 DUP2 SWAP1 SSTORE POP DUP1 PUSH1 0x0 DUP2 MLOAD DUP2 LT PUSH2 0x12D6 JUMPI PUSH2 0x12D5 PUSH2 0x3058 JUMP JUMPDEST JUMPDEST PUSH1 0x20 MUL PUSH1 0x20 ADD ADD MLOAD PUSH1 0x60 ADD MLOAD PUSH1 0x9 PUSH1 0x0 PUSH1 0x5 SLOAD DUP2 MSTORE PUSH1 0x20 ADD SWAP1 DUP2 MSTORE PUSH1 0x20 ADD PUSH1 0x0 KECCAK256 PUSH1 0x6 ADD DUP2 SWAP1 SSTORE POP DUP1 PUSH1 0x0 DUP2 MLOAD DUP2 LT PUSH2 0x1312 JUMPI PUSH2 0x1311 PUSH2 0x3058 JUMP JUMPDEST JUMPDEST PUSH1 0x20 MUL PUSH1 0x20 ADD ADD MLOAD PUSH1 0x20 ADD MLOAD PUSH1 0x9 PUSH1 0x0 PUSH1 0x5 SLOAD DUP2 MSTORE PUSH1 0x20 ADD SWAP1 DUP2 MSTORE PUSH1 0x20 ADD PUSH1 0x0 KECCAK256 PUSH1 0x3 ADD DUP2 SWAP1 SSTORE POP DUP1 PUSH1 0x0 DUP2 MLOAD DUP2 LT PUSH2 0x134E JUMPI PUSH2 0x134D PUSH2 0x3058 JUMP JUMPDEST JUMPDEST PUSH1 0x20 MUL PUSH1 0x20 ADD ADD MLOAD PUSH1 0x40 ADD MLOAD PUSH1 0x9 PUSH1 0x0 PUSH1 0x5 SLOAD DUP2 MSTORE PUSH1 0x20 ADD SWAP1 DUP2 MSTORE PUSH1 0x20 ADD PUSH1 0x0 KECCAK256 PUSH1 0x4 ADD DUP2 SWAP1 SSTORE POP DUP3 PUSH1 0x9 PUSH1 0x0 PUSH1 0x5 SLOAD DUP2 MSTORE PUSH1 0x20 ADD SWAP1 DUP2 MSTORE PUSH1 0x20 ADD PUSH1 0x0 KECCAK256 PUSH1 0x5 ADD DUP2 SWAP1 SSTORE POP PUSH1 0x0 PUSH1 0x4 DUP2 SWAP1 SSTORE POP PUSH1 0x40 MLOAD DUP1 PUSH1 0x20 ADD PUSH1 0x40 MSTORE DUP1 PUSH1 0x0 DUP2 MSTORE POP PUSH1 0x6 SWAP1 DUP2 PUSH2 0x13B9 SWAP2 SWAP1 PUSH2 0x2D38 JUMP JUMPDEST POP PUSH32 0x1A5E4FA05B9601AF979A44C50EF7E103B9B51CD105EB42040B5817EB3E58449C DUP3 TIMESTAMP DUP8 DUP8 DUP8 DUP7 PUSH1 0x0 DUP2 MLOAD DUP2 LT PUSH2 0x13F4 JUMPI PUSH2 0x13F3 PUSH2 0x3058 JUMP JUMPDEST JUMPDEST PUSH1 0x20 MUL PUSH1 0x20 ADD ADD MLOAD PUSH1 0x20 ADD MLOAD DUP8 PUSH1 0x0 DUP2 MLOAD DUP2 LT PUSH2 0x1414 JUMPI PUSH2 0x1413 PUSH2 0x3058 JUMP JUMPDEST JUMPDEST PUSH1 0x20 MUL PUSH1 0x20 ADD ADD MLOAD PUSH1 0x40 ADD MLOAD DUP9 PUSH1 0x0 DUP2 MLOAD DUP2 LT PUSH2 0x1434 JUMPI PUSH2 0x1433 PUSH2 0x3058 JUMP JUMPDEST JUMPDEST PUSH1 0x20 MUL PUSH1 0x20 ADD ADD MLOAD PUSH1 0x60 ADD MLOAD PUSH1 0x5 SLOAD PUSH1 0x40 MLOAD PUSH2 0x1458 SWAP10 SWAP9 SWAP8 SWAP7 SWAP6 SWAP5 SWAP4 SWAP3 SWAP2 SWAP1 PUSH2 0x339D JUMP JUMPDEST PUSH1 0x40 MLOAD DUP1 SWAP2 SUB SWAP1 LOG1 POP POP POP POP POP JUMP JUMPDEST DUP2 PUSH1 0x9 PUSH1 0x0 PUSH1 0x5 SLOAD DUP2 MSTORE PUSH1 0x20 ADD SWAP1 DUP2 MSTORE PUSH1 0x20 ADD PUSH1 0x0 KECCAK256 PUSH1 0x5 ADD SLOAD DUP2 LT PUSH2 0x14C2 JUMPI PUSH1 0x40 MLOAD PUSH32 0x8C379A000000000000000000000000000000000000000000000000000000000 DUP2 MSTORE PUSH1 0x4 ADD PUSH2 0x14B9 SWAP1 PUSH2 0x2A40 JUMP JUMPDEST PUSH1 0x40 MLOAD DUP1 SWAP2 SUB SWAP1 REVERT JUMPDEST PUSH1 0x0 PUSH1 0x5 SLOAD SWAP1 POP PUSH1 0x0 PUSH1 0xA PUSH1 0x0 DUP6 PUSH20 0xFFFFFFFFFFFFFFFFFFFFFFFFFFFFFFFFFFFFFFFF AND PUSH20 0xFFFFFFFFFFFFFFFFFFFFFFFFFFFFFFFFFFFFFFFF AND DUP2 MSTORE PUSH1 0x20 ADD SWAP1 DUP2 MSTORE PUSH1 0x20 ADD PUSH1 0x0 KECCAK256 PUSH1 0x0 DUP4 DUP2 MSTORE PUSH1 0x20 ADD SWAP1 DUP2 MSTORE PUSH1 0x20 ADD PUSH1 0x0 KECCAK256 PUSH1 0x40 MLOAD DUP1 PUSH1 0x60 ADD PUSH1 0x40 MSTORE SWAP1 DUP2 PUSH1 0x0 DUP3 ADD SLOAD DUP2 MSTORE PUSH1 0x20 ADD PUSH1 0x1 DUP3 ADD PUSH1 0x0 SWAP1 SLOAD SWAP1 PUSH2 0x100 EXP SWAP1 DIV PUSH1 0xFF AND ISZERO ISZERO ISZERO ISZERO DUP2 MSTORE PUSH1 0x20 ADD PUSH1 0x1 DUP3 ADD PUSH1 0x1 SWAP1 SLOAD SWAP1 PUSH2 0x100 EXP SWAP1 DIV PUSH1 0xFF AND ISZERO ISZERO ISZERO ISZERO DUP2 MSTORE POP POP SWAP1 POP DUP1 PUSH1 0x20 ADD MLOAD PUSH2 0x15AC JUMPI PUSH1 0x40 MLOAD PUSH32 0x8C379A000000000000000000000000000000000000000000000000000000000 DUP2 MSTORE PUSH1 0x4 ADD PUSH2 0x15A3 SWAP1 PUSH2 0x3476 JUMP JUMPDEST PUSH1 0x40 MLOAD DUP1 SWAP2 SUB SWAP1 REVERT JUMPDEST DUP1 PUSH1 0x40 ADD MLOAD ISZERO PUSH2 0x15F1 JUMPI PUSH1 0x40 MLOAD PUSH32 0x8C379A000000000000000000000000000000000000000000000000000000000 DUP2 MSTORE PUSH1 0x4 ADD PUSH2 0x15E8 SWAP1 PUSH2 0x34E2 JUMP JUMPDEST PUSH1 0x40 MLOAD DUP1 SWAP2 SUB SWAP1 REVERT JUMPDEST PUSH1 0x8 PUSH1 0x0 DUP4 DUP2 MSTORE PUSH1 0x20 ADD SWAP1 DUP2 MSTORE PUSH1 0x20 ADD PUSH1 0x0 KECCAK256 PUSH1 0x0 DUP3 PUSH1 0x0 ADD MLOAD DUP2 MSTORE PUSH1 0x20 ADD SWAP1 DUP2 MSTORE PUSH1 0x20 ADD PUSH1 0x0 KECCAK256 PUSH1 0x0 ADD SLOAD PUSH2 0x1654 PUSH1 0x9 PUSH1 0x0 DUP6 DUP2 MSTORE PUSH1 0x20 ADD SWAP1 DUP2 MSTORE PUSH1 0x20 ADD PUSH1 0x0 KECCAK256 PUSH1 0x3 ADD SLOAD DUP8 PUSH1 0x9 PUSH1 0x0 DUP8 DUP2 MSTORE PUSH1 0x20 ADD SWAP1 DUP2 MSTORE PUSH1 0x20 ADD PUSH1 0x0 KECCAK256 PUSH1 0x5 ADD SLOAD PUSH2 0x1AEB JUMP JUMPDEST EQ PUSH2 0x1694 JUMPI PUSH1 0x40 MLOAD PUSH32 0x8C379A000000000000000000000000000000000000000000000000000000000 DUP2 MSTORE PUSH1 0x4 ADD PUSH2 0x168B SWAP1 PUSH2 0x354E JUMP JUMPDEST PUSH1 0x40 MLOAD DUP1 SWAP2 SUB SWAP1 REVERT JUMPDEST PUSH2 0x169C PUSH2 0xF2F JUMP JUMPDEST PUSH2 0x16A6 PUSH1 0x1 PUSH2 0x19A5 JUMP JUMPDEST PUSH1 0x0 PUSH1 0x4 PUSH1 0x0 DUP2 SLOAD PUSH2 0x16B7 SWAP1 PUSH2 0x356E JUMP JUMPDEST SWAP2 SWAP1 POP DUP2 SWAP1 SSTORE SWAP1 POP DUP6 PUSH1 0x8 PUSH1 0x0 DUP6 DUP2 MSTORE PUSH1 0x20 ADD SWAP1 DUP2 MSTORE PUSH1 0x20 ADD PUSH1 0x0 KECCAK256 PUSH1 0x0 DUP5 PUSH1 0x0 ADD MLOAD DUP2 MSTORE PUSH1 0x20 ADD SWAP1 DUP2 MSTORE PUSH1 0x20 ADD PUSH1 0x0 KECCAK256 PUSH1 0x1 ADD DUP2 SWAP1 SSTORE POP PUSH1 0x0 DUP2 SUB PUSH2 0x1752 JUMPI PUSH1 0x2 PUSH1 0x7 PUSH1 0x0 PUSH2 0x100 EXP DUP2 SLOAD DUP2 PUSH1 0xFF MUL NOT AND SWAP1 DUP4 PUSH1 0x2 DUP2 GT ISZERO PUSH2 0x171D JUMPI PUSH2 0x171C PUSH2 0x2894 JUMP JUMPDEST JUMPDEST MUL OR SWAP1 SSTORE POP PUSH1 0x1 PUSH1 0x9 PUSH1 0x0 DUP6 DUP2 MSTORE PUSH1 0x20 ADD SWAP1 DUP2 MSTORE PUSH1 0x20 ADD PUSH1 0x0 KECCAK256 PUSH1 0x7 ADD PUSH1 0x1 PUSH2 0x100 EXP DUP2 SLOAD DUP2 PUSH1 0xFF MUL NOT AND SWAP1 DUP4 ISZERO ISZERO MUL OR SWAP1 SSTORE POP JUMPDEST PUSH1 0x1 PUSH1 0xA PUSH1 0x0 DUP8 PUSH20 0xFFFFFFFFFFFFFFFFFFFFFFFFFFFFFFFFFFFFFFFF AND PUSH20 0xFFFFFFFFFFFFFFFFFFFFFFFFFFFFFFFFFFFFFFFF AND DUP2 MSTORE PUSH1 0x20 ADD SWAP1 DUP2 MSTORE PUSH1 0x20 ADD PUSH1 0x0 KECCAK256 PUSH1 0x0 DUP6 DUP2 MSTORE PUSH1 0x20 ADD SWAP1 DUP2 MSTORE PUSH1 0x20 ADD PUSH1 0x0 KECCAK256 PUSH1 0x1 ADD PUSH1 0x1 PUSH2 0x100 EXP DUP2 SLOAD DUP2 PUSH1 0xFF MUL NOT AND SWAP1 DUP4 ISZERO ISZERO MUL OR SWAP1 SSTORE POP PUSH32 0x167147E5476FB37532A0AAB79DEA3EB6B8FE0FBD723AC6025B0DE29237B0496 DUP6 DUP8 DUP4 TIMESTAMP PUSH1 0x40 MLOAD PUSH2 0x17F3 SWAP5 SWAP4 SWAP3 SWAP2 SWAP1 PUSH2 0x318C JUMP JUMPDEST PUSH1 0x40 MLOAD DUP1 SWAP2 SUB SWAP1 LOG1 POP POP POP POP POP POP JUMP JUMPDEST PUSH1 0x7 PUSH1 0x0 SWAP1 SLOAD SWAP1 PUSH2 0x100 EXP SWAP1 DIV PUSH1 0xFF AND DUP2 JUMP JUMPDEST PUSH1 0x6 DUP1 SLOAD PUSH2 0x1823 SWAP1 PUSH2 0x2AFB JUMP JUMPDEST DUP1 PUSH1 0x1F ADD PUSH1 0x20 DUP1 SWAP2 DIV MUL PUSH1 0x20 ADD PUSH1 0x40 MLOAD SWAP1 DUP2 ADD PUSH1 0x40 MSTORE DUP1 SWAP3 SWAP2 SWAP1 DUP2 DUP2 MSTORE PUSH1 0x20 ADD DUP3 DUP1 SLOAD PUSH2 0x184F SWAP1 PUSH2 0x2AFB JUMP JUMPDEST DUP1 ISZERO PUSH2 0x189C JUMPI DUP1 PUSH1 0x1F LT PUSH2 0x1871 JUMPI PUSH2 0x100 DUP1 DUP4 SLOAD DIV MUL DUP4 MSTORE SWAP2 PUSH1 0x20 ADD SWAP2 PUSH2 0x189C JUMP JUMPDEST DUP3 ADD SWAP2 SWAP1 PUSH1 0x0 MSTORE PUSH1 0x20 PUSH1 0x0 KECCAK256 SWAP1 JUMPDEST DUP2 SLOAD DUP2 MSTORE SWAP1 PUSH1 0x1 ADD SWAP1 PUSH1 0x20 ADD DUP1 DUP4 GT PUSH2 0x187F JUMPI DUP3 SWAP1 SUB PUSH1 0x1F AND DUP3 ADD SWAP2 JUMPDEST POP POP POP POP POP DUP2 JUMP JUMPDEST PUSH2 0x18AC PUSH2 0x1927 JUMP JUMPDEST PUSH1 0x0 PUSH20 0xFFFFFFFFFFFFFFFFFFFFFFFFFFFFFFFFFFFFFFFF AND DUP2 PUSH20 0xFFFFFFFFFFFFFFFFFFFFFFFFFFFFFFFFFFFFFFFF AND SUB PUSH2 0x191B JUMPI PUSH1 0x40 MLOAD PUSH32 0x8C379A000000000000000000000000000000000000000000000000000000000 DUP2 MSTORE PUSH1 0x4 ADD PUSH2 0x1912 SWAP1 PUSH2 0x3609 JUMP JUMPDEST PUSH1 0x40 MLOAD DUP1 SWAP2 SUB SWAP1 REVERT JUMPDEST PUSH2 0x1924 DUP2 PUSH2 0x1D0C JUMP JUMPDEST POP JUMP JUMPDEST PUSH2 0x192F PUSH2 0x1EB7 JUMP JUMPDEST PUSH20 0xFFFFFFFFFFFFFFFFFFFFFFFFFFFFFFFFFFFFFFFF AND PUSH2 0x194D PUSH2 0x10CC JUMP JUMPDEST PUSH20 0xFFFFFFFFFFFFFFFFFFFFFFFFFFFFFFFFFFFFFFFF AND EQ PUSH2 0x19A3 JUMPI PUSH1 0x40 MLOAD PUSH32 0x8C379A000000000000000000000000000000000000000000000000000000000 DUP2 MSTORE PUSH1 0x4 ADD PUSH2 0x199A SWAP1 PUSH2 0x3675 JUMP JUMPDEST PUSH1 0x40 MLOAD DUP1 SWAP2 SUB SWAP1 REVERT JUMPDEST JUMP JUMPDEST DUP1 PUSH1 0x2 DUP2 GT ISZERO PUSH2 0x19B8 JUMPI PUSH2 0x19B7 PUSH2 0x2894 JUMP JUMPDEST JUMPDEST PUSH1 0x7 PUSH1 0x0 SWAP1 SLOAD SWAP1 PUSH2 0x100 EXP SWAP1 DIV PUSH1 0xFF AND PUSH1 0x2 DUP2 GT ISZERO PUSH2 0x19DA JUMPI PUSH2 0x19D9 PUSH2 0x2894 JUMP JUMPDEST JUMPDEST EQ PUSH2 0x1A1A JUMPI PUSH1 0x40 MLOAD PUSH32 0x8C379A000000000000000000000000000000000000000000000000000000000 DUP2 MSTORE PUSH1 0x4 ADD PUSH2 0x1A11 SWAP1 PUSH2 0x36E1 JUMP JUMPDEST PUSH1 0x40 MLOAD DUP1 SWAP2 SUB SWAP1 REVERT JUMPDEST POP JUMP JUMPDEST PUSH1 0x60 PUSH1 0x0 PUSH1 0x1 PUSH2 0x1A2C DUP5 PUSH2 0x1EBF JUMP JUMPDEST ADD SWAP1 POP PUSH1 0x0 DUP2 PUSH8 0xFFFFFFFFFFFFFFFF DUP2 GT ISZERO PUSH2 0x1A4B JUMPI PUSH2 0x1A4A PUSH2 0x262E JUMP JUMPDEST JUMPDEST PUSH1 0x40 MLOAD SWAP1 DUP1 DUP3 MSTORE DUP1 PUSH1 0x1F ADD PUSH1 0x1F NOT AND PUSH1 0x20 ADD DUP3 ADD PUSH1 0x40 MSTORE DUP1 ISZERO PUSH2 0x1A7D JUMPI DUP2 PUSH1 0x20 ADD PUSH1 0x1 DUP3 MUL DUP1 CALLDATASIZE DUP4 CALLDATACOPY DUP1 DUP3 ADD SWAP2 POP POP SWAP1 POP JUMPDEST POP SWAP1 POP PUSH1 0x0 DUP3 PUSH1 0x20 ADD DUP3 ADD SWAP1 POP JUMPDEST PUSH1 0x1 ISZERO PUSH2 0x1AE0 JUMPI DUP1 DUP1 PUSH1 0x1 SWAP1 SUB SWAP2 POP POP PUSH32 0x3031323334353637383961626364656600000000000000000000000000000000 PUSH1 0xA DUP7 MOD BYTE DUP2 MSTORE8 PUSH1 0xA DUP6 DUP2 PUSH2 0x1AD4 JUMPI PUSH2 0x1AD3 PUSH2 0x2FB3 JUMP JUMPDEST JUMPDEST DIV SWAP5 POP PUSH1 0x0 DUP6 SUB PUSH2 0x1A8B JUMPI JUMPDEST DUP2 SWAP4 POP POP POP POP SWAP2 SWAP1 POP JUMP JUMPDEST PUSH1 0x0 DUP1 PUSH1 0x1 SWAP1 POP JUMPDEST PUSH1 0x0 DUP5 GT ISZERO PUSH2 0x1B43 JUMPI PUSH1 0x1 DUP1 DUP6 AND SUB PUSH2 0x1B1B JUMPI DUP3 DUP1 PUSH2 0x1B15 JUMPI PUSH2 0x1B14 PUSH2 0x2FB3 JUMP JUMPDEST JUMPDEST DUP6 DUP3 MULMOD SWAP1 POP JUMPDEST DUP3 DUP1 PUSH2 0x1B2A JUMPI PUSH2 0x1B29 PUSH2 0x2FB3 JUMP JUMPDEST JUMPDEST DUP6 DUP7 MULMOD SWAP5 POP PUSH1 0x2 DUP5 PUSH2 0x1B3C SWAP2 SWAP1 PUSH2 0x3701 JUMP JUMPDEST SWAP4 POP PUSH2 0x1AF3 JUMP JUMPDEST DUP1 SWAP2 POP POP SWAP4 SWAP3 POP POP POP JUMP JUMPDEST DUP1 PUSH1 0x2 DUP2 GT ISZERO PUSH2 0x1B61 JUMPI PUSH2 0x1B60 PUSH2 0x2894 JUMP JUMPDEST JUMPDEST PUSH1 0x7 PUSH1 0x0 SWAP1 SLOAD SWAP1 PUSH2 0x100 EXP SWAP1 DIV PUSH1 0xFF AND PUSH1 0x2 DUP2 GT ISZERO PUSH2 0x1B83 JUMPI PUSH2 0x1B82 PUSH2 0x2894 JUMP JUMPDEST JUMPDEST GT PUSH2 0x1BC3 JUMPI PUSH1 0x40 MLOAD PUSH32 0x8C379A000000000000000000000000000000000000000000000000000000000 DUP2 MSTORE PUSH1 0x4 ADD PUSH2 0x1BBA SWAP1 PUSH2 0x36E1 JUMP JUMPDEST PUSH1 0x40 MLOAD DUP1 SWAP2 SUB SWAP1 REVERT JUMPDEST POP JUMP JUMPDEST PUSH1 0x0 DUP1 DUP3 MLOAD SWAP1 POP PUSH1 0x0 JUMPDEST DUP2 DUP2 LT ISZERO PUSH2 0x1D00 JUMPI PUSH1 0x0 PUSH2 0x1BFD DUP6 DUP4 DUP2 MLOAD DUP2 LT PUSH2 0x1BF0 JUMPI PUSH2 0x1BEF PUSH2 0x3058 JUMP JUMPDEST JUMPDEST PUSH1 0x20 MUL PUSH1 0x20 ADD ADD MLOAD PUSH2 0x2012 JUMP JUMPDEST SWAP1 POP DUP1 PUSH1 0x0 ADD MLOAD PUSH2 0x1C14 JUMPI PUSH1 0x0 SWAP4 POP POP POP POP PUSH2 0x1D07 JUMP JUMPDEST DUP1 PUSH1 0x20 ADD MLOAD PUSH2 0x1C29 JUMPI PUSH1 0x1 SWAP4 POP POP POP POP PUSH2 0x1D07 JUMP JUMPDEST DUP5 PUSH1 0x1 DUP4 PUSH2 0x1C37 SWAP2 SWAP1 PUSH2 0x31D1 JUMP JUMPDEST DUP2 MLOAD DUP2 LT PUSH2 0x1C48 JUMPI PUSH2 0x1C47 PUSH2 0x3058 JUMP JUMPDEST JUMPDEST PUSH1 0x20 MUL PUSH1 0x20 ADD ADD MLOAD PUSH1 0x20 ADD MLOAD DUP2 PUSH1 0x40 ADD MLOAD EQ PUSH2 0x1C6A JUMPI PUSH1 0x0 SWAP4 POP POP POP POP PUSH2 0x1D07 JUMP JUMPDEST DUP5 PUSH1 0x1 DUP4 PUSH2 0x1C78 SWAP2 SWAP1 PUSH2 0x31D1 JUMP JUMPDEST DUP2 MLOAD DUP2 LT PUSH2 0x1C89 JUMPI PUSH2 0x1C88 PUSH2 0x3058 JUMP JUMPDEST JUMPDEST PUSH1 0x20 MUL PUSH1 0x20 ADD ADD MLOAD PUSH1 0x40 ADD MLOAD DUP2 PUSH1 0x60 ADD MLOAD EQ PUSH2 0x1CAB JUMPI PUSH1 0x0 SWAP4 POP POP POP POP PUSH2 0x1D07 JUMP JUMPDEST DUP5 PUSH1 0x1 DUP4 PUSH2 0x1CB9 SWAP2 SWAP1 PUSH2 0x31D1 JUMP JUMPDEST DUP2 MLOAD DUP2 LT PUSH2 0x1CCA JUMPI PUSH2 0x1CC9 PUSH2 0x3058 JUMP JUMPDEST JUMPDEST PUSH1 0x20 MUL PUSH1 0x20 ADD ADD MLOAD PUSH1 0x60 ADD MLOAD DUP2 PUSH1 0x80 ADD MLOAD EQ PUSH2 0x1CEC JUMPI PUSH1 0x0 SWAP4 POP POP POP POP PUSH2 0x1D07 JUMP JUMPDEST POP DUP1 DUP1 PUSH2 0x1CF8 SWAP1 PUSH2 0x2E39 JUMP JUMPDEST SWAP2 POP POP PUSH2 0x1BD0 JUMP JUMPDEST POP PUSH1 0x1 SWAP2 POP POP JUMPDEST SWAP2 SWAP1 POP JUMP JUMPDEST PUSH1 0x0 DUP1 PUSH1 0x0 SWAP1 SLOAD SWAP1 PUSH2 0x100 EXP SWAP1 DIV PUSH20 0xFFFFFFFFFFFFFFFFFFFFFFFFFFFFFFFFFFFFFFFF AND SWAP1 POP DUP2 PUSH1 0x0 DUP1 PUSH2 0x100 EXP DUP2 SLOAD DUP2 PUSH20 0xFFFFFFFFFFFFFFFFFFFFFFFFFFFFFFFFFFFFFFFF MUL NOT AND SWAP1 DUP4 PUSH20 0xFFFFFFFFFFFFFFFFFFFFFFFFFFFFFFFFFFFFFFFF AND MUL OR SWAP1 SSTORE POP DUP2 PUSH20 0xFFFFFFFFFFFFFFFFFFFFFFFFFFFFFFFFFFFFFFFF AND DUP2 PUSH20 0xFFFFFFFFFFFFFFFFFFFFFFFFFFFFFFFFFFFFFFFF AND PUSH32 0x8BE0079C531659141344CD1FD0A4F28419497F9722A3DAAFE3B4186F6B6457E0 PUSH1 0x40 MLOAD PUSH1 0x40 MLOAD DUP1 SWAP2 SUB SWAP1 LOG3 POP POP JUMP JUMPDEST PUSH1 0x2 DUP1 DUP2 GT ISZERO PUSH2 0x1DE3 JUMPI PUSH2 0x1DE2 PUSH2 0x2894 JUMP JUMPDEST JUMPDEST PUSH1 0x7 PUSH1 0x0 SWAP1 SLOAD SWAP1 PUSH2 0x100 EXP SWAP1 DIV PUSH1 0xFF AND PUSH1 0x2 DUP2 GT ISZERO PUSH2 0x1E05 JUMPI PUSH2 0x1E04 PUSH2 0x2894 JUMP JUMPDEST JUMPDEST SUB PUSH2 0x1E45 JUMPI PUSH1 0x40 MLOAD PUSH32 0x8C379A000000000000000000000000000000000000000000000000000000000 DUP2 MSTORE PUSH1 0x4 ADD PUSH2 0x1E3C SWAP1 PUSH2 0x377E JUMP JUMPDEST PUSH1 0x40 MLOAD DUP1 SWAP2 SUB SWAP1 REVERT JUMPDEST PUSH1 0x3 DUP1 PUSH2 0x1E55 JUMPI PUSH2 0x1E54 PUSH2 0x2FB3 JUMP JUMPDEST JUMPDEST PUSH1 0x1 PUSH1 0x7 PUSH1 0x0 SWAP1 SLOAD SWAP1 PUSH2 0x100 EXP SWAP1 DIV PUSH1 0xFF AND PUSH1 0x2 DUP2 GT ISZERO PUSH2 0x1E79 JUMPI PUSH2 0x1E78 PUSH2 0x2894 JUMP JUMPDEST JUMPDEST ADDMOD PUSH1 0x2 DUP2 GT ISZERO PUSH2 0x1E8C JUMPI PUSH2 0x1E8B PUSH2 0x2894 JUMP JUMPDEST JUMPDEST PUSH1 0x7 PUSH1 0x0 PUSH2 0x100 EXP DUP2 SLOAD DUP2 PUSH1 0xFF MUL NOT AND SWAP1 DUP4 PUSH1 0x2 DUP2 GT ISZERO PUSH2 0x1EB0 JUMPI PUSH2 0x1EAF PUSH2 0x2894 JUMP JUMPDEST JUMPDEST MUL OR SWAP1 SSTORE POP JUMP JUMPDEST PUSH1 0x0 CALLER SWAP1 POP SWAP1 JUMP JUMPDEST PUSH1 0x0 DUP1 PUSH1 0x0 SWAP1 POP PUSH27 0x184F03E93FF9F4DAA797ED6E38ED64BF6A1F010000000000000000 DUP4 LT PUSH2 0x1F1D JUMPI PUSH27 0x184F03E93FF9F4DAA797ED6E38ED64BF6A1F010000000000000000 DUP4 DUP2 PUSH2 0x1F13 JUMPI PUSH2 0x1F12 PUSH2 0x2FB3 JUMP JUMPDEST JUMPDEST DIV SWAP3 POP PUSH1 0x40 DUP2 ADD SWAP1 POP JUMPDEST PUSH14 0x4EE2D6D415B85ACEF8100000000 DUP4 LT PUSH2 0x1F5A JUMPI PUSH14 0x4EE2D6D415B85ACEF8100000000 DUP4 DUP2 PUSH2 0x1F50 JUMPI PUSH2 0x1F4F PUSH2 0x2FB3 JUMP JUMPDEST JUMPDEST DIV SWAP3 POP PUSH1 0x20 DUP2 ADD SWAP1 POP JUMPDEST PUSH7 0x2386F26FC10000 DUP4 LT PUSH2 0x1F89 JUMPI PUSH7 0x2386F26FC10000 DUP4 DUP2 PUSH2 0x1F7F JUMPI PUSH2 0x1F7E PUSH2 0x2FB3 JUMP JUMPDEST JUMPDEST DIV SWAP3 POP PUSH1 0x10 DUP2 ADD SWAP1 POP JUMPDEST PUSH4 0x5F5E100 DUP4 LT PUSH2 0x1FB2 JUMPI PUSH4 0x5F5E100 DUP4 DUP2 PUSH2 0x1FA8 JUMPI PUSH2 0x1FA7 PUSH2 0x2FB3 JUMP JUMPDEST JUMPDEST DIV SWAP3 POP PUSH1 0x8 DUP2 ADD SWAP1 POP JUMPDEST PUSH2 0x2710 DUP4 LT PUSH2 0x1FD7 JUMPI PUSH2 0x2710 DUP4 DUP2 PUSH2 0x1FCD JUMPI PUSH2 0x1FCC PUSH2 0x2FB3 JUMP JUMPDEST JUMPDEST DIV SWAP3 POP PUSH1 0x4 DUP2 ADD SWAP1 POP JUMPDEST PUSH1 0x64 DUP4 LT PUSH2 0x1FFA JUMPI PUSH1 0x64 DUP4 DUP2 PUSH2 0x1FF0 JUMPI PUSH2 0x1FEF PUSH2 0x2FB3 JUMP JUMPDEST JUMPDEST DIV SWAP3 POP PUSH1 0x2 DUP2 ADD SWAP1 POP JUMPDEST PUSH1 0xA DUP4 LT PUSH2 0x2009 JUMPI PUSH1 0x1 DUP2 ADD SWAP1 POP JUMPDEST DUP1 SWAP2 POP POP SWAP2 SWAP1 POP JUMP JUMPDEST PUSH2 0x201A PUSH2 0x2226 JUMP JUMPDEST PUSH1 0x1 DUP3 PUSH1 0x60 ADD MLOAD SUB PUSH2 0x20B2 JUMPI PUSH2 0x203A DUP3 PUSH1 0x20 ADD MLOAD PUSH1 0x2 DUP5 PUSH1 0x0 ADD MLOAD PUSH2 0x1AEB JUMP JUMPDEST DUP3 PUSH1 0x40 ADD MLOAD SUB PUSH2 0x207B JUMPI PUSH1 0x40 MLOAD DUP1 PUSH1 0xA0 ADD PUSH1 0x40 MSTORE DUP1 PUSH1 0x1 ISZERO ISZERO DUP2 MSTORE PUSH1 0x20 ADD PUSH1 0x0 ISZERO ISZERO DUP2 MSTORE PUSH1 0x20 ADD PUSH1 0x0 DUP2 MSTORE PUSH1 0x20 ADD PUSH1 0x0 DUP2 MSTORE PUSH1 0x20 ADD PUSH1 0x0 DUP2 MSTORE POP SWAP1 POP PUSH2 0x21E2 JUMP JUMPDEST PUSH1 0x40 MLOAD DUP1 PUSH1 0xA0 ADD PUSH1 0x40 MSTORE DUP1 PUSH1 0x0 ISZERO ISZERO DUP2 MSTORE PUSH1 0x20 ADD PUSH1 0x0 ISZERO ISZERO DUP2 MSTORE PUSH1 0x20 ADD PUSH1 0x0 DUP2 MSTORE PUSH1 0x20 ADD PUSH1 0x0 DUP2 MSTORE PUSH1 0x20 ADD PUSH1 0x0 DUP2 MSTORE POP SWAP1 POP PUSH2 0x21E2 JUMP JUMPDEST PUSH1 0x0 DUP1 DUP4 PUSH1 0x40 ADD MLOAD SWAP1 POP PUSH1 0x0 PUSH2 0x2105 DUP6 PUSH1 0x20 ADD MLOAD PUSH2 0x20D3 DUP8 PUSH1 0x40 ADD MLOAD PUSH2 0x1A1D JUMP JUMPDEST PUSH2 0x20E0 DUP9 PUSH1 0x80 ADD MLOAD PUSH2 0x1A1D JUMP JUMPDEST PUSH1 0x40 MLOAD PUSH1 0x20 ADD PUSH2 0x20F1 SWAP3 SWAP2 SWAP1 PUSH2 0x2B68 JUMP JUMPDEST PUSH1 0x40 MLOAD PUSH1 0x20 DUP2 DUP4 SUB SUB DUP2 MSTORE SWAP1 PUSH1 0x40 MSTORE PUSH2 0x21E7 JUMP JUMPDEST SWAP1 POP PUSH1 0x0 PUSH1 0x1 DUP7 PUSH1 0x60 ADD MLOAD AND SUB PUSH2 0x212E JUMPI PUSH1 0x2 DUP6 PUSH1 0x60 ADD MLOAD PUSH2 0x2127 SWAP2 SWAP1 PUSH2 0x3701 JUMP JUMPDEST SWAP3 POP PUSH2 0x216B JUMP JUMPDEST PUSH1 0x2 PUSH1 0x1 DUP7 PUSH1 0x60 ADD MLOAD PUSH2 0x2141 SWAP2 SWAP1 PUSH2 0x31D1 JUMP JUMPDEST PUSH2 0x214B SWAP2 SWAP1 PUSH2 0x3701 JUMP JUMPDEST SWAP3 POP DUP5 PUSH1 0x0 ADD MLOAD DUP3 DUP4 PUSH2 0x215E SWAP2 SWAP1 PUSH2 0x379E JUMP JUMPDEST PUSH2 0x2168 SWAP2 SWAP1 PUSH2 0x2FE2 JUMP JUMPDEST SWAP2 POP JUMPDEST PUSH1 0x40 MLOAD DUP1 PUSH1 0xA0 ADD PUSH1 0x40 MSTORE DUP1 PUSH1 0x1 ISZERO ISZERO DUP2 MSTORE PUSH1 0x20 ADD PUSH1 0x1 ISZERO ISZERO DUP2 MSTORE PUSH1 0x20 ADD PUSH2 0x21AD PUSH2 0x219E DUP9 PUSH1 0x20 ADD MLOAD DUP6 DUP11 PUSH1 0x0 ADD MLOAD PUSH2 0x1AEB JUMP JUMPDEST DUP9 PUSH1 0x80 ADD MLOAD DUP10 PUSH1 0x0 ADD MLOAD PUSH2 0x1AEB JUMP JUMPDEST DUP2 MSTORE PUSH1 0x20 ADD PUSH2 0x21D3 PUSH2 0x21C8 DUP9 PUSH1 0x80 ADD MLOAD DUP6 DUP11 PUSH1 0x0 ADD MLOAD PUSH2 0x1AEB JUMP JUMPDEST DUP6 DUP10 PUSH1 0x0 ADD MLOAD PUSH2 0x1AEB JUMP JUMPDEST DUP2 MSTORE PUSH1 0x20 ADD DUP5 DUP2 MSTORE POP SWAP4 POP POP POP POP JUMPDEST SWAP2 SWAP1 POP JUMP JUMPDEST PUSH1 0x0 DUP3 DUP3 PUSH1 0x40 MLOAD PUSH1 0x20 ADD PUSH2 0x21FB SWAP2 SWAP1 PUSH2 0x37E0 JUMP JUMPDEST PUSH1 0x40 MLOAD PUSH1 0x20 DUP2 DUP4 SUB SUB DUP2 MSTORE SWAP1 PUSH1 0x40 MSTORE DUP1 MLOAD SWAP1 PUSH1 0x20 ADD KECCAK256 PUSH1 0x0 SHR PUSH2 0x221E SWAP2 SWAP1 PUSH2 0x2FE2 JUMP JUMPDEST SWAP1 POP SWAP3 SWAP2 POP POP JUMP JUMPDEST PUSH1 0x40 MLOAD DUP1 PUSH1 0xA0 ADD PUSH1 0x40 MSTORE DUP1 PUSH1 0x0 ISZERO ISZERO DUP2 MSTORE PUSH1 0x20 ADD PUSH1 0x0 ISZERO ISZERO DUP2 MSTORE PUSH1 0x20 ADD PUSH1 0x0 DUP2 MSTORE PUSH1 0x20 ADD PUSH1 0x0 DUP2 MSTORE PUSH1 0x20 ADD PUSH1 0x0 DUP2 MSTORE POP SWAP1 JUMP JUMPDEST PUSH1 0x0 DUP2 SWAP1 POP SWAP2 SWAP1 POP JUMP JUMPDEST PUSH2 0x226C DUP2 PUSH2 0x2259 JUMP JUMPDEST DUP3 MSTORE POP POP JUMP JUMPDEST PUSH1 0x0 PUSH1 0x20 DUP3 ADD SWAP1 POP PUSH2 0x2287 PUSH1 0x0 DUP4 ADD DUP5 PUSH2 0x2263 JUMP JUMPDEST SWAP3 SWAP2 POP POP JUMP JUMPDEST PUSH1 0x0 PUSH1 0x40 MLOAD SWAP1 POP SWAP1 JUMP JUMPDEST PUSH1 0x0 DUP1 REVERT JUMPDEST PUSH1 0x0 DUP1 REVERT JUMPDEST PUSH2 0x22AA DUP2 PUSH2 0x2259 JUMP JUMPDEST DUP2 EQ PUSH2 0x22B5 JUMPI PUSH1 0x0 DUP1 REVERT JUMPDEST POP JUMP JUMPDEST PUSH1 0x0 DUP2 CALLDATALOAD SWAP1 POP PUSH2 0x22C7 DUP2 PUSH2 0x22A1 JUMP JUMPDEST SWAP3 SWAP2 POP POP JUMP JUMPDEST PUSH1 0x0 PUSH20 0xFFFFFFFFFFFFFFFFFFFFFFFFFFFFFFFFFFFFFFFF DUP3 AND SWAP1 POP SWAP2 SWAP1 POP JUMP JUMPDEST PUSH1 0x0 PUSH2 0x22F8 DUP3 PUSH2 0x22CD JUMP JUMPDEST SWAP1 POP SWAP2 SWAP1 POP JUMP JUMPDEST PUSH2 0x2308 DUP2 PUSH2 0x22ED JUMP JUMPDEST DUP2 EQ PUSH2 0x2313 JUMPI PUSH1 0x0 DUP1 REVERT JUMPDEST POP JUMP JUMPDEST PUSH1 0x0 DUP2 CALLDATALOAD SWAP1 POP PUSH2 0x2325 DUP2 PUSH2 0x22FF JUMP JUMPDEST SWAP3 SWAP2 POP POP JUMP JUMPDEST PUSH1 0x0 DUP1 PUSH1 0x40 DUP4 DUP6 SUB SLT ISZERO PUSH2 0x2342 JUMPI PUSH2 0x2341 PUSH2 0x2297 JUMP JUMPDEST JUMPDEST PUSH1 0x0 PUSH2 0x2350 DUP6 DUP3 DUP7 ADD PUSH2 0x22B8 JUMP JUMPDEST SWAP3 POP POP PUSH1 0x20 PUSH2 0x2361 DUP6 DUP3 DUP7 ADD PUSH2 0x2316 JUMP JUMPDEST SWAP2 POP POP SWAP3 POP SWAP3 SWAP1 POP JUMP JUMPDEST PUSH1 0x0 DUP1 PUSH1 0x40 DUP4 DUP6 SUB SLT ISZERO PUSH2 0x2382 JUMPI PUSH2 0x2381 PUSH2 0x2297 JUMP JUMPDEST JUMPDEST PUSH1 0x0 PUSH2 0x2390 DUP6 DUP3 DUP7 ADD PUSH2 0x22B8 JUMP JUMPDEST SWAP3 POP POP PUSH1 0x20 PUSH2 0x23A1 DUP6 DUP3 DUP7 ADD PUSH2 0x22B8 JUMP JUMPDEST SWAP2 POP POP SWAP3 POP SWAP3 SWAP1 POP JUMP JUMPDEST PUSH2 0x23B4 DUP2 PUSH2 0x22ED JUMP JUMPDEST DUP3 MSTORE POP POP JUMP JUMPDEST PUSH1 0x0 PUSH1 0x60 DUP3 ADD SWAP1 POP PUSH2 0x23CF PUSH1 0x0 DUP4 ADD DUP7 PUSH2 0x2263 JUMP JUMPDEST PUSH2 0x23DC PUSH1 0x20 DUP4 ADD DUP6 PUSH2 0x2263 JUMP JUMPDEST PUSH2 0x23E9 PUSH1 0x40 DUP4 ADD DUP5 PUSH2 0x23AB JUMP JUMPDEST SWAP5 SWAP4 POP POP POP POP JUMP JUMPDEST PUSH1 0x0 DUP1 REVERT JUMPDEST PUSH1 0x0 DUP1 REVERT JUMPDEST PUSH1 0x0 DUP1 REVERT JUMPDEST PUSH1 0x0 DUP1 DUP4 PUSH1 0x1F DUP5 ADD SLT PUSH2 0x2416 JUMPI PUSH2 0x2415 PUSH2 0x23F1 JUMP JUMPDEST JUMPDEST DUP3 CALLDATALOAD SWAP1 POP PUSH8 0xFFFFFFFFFFFFFFFF DUP2 GT ISZERO PUSH2 0x2433 JUMPI PUSH2 0x2432 PUSH2 0x23F6 JUMP JUMPDEST JUMPDEST PUSH1 0x20 DUP4 ADD SWAP2 POP DUP4 PUSH1 0xA0 DUP3 MUL DUP4 ADD GT ISZERO PUSH2 0x244F JUMPI PUSH2 0x244E PUSH2 0x23FB JUMP JUMPDEST JUMPDEST SWAP3 POP SWAP3 SWAP1 POP JUMP JUMPDEST PUSH1 0x0 DUP1 PUSH1 0x0 PUSH1 0x40 DUP5 DUP7 SUB SLT ISZERO PUSH2 0x246F JUMPI PUSH2 0x246E PUSH2 0x2297 JUMP JUMPDEST JUMPDEST PUSH1 0x0 PUSH2 0x247D DUP7 DUP3 DUP8 ADD PUSH2 0x22B8 JUMP JUMPDEST SWAP4 POP POP PUSH1 0x20 DUP5 ADD CALLDATALOAD PUSH8 0xFFFFFFFFFFFFFFFF DUP2 GT ISZERO PUSH2 0x249E JUMPI PUSH2 0x249D PUSH2 0x229C JUMP JUMPDEST JUMPDEST PUSH2 0x24AA DUP7 DUP3 DUP8 ADD PUSH2 0x2400 JUMP JUMPDEST SWAP3 POP SWAP3 POP POP SWAP3 POP SWAP3 POP SWAP3 JUMP JUMPDEST PUSH1 0x0 PUSH1 0x20 DUP3 DUP5 SUB SLT ISZERO PUSH2 0x24CC JUMPI PUSH2 0x24CB PUSH2 0x2297 JUMP JUMPDEST JUMPDEST PUSH1 0x0 PUSH2 0x24DA DUP5 DUP3 DUP6 ADD PUSH2 0x22B8 JUMP JUMPDEST SWAP2 POP POP SWAP3 SWAP2 POP POP JUMP JUMPDEST PUSH1 0x0 DUP2 ISZERO ISZERO SWAP1 POP SWAP2 SWAP1 POP JUMP JUMPDEST PUSH2 0x24F8 DUP2 PUSH2 0x24E3 JUMP JUMPDEST DUP3 MSTORE POP POP JUMP JUMPDEST PUSH1 0x0 PUSH2 0x120 DUP3 ADD SWAP1 POP PUSH2 0x2514 PUSH1 0x0 DUP4 ADD DUP13 PUSH2 0x2263 JUMP JUMPDEST PUSH2 0x2521 PUSH1 0x20 DUP4 ADD DUP12 PUSH2 0x2263 JUMP JUMPDEST PUSH2 0x252E PUSH1 0x40 DUP4 ADD DUP11 PUSH2 0x2263 JUMP JUMPDEST PUSH2 0x253B PUSH1 0x60 DUP4 ADD DUP10 PUSH2 0x2263 JUMP JUMPDEST PUSH2 0x2548 PUSH1 0x80 DUP4 ADD DUP9 PUSH2 0x2263 JUMP JUMPDEST PUSH2 0x2555 PUSH1 0xA0 DUP4 ADD DUP8 PUSH2 0x2263 JUMP JUMPDEST PUSH2 0x2562 PUSH1 0xC0 DUP4 ADD DUP7 PUSH2 0x2263 JUMP JUMPDEST PUSH2 0x256F PUSH1 0xE0 DUP4 ADD DUP6 PUSH2 0x24EF JUMP JUMPDEST PUSH2 0x257D PUSH2 0x100 DUP4 ADD DUP5 PUSH2 0x24EF JUMP JUMPDEST SWAP11 SWAP10 POP POP POP POP POP POP POP POP POP POP JUMP JUMPDEST PUSH1 0x0 PUSH1 0x20 DUP3 ADD SWAP1 POP PUSH2 0x25A0 PUSH1 0x0 DUP4 ADD DUP5 PUSH2 0x23AB JUMP JUMPDEST SWAP3 SWAP2 POP POP JUMP JUMPDEST PUSH1 0x0 DUP1 PUSH1 0x40 DUP4 DUP6 SUB SLT ISZERO PUSH2 0x25BD JUMPI PUSH2 0x25BC PUSH2 0x2297 JUMP JUMPDEST JUMPDEST PUSH1 0x0 PUSH2 0x25CB DUP6 DUP3 DUP7 ADD PUSH2 0x2316 JUMP JUMPDEST SWAP3 POP POP PUSH1 0x20 PUSH2 0x25DC DUP6 DUP3 DUP7 ADD PUSH2 0x22B8 JUMP JUMPDEST SWAP2 POP POP SWAP3 POP SWAP3 SWAP1 POP JUMP JUMPDEST PUSH1 0x0 PUSH1 0x60 DUP3 ADD SWAP1 POP PUSH2 0x25FB PUSH1 0x0 DUP4 ADD DUP7 PUSH2 0x2263 JUMP JUMPDEST PUSH2 0x2608 PUSH1 0x20 DUP4 ADD DUP6 PUSH2 0x24EF JUMP JUMPDEST PUSH2 0x2615 PUSH1 0x40 DUP4 ADD DUP5 PUSH2 0x24EF JUMP JUMPDEST SWAP5 SWAP4 POP POP POP POP JUMP JUMPDEST PUSH1 0x0 PUSH1 0x1F NOT PUSH1 0x1F DUP4 ADD AND SWAP1 POP SWAP2 SWAP1 POP JUMP JUMPDEST PUSH32 0x4E487B7100000000000000000000000000000000000000000000000000000000 PUSH1 0x0 MSTORE PUSH1 0x41 PUSH1 0x4 MSTORE PUSH1 0x24 PUSH1 0x0 REVERT JUMPDEST PUSH2 0x2666 DUP3 PUSH2 0x261D JUMP JUMPDEST DUP2 ADD DUP2 DUP2 LT PUSH8 0xFFFFFFFFFFFFFFFF DUP3 GT OR ISZERO PUSH2 0x2685 JUMPI PUSH2 0x2684 PUSH2 0x262E JUMP JUMPDEST JUMPDEST DUP1 PUSH1 0x40 MSTORE POP POP POP JUMP JUMPDEST PUSH1 0x0 PUSH2 0x2698 PUSH2 0x228D JUMP JUMPDEST SWAP1 POP PUSH2 0x26A4 DUP3 DUP3 PUSH2 0x265D JUMP JUMPDEST SWAP2 SWAP1 POP JUMP JUMPDEST PUSH1 0x0 PUSH8 0xFFFFFFFFFFFFFFFF DUP3 GT ISZERO PUSH2 0x26C4 JUMPI PUSH2 0x26C3 PUSH2 0x262E JUMP JUMPDEST JUMPDEST PUSH1 0x20 DUP3 MUL SWAP1 POP PUSH1 0x20 DUP2 ADD SWAP1 POP SWAP2 SWAP1 POP JUMP JUMPDEST PUSH1 0x0 DUP1 REVERT JUMPDEST PUSH1 0x0 PUSH1 0xA0 DUP3 DUP5 SUB SLT ISZERO PUSH2 0x26F0 JUMPI PUSH2 0x26EF PUSH2 0x26D5 JUMP JUMPDEST JUMPDEST PUSH2 0x26FA PUSH1 0xA0 PUSH2 0x268E JUMP JUMPDEST SWAP1 POP PUSH1 0x0 PUSH2 0x270A DUP5 DUP3 DUP6 ADD PUSH2 0x22B8 JUMP JUMPDEST PUSH1 0x0 DUP4 ADD MSTORE POP PUSH1 0x20 PUSH2 0x271E DUP5 DUP3 DUP6 ADD PUSH2 0x22B8 JUMP JUMPDEST PUSH1 0x20 DUP4 ADD MSTORE POP PUSH1 0x40 PUSH2 0x2732 DUP5 DUP3 DUP6 ADD PUSH2 0x22B8 JUMP JUMPDEST PUSH1 0x40 DUP4 ADD MSTORE POP PUSH1 0x60 PUSH2 0x2746 DUP5 DUP3 DUP6 ADD PUSH2 0x22B8 JUMP JUMPDEST PUSH1 0x60 DUP4 ADD MSTORE POP PUSH1 0x80 PUSH2 0x275A DUP5 DUP3 DUP6 ADD PUSH2 0x22B8 JUMP JUMPDEST PUSH1 0x80 DUP4 ADD MSTORE POP SWAP3 SWAP2 POP POP JUMP JUMPDEST PUSH1 0x0 PUSH2 0x2779 PUSH2 0x2774 DUP5 PUSH2 0x26A9 JUMP JUMPDEST PUSH2 0x268E JUMP JUMPDEST SWAP1 POP DUP1 DUP4 DUP3 MSTORE PUSH1 0x20 DUP3 ADD SWAP1 POP PUSH1 0xA0 DUP5 MUL DUP4 ADD DUP6 DUP2 GT ISZERO PUSH2 0x279C JUMPI PUSH2 0x279B PUSH2 0x23FB JUMP JUMPDEST JUMPDEST DUP4 JUMPDEST DUP2 DUP2 LT ISZERO PUSH2 0x27C5 JUMPI DUP1 PUSH2 0x27B1 DUP9 DUP3 PUSH2 0x26DA JUMP JUMPDEST DUP5 MSTORE PUSH1 0x20 DUP5 ADD SWAP4 POP POP PUSH1 0xA0 DUP2 ADD SWAP1 POP PUSH2 0x279E JUMP JUMPDEST POP POP POP SWAP4 SWAP3 POP POP POP JUMP JUMPDEST PUSH1 0x0 DUP3 PUSH1 0x1F DUP4 ADD SLT PUSH2 0x27E4 JUMPI PUSH2 0x27E3 PUSH2 0x23F1 JUMP JUMPDEST JUMPDEST DUP2 CALLDATALOAD PUSH2 0x27F4 DUP5 DUP3 PUSH1 0x20 DUP7 ADD PUSH2 0x2766 JUMP JUMPDEST SWAP2 POP POP SWAP3 SWAP2 POP POP JUMP JUMPDEST PUSH1 0x0 DUP1 PUSH1 0x0 DUP1 PUSH1 0x0 PUSH1 0xA0 DUP7 DUP9 SUB SLT ISZERO PUSH2 0x2819 JUMPI PUSH2 0x2818 PUSH2 0x2297 JUMP JUMPDEST JUMPDEST PUSH1 0x0 PUSH2 0x2827 DUP9 DUP3 DUP10 ADD PUSH2 0x22B8 JUMP JUMPDEST SWAP6 POP POP PUSH1 0x20 PUSH2 0x2838 DUP9 DUP3 DUP10 ADD PUSH2 0x22B8 JUMP JUMPDEST SWAP5 POP POP PUSH1 0x40 PUSH2 0x2849 DUP9 DUP3 DUP10 ADD PUSH2 0x22B8 JUMP JUMPDEST SWAP4 POP POP PUSH1 0x60 PUSH2 0x285A DUP9 DUP3 DUP10 ADD PUSH2 0x2316 JUMP JUMPDEST SWAP3 POP POP PUSH1 0x80 DUP7 ADD CALLDATALOAD PUSH8 0xFFFFFFFFFFFFFFFF DUP2 GT ISZERO PUSH2 0x287B JUMPI PUSH2 0x287A PUSH2 0x229C JUMP JUMPDEST JUMPDEST PUSH2 0x2887 DUP9 DUP3 DUP10 ADD PUSH2 0x27CF JUMP JUMPDEST SWAP2 POP POP SWAP3 SWAP6 POP SWAP3 SWAP6 SWAP1 SWAP4 POP JUMP JUMPDEST PUSH32 0x4E487B7100000000000000000000000000000000000000000000000000000000 PUSH1 0x0 MSTORE PUSH1 0x21 PUSH1 0x4 MSTORE PUSH1 0x24 PUSH1 0x0 REVERT JUMPDEST PUSH1 0x3 DUP2 LT PUSH2 0x28D4 JUMPI PUSH2 0x28D3 PUSH2 0x2894 JUMP JUMPDEST JUMPDEST POP JUMP JUMPDEST PUSH1 0x0 DUP2 SWAP1 POP PUSH2 0x28E5 DUP3 PUSH2 0x28C3 JUMP JUMPDEST SWAP2 SWAP1 POP JUMP JUMPDEST PUSH1 0x0 PUSH2 0x28F5 DUP3 PUSH2 0x28D7 JUMP JUMPDEST SWAP1 POP SWAP2 SWAP1 POP JUMP JUMPDEST PUSH2 0x2905 DUP2 PUSH2 0x28EA JUMP JUMPDEST DUP3 MSTORE POP POP JUMP JUMPDEST PUSH1 0x0 PUSH1 0x20 DUP3 ADD SWAP1 POP PUSH2 0x2920 PUSH1 0x0 DUP4 ADD DUP5 PUSH2 0x28FC JUMP JUMPDEST SWAP3 SWAP2 POP POP JUMP JUMPDEST PUSH1 0x0 DUP2 MLOAD SWAP1 POP SWAP2 SWAP1 POP JUMP JUMPDEST PUSH1 0x0 DUP3 DUP3 MSTORE PUSH1 0x20 DUP3 ADD SWAP1 POP SWAP3 SWAP2 POP POP JUMP JUMPDEST PUSH1 0x0 JUMPDEST DUP4 DUP2 LT ISZERO PUSH2 0x2960 JUMPI DUP1 DUP3 ADD MLOAD DUP2 DUP5 ADD MSTORE PUSH1 0x20 DUP2 ADD SWAP1 POP PUSH2 0x2945 JUMP JUMPDEST PUSH1 0x0 DUP5 DUP5 ADD MSTORE POP POP POP POP JUMP JUMPDEST PUSH1 0x0 PUSH2 0x2977 DUP3 PUSH2 0x2926 JUMP JUMPDEST PUSH2 0x2981 DUP2 DUP6 PUSH2 0x2931 JUMP JUMPDEST SWAP4 POP PUSH2 0x2991 DUP2 DUP6 PUSH1 0x20 DUP7 ADD PUSH2 0x2942 JUMP JUMPDEST PUSH2 0x299A DUP2 PUSH2 0x261D JUMP JUMPDEST DUP5 ADD SWAP2 POP POP SWAP3 SWAP2 POP POP JUMP JUMPDEST PUSH1 0x0 PUSH1 0x20 DUP3 ADD SWAP1 POP DUP2 DUP2 SUB PUSH1 0x0 DUP4 ADD MSTORE PUSH2 0x29BF DUP2 DUP5 PUSH2 0x296C JUMP JUMPDEST SWAP1 POP SWAP3 SWAP2 POP POP JUMP JUMPDEST PUSH1 0x0 PUSH1 0x20 DUP3 DUP5 SUB SLT ISZERO PUSH2 0x29DD JUMPI PUSH2 0x29DC PUSH2 0x2297 JUMP JUMPDEST JUMPDEST PUSH1 0x0 PUSH2 0x29EB DUP5 DUP3 DUP6 ADD PUSH2 0x2316 JUMP JUMPDEST SWAP2 POP POP SWAP3 SWAP2 POP POP JUMP JUMPDEST PUSH32 0x477265617465724F72457175616C5468616E4E00000000000000000000000000 PUSH1 0x0 DUP3 ADD MSTORE POP JUMP JUMPDEST PUSH1 0x0 PUSH2 0x2A2A PUSH1 0x13 DUP4 PUSH2 0x2931 JUMP JUMPDEST SWAP2 POP PUSH2 0x2A35 DUP3 PUSH2 0x29F4 JUMP JUMPDEST PUSH1 0x20 DUP3 ADD SWAP1 POP SWAP2 SWAP1 POP JUMP JUMPDEST PUSH1 0x0 PUSH1 0x20 DUP3 ADD SWAP1 POP DUP2 DUP2 SUB PUSH1 0x0 DUP4 ADD MSTORE PUSH2 0x2A59 DUP2 PUSH2 0x2A1D JUMP JUMPDEST SWAP1 POP SWAP2 SWAP1 POP JUMP JUMPDEST PUSH32 0x416C7265616479436F6D6D697474656400000000000000000000000000000000 PUSH1 0x0 DUP3 ADD MSTORE POP JUMP JUMPDEST PUSH1 0x0 PUSH2 0x2A96 PUSH1 0x10 DUP4 PUSH2 0x2931 JUMP JUMPDEST SWAP2 POP PUSH2 0x2AA1 DUP3 PUSH2 0x2A60 JUMP JUMPDEST PUSH1 0x20 DUP3 ADD SWAP1 POP SWAP2 SWAP1 POP JUMP JUMPDEST PUSH1 0x0 PUSH1 0x20 DUP3 ADD SWAP1 POP DUP2 DUP2 SUB PUSH1 0x0 DUP4 ADD MSTORE PUSH2 0x2AC5 DUP2 PUSH2 0x2A89 JUMP JUMPDEST SWAP1 POP SWAP2 SWAP1 POP JUMP JUMPDEST PUSH32 0x4E487B7100000000000000000000000000000000000000000000000000000000 PUSH1 0x0 MSTORE PUSH1 0x22 PUSH1 0x4 MSTORE PUSH1 0x24 PUSH1 0x0 REVERT JUMPDEST PUSH1 0x0 PUSH1 0x2 DUP3 DIV SWAP1 POP PUSH1 0x1 DUP3 AND DUP1 PUSH2 0x2B13 JUMPI PUSH1 0x7F DUP3 AND SWAP2 POP JUMPDEST PUSH1 0x20 DUP3 LT DUP2 SUB PUSH2 0x2B26 JUMPI PUSH2 0x2B25 PUSH2 0x2ACC JUMP JUMPDEST JUMPDEST POP SWAP2 SWAP1 POP JUMP JUMPDEST PUSH1 0x0 DUP2 SWAP1 POP SWAP3 SWAP2 POP POP JUMP JUMPDEST PUSH1 0x0 PUSH2 0x2B42 DUP3 PUSH2 0x2926 JUMP JUMPDEST PUSH2 0x2B4C DUP2 DUP6 PUSH2 0x2B2C JUMP JUMPDEST SWAP4 POP PUSH2 0x2B5C DUP2 DUP6 PUSH1 0x20 DUP7 ADD PUSH2 0x2942 JUMP JUMPDEST DUP1 DUP5 ADD SWAP2 POP POP SWAP3 SWAP2 POP POP JUMP JUMPDEST PUSH1 0x0 PUSH2 0x2B74 DUP3 DUP6 PUSH2 0x2B37 JUMP JUMPDEST SWAP2 POP PUSH2 0x2B80 DUP3 DUP5 PUSH2 0x2B37 JUMP JUMPDEST SWAP2 POP DUP2 SWAP1 POP SWAP4 SWAP3 POP POP POP JUMP JUMPDEST PUSH1 0x0 DUP2 SWAP1 POP DUP2 PUSH1 0x0 MSTORE PUSH1 0x20 PUSH1 0x0 KECCAK256 SWAP1 POP SWAP2 SWAP1 POP JUMP JUMPDEST PUSH1 0x0 PUSH1 0x20 PUSH1 0x1F DUP4 ADD DIV SWAP1 POP SWAP2 SWAP1 POP JUMP JUMPDEST PUSH1 0x0 DUP3 DUP3 SHL SWAP1 POP SWAP3 SWAP2 POP POP JUMP JUMPDEST PUSH1 0x0 PUSH1 0x8 DUP4 MUL PUSH2 0x2BEE PUSH32 0xFFFFFFFFFFFFFFFFFFFFFFFFFFFFFFFFFFFFFFFFFFFFFFFFFFFFFFFFFFFFFFFF DUP3 PUSH2 0x2BB1 JUMP JUMPDEST PUSH2 0x2BF8 DUP7 DUP4 PUSH2 0x2BB1 JUMP JUMPDEST SWAP6 POP DUP1 NOT DUP5 AND SWAP4 POP DUP1 DUP7 AND DUP5 OR SWAP3 POP POP POP SWAP4 SWAP3 POP POP POP JUMP JUMPDEST PUSH1 0x0 DUP2 SWAP1 POP SWAP2 SWAP1 POP JUMP JUMPDEST PUSH1 0x0 PUSH2 0x2C35 PUSH2 0x2C30 PUSH2 0x2C2B DUP5 PUSH2 0x2259 JUMP JUMPDEST PUSH2 0x2C10 JUMP JUMPDEST PUSH2 0x2259 JUMP JUMPDEST SWAP1 POP SWAP2 SWAP1 POP JUMP JUMPDEST PUSH1 0x0 DUP2 SWAP1 POP SWAP2 SWAP1 POP JUMP JUMPDEST PUSH2 0x2C4F DUP4 PUSH2 0x2C1A JUMP JUMPDEST PUSH2 0x2C63 PUSH2 0x2C5B DUP3 PUSH2 0x2C3C JUMP JUMPDEST DUP5 DUP5 SLOAD PUSH2 0x2BBE JUMP JUMPDEST DUP3 SSTORE POP POP POP POP JUMP JUMPDEST PUSH1 0x0 SWAP1 JUMP JUMPDEST PUSH2 0x2C78 PUSH2 0x2C6B JUMP JUMPDEST PUSH2 0x2C83 DUP2 DUP5 DUP5 PUSH2 0x2C46 JUMP JUMPDEST POP POP POP JUMP JUMPDEST JUMPDEST DUP2 DUP2 LT ISZERO PUSH2 0x2CA7 JUMPI PUSH2 0x2C9C PUSH1 0x0 DUP3 PUSH2 0x2C70 JUMP JUMPDEST PUSH1 0x1 DUP2 ADD SWAP1 POP PUSH2 0x2C89 JUMP JUMPDEST POP POP JUMP JUMPDEST PUSH1 0x1F DUP3 GT ISZERO PUSH2 0x2CEC JUMPI PUSH2 0x2CBD DUP2 PUSH2 0x2B8C JUMP JUMPDEST PUSH2 0x2CC6 DUP5 PUSH2 0x2BA1 JUMP JUMPDEST DUP2 ADD PUSH1 0x20 DUP6 LT ISZERO PUSH2 0x2CD5 JUMPI DUP2 SWAP1 POP JUMPDEST PUSH2 0x2CE9 PUSH2 0x2CE1 DUP6 PUSH2 0x2BA1 JUMP JUMPDEST DUP4 ADD DUP3 PUSH2 0x2C88 JUMP JUMPDEST POP POP JUMPDEST POP POP POP JUMP JUMPDEST PUSH1 0x0 DUP3 DUP3 SHR SWAP1 POP SWAP3 SWAP2 POP POP JUMP JUMPDEST PUSH1 0x0 PUSH2 0x2D0F PUSH1 0x0 NOT DUP5 PUSH1 0x8 MUL PUSH2 0x2CF1 JUMP JUMPDEST NOT DUP1 DUP4 AND SWAP2 POP POP SWAP3 SWAP2 POP POP JUMP JUMPDEST PUSH1 0x0 PUSH2 0x2D28 DUP4 DUP4 PUSH2 0x2CFE JUMP JUMPDEST SWAP2 POP DUP3 PUSH1 0x2 MUL DUP3 OR SWAP1 POP SWAP3 SWAP2 POP POP JUMP JUMPDEST PUSH2 0x2D41 DUP3 PUSH2 0x2926 JUMP JUMPDEST PUSH8 0xFFFFFFFFFFFFFFFF DUP2 GT ISZERO PUSH2 0x2D5A JUMPI PUSH2 0x2D59 PUSH2 0x262E JUMP JUMPDEST JUMPDEST PUSH2 0x2D64 DUP3 SLOAD PUSH2 0x2AFB JUMP JUMPDEST PUSH2 0x2D6F DUP3 DUP3 DUP6 PUSH2 0x2CAB JUMP JUMPDEST PUSH1 0x0 PUSH1 0x20 SWAP1 POP PUSH1 0x1F DUP4 GT PUSH1 0x1 DUP2 EQ PUSH2 0x2DA2 JUMPI PUSH1 0x0 DUP5 ISZERO PUSH2 0x2D90 JUMPI DUP3 DUP8 ADD MLOAD SWAP1 POP JUMPDEST PUSH2 0x2D9A DUP6 DUP3 PUSH2 0x2D1C JUMP JUMPDEST DUP7 SSTORE POP PUSH2 0x2E02 JUMP JUMPDEST PUSH1 0x1F NOT DUP5 AND PUSH2 0x2DB0 DUP7 PUSH2 0x2B8C JUMP JUMPDEST PUSH1 0x0 JUMPDEST DUP3 DUP2 LT ISZERO PUSH2 0x2DD8 JUMPI DUP5 DUP10 ADD MLOAD DUP3 SSTORE PUSH1 0x1 DUP3 ADD SWAP2 POP PUSH1 0x20 DUP6 ADD SWAP5 POP PUSH1 0x20 DUP2 ADD SWAP1 POP PUSH2 0x2DB3 JUMP JUMPDEST DUP7 DUP4 LT ISZERO PUSH2 0x2DF5 JUMPI DUP5 DUP10 ADD MLOAD PUSH2 0x2DF1 PUSH1 0x1F DUP10 AND DUP3 PUSH2 0x2CFE JUMP JUMPDEST DUP4 SSTORE POP JUMPDEST PUSH1 0x1 PUSH1 0x2 DUP9 MUL ADD DUP9 SSTORE POP POP POP JUMPDEST POP POP POP POP POP POP JUMP JUMPDEST PUSH32 0x4E487B7100000000000000000000000000000000000000000000000000000000 PUSH1 0x0 MSTORE PUSH1 0x11 PUSH1 0x4 MSTORE PUSH1 0x24 PUSH1 0x0 REVERT JUMPDEST PUSH1 0x0 PUSH2 0x2E44 DUP3 PUSH2 0x2259 JUMP JUMPDEST SWAP2 POP PUSH32 0xFFFFFFFFFFFFFFFFFFFFFFFFFFFFFFFFFFFFFFFFFFFFFFFFFFFFFFFFFFFFFFFF DUP3 SUB PUSH2 0x2E76 JUMPI PUSH2 0x2E75 PUSH2 0x2E0A JUMP JUMPDEST JUMPDEST PUSH1 0x1 DUP3 ADD SWAP1 POP SWAP2 SWAP1 POP JUMP JUMPDEST PUSH1 0x0 PUSH1 0xA0 DUP3 ADD SWAP1 POP PUSH2 0x2E96 PUSH1 0x0 DUP4 ADD DUP9 PUSH2 0x23AB JUMP JUMPDEST PUSH2 0x2EA3 PUSH1 0x20 DUP4 ADD DUP8 PUSH2 0x2263 JUMP JUMPDEST DUP2 DUP2 SUB PUSH1 0x40 DUP4 ADD MSTORE PUSH2 0x2EB5 DUP2 DUP7 PUSH2 0x296C JUMP JUMPDEST SWAP1 POP PUSH2 0x2EC4 PUSH1 0x60 DUP4 ADD DUP6 PUSH2 0x2263 JUMP JUMPDEST PUSH2 0x2ED1 PUSH1 0x80 DUP4 ADD DUP5 PUSH2 0x2263 JUMP JUMPDEST SWAP7 SWAP6 POP POP POP POP POP POP JUMP JUMPDEST PUSH32 0x4E6F74416C6C52657665616C6564000000000000000000000000000000000000 PUSH1 0x0 DUP3 ADD MSTORE POP JUMP JUMPDEST PUSH1 0x0 PUSH2 0x2F11 PUSH1 0xE DUP4 PUSH2 0x2931 JUMP JUMPDEST SWAP2 POP PUSH2 0x2F1C DUP3 PUSH2 0x2EDB JUMP JUMPDEST PUSH1 0x20 DUP3 ADD SWAP1 POP SWAP2 SWAP1 POP JUMP JUMPDEST PUSH1 0x0 PUSH1 0x20 DUP3 ADD SWAP1 POP DUP2 DUP2 SUB PUSH1 0x0 DUP4 ADD MSTORE PUSH2 0x2F40 DUP2 PUSH2 0x2F04 JUMP JUMPDEST SWAP1 POP SWAP2 SWAP1 POP JUMP JUMPDEST PUSH32 0x4F6D656761416C7265616479436F6D706C657465640000000000000000000000 PUSH1 0x0 DUP3 ADD MSTORE POP JUMP JUMPDEST PUSH1 0x0 PUSH2 0x2F7D PUSH1 0x15 DUP4 PUSH2 0x2931 JUMP JUMPDEST SWAP2 POP PUSH2 0x2F88 DUP3 PUSH2 0x2F47 JUMP JUMPDEST PUSH1 0x20 DUP3 ADD SWAP1 POP SWAP2 SWAP1 POP JUMP JUMPDEST PUSH1 0x0 PUSH1 0x20 DUP3 ADD SWAP1 POP DUP2 DUP2 SUB PUSH1 0x0 DUP4 ADD MSTORE PUSH2 0x2FAC DUP2 PUSH2 0x2F70 JUMP JUMPDEST SWAP1 POP SWAP2 SWAP1 POP JUMP JUMPDEST PUSH32 0x4E487B7100000000000000000000000000000000000000000000000000000000 PUSH1 0x0 MSTORE PUSH1 0x12 PUSH1 0x4 MSTORE PUSH1 0x24 PUSH1 0x0 REVERT JUMPDEST PUSH1 0x0 PUSH2 0x2FED DUP3 PUSH2 0x2259 JUMP JUMPDEST SWAP2 POP PUSH2 0x2FF8 DUP4 PUSH2 0x2259 JUMP JUMPDEST SWAP3 POP DUP3 PUSH2 0x3008 JUMPI PUSH2 0x3007 PUSH2 0x2FB3 JUMP JUMPDEST JUMPDEST DUP3 DUP3 MOD SWAP1 POP SWAP3 SWAP2 POP POP JUMP JUMPDEST PUSH1 0x0 PUSH1 0x80 DUP3 ADD SWAP1 POP PUSH2 0x3028 PUSH1 0x0 DUP4 ADD DUP8 PUSH2 0x2263 JUMP JUMPDEST PUSH2 0x3035 PUSH1 0x20 DUP4 ADD DUP7 PUSH2 0x2263 JUMP JUMPDEST PUSH2 0x3042 PUSH1 0x40 DUP4 ADD DUP6 PUSH2 0x2263 JUMP JUMPDEST PUSH2 0x304F PUSH1 0x60 DUP4 ADD DUP5 PUSH2 0x24EF JUMP JUMPDEST SWAP6 SWAP5 POP POP POP POP POP JUMP JUMPDEST PUSH32 0x4E487B7100000000000000000000000000000000000000000000000000000000 PUSH1 0x0 MSTORE PUSH1 0x32 PUSH1 0x4 MSTORE PUSH1 0x24 PUSH1 0x0 REVERT JUMPDEST PUSH32 0x544E6F744D617463686564000000000000000000000000000000000000000000 PUSH1 0x0 DUP3 ADD MSTORE POP JUMP JUMPDEST PUSH1 0x0 PUSH2 0x30BD PUSH1 0xB DUP4 PUSH2 0x2931 JUMP JUMPDEST SWAP2 POP PUSH2 0x30C8 DUP3 PUSH2 0x3087 JUMP JUMPDEST PUSH1 0x20 DUP3 ADD SWAP1 POP SWAP2 SWAP1 POP JUMP JUMPDEST PUSH1 0x0 PUSH1 0x20 DUP3 ADD SWAP1 POP DUP2 DUP2 SUB PUSH1 0x0 DUP4 ADD MSTORE PUSH2 0x30EC DUP2 PUSH2 0x30B0 JUMP JUMPDEST SWAP1 POP SWAP2 SWAP1 POP JUMP JUMPDEST PUSH1 0x0 PUSH1 0xA0 DUP3 DUP5 SUB SLT ISZERO PUSH2 0x3109 JUMPI PUSH2 0x3108 PUSH2 0x2297 JUMP JUMPDEST JUMPDEST PUSH1 0x0 PUSH2 0x3117 DUP5 DUP3 DUP6 ADD PUSH2 0x26DA JUMP JUMPDEST SWAP2 POP POP SWAP3 SWAP2 POP POP JUMP JUMPDEST PUSH32 0x5265636F764E6F744D6174636858000000000000000000000000000000000000 PUSH1 0x0 DUP3 ADD MSTORE POP JUMP JUMPDEST PUSH1 0x0 PUSH2 0x3156 PUSH1 0xE DUP4 PUSH2 0x2931 JUMP JUMPDEST SWAP2 POP PUSH2 0x3161 DUP3 PUSH2 0x3120 JUMP JUMPDEST PUSH1 0x20 DUP3 ADD SWAP1 POP SWAP2 SWAP1 POP JUMP JUMPDEST PUSH1 0x0 PUSH1 0x20 DUP3 ADD SWAP1 POP DUP2 DUP2 SUB PUSH1 0x0 DUP4 ADD MSTORE PUSH2 0x3185 DUP2 PUSH2 0x3149 JUMP JUMPDEST SWAP1 POP SWAP2 SWAP1 POP JUMP JUMPDEST PUSH1 0x0 PUSH1 0x80 DUP3 ADD SWAP1 POP PUSH2 0x31A1 PUSH1 0x0 DUP4 ADD DUP8 PUSH2 0x23AB JUMP JUMPDEST PUSH2 0x31AE PUSH1 0x20 DUP4 ADD DUP7 PUSH2 0x2263 JUMP JUMPDEST PUSH2 0x31BB PUSH1 0x40 DUP4 ADD DUP6 PUSH2 0x2263 JUMP JUMPDEST PUSH2 0x31C8 PUSH1 0x60 DUP4 ADD DUP5 PUSH2 0x2263 JUMP JUMPDEST SWAP6 SWAP5 POP POP POP POP POP JUMP JUMPDEST PUSH1 0x0 PUSH2 0x31DC DUP3 PUSH2 0x2259 JUMP JUMPDEST SWAP2 POP PUSH2 0x31E7 DUP4 PUSH2 0x2259 JUMP JUMPDEST SWAP3 POP DUP3 DUP3 ADD SWAP1 POP DUP1 DUP3 GT ISZERO PUSH2 0x31FF JUMPI PUSH2 0x31FE PUSH2 0x2E0A JUMP JUMPDEST JUMPDEST SWAP3 SWAP2 POP POP JUMP JUMPDEST PUSH1 0x0 DUP2 SLOAD PUSH2 0x3212 DUP2 PUSH2 0x2AFB JUMP JUMPDEST PUSH2 0x321C DUP2 DUP7 PUSH2 0x2B2C JUMP JUMPDEST SWAP5 POP PUSH1 0x1 DUP3 AND PUSH1 0x0 DUP2 EQ PUSH2 0x3237 JUMPI PUSH1 0x1 DUP2 EQ PUSH2 0x324C JUMPI PUSH2 0x327F JUMP JUMPDEST PUSH1 0xFF NOT DUP4 AND DUP7 MSTORE DUP2 ISZERO ISZERO DUP3 MUL DUP7 ADD SWAP4 POP PUSH2 0x327F JUMP JUMPDEST PUSH2 0x3255 DUP6 PUSH2 0x2B8C JUMP JUMPDEST PUSH1 0x0 JUMPDEST DUP4 DUP2 LT ISZERO PUSH2 0x3277 JUMPI DUP2 SLOAD DUP2 DUP10 ADD MSTORE PUSH1 0x1 DUP3 ADD SWAP2 POP PUSH1 0x20 DUP2 ADD SWAP1 POP PUSH2 0x3258 JUMP JUMPDEST DUP4 DUP9 ADD SWAP6 POP POP POP JUMPDEST POP POP POP SWAP3 SWAP2 POP POP JUMP JUMPDEST PUSH1 0x0 PUSH2 0x3294 DUP3 DUP5 PUSH2 0x3205 JUMP JUMPDEST SWAP2 POP DUP2 SWAP1 POP SWAP3 SWAP2 POP POP JUMP JUMPDEST PUSH32 0x436F6D6D697452657665616C4475726174696F6E4C6573735468616E436F6D6D PUSH1 0x0 DUP3 ADD MSTORE PUSH32 0x69744475726174696F6E00000000000000000000000000000000000000000000 PUSH1 0x20 DUP3 ADD MSTORE POP JUMP JUMPDEST PUSH1 0x0 PUSH2 0x32FB PUSH1 0x2A DUP4 PUSH2 0x2931 JUMP JUMPDEST SWAP2 POP PUSH2 0x3306 DUP3 PUSH2 0x329F JUMP JUMPDEST PUSH1 0x40 DUP3 ADD SWAP1 POP SWAP2 SWAP1 POP JUMP JUMPDEST PUSH1 0x0 PUSH1 0x20 DUP3 ADD SWAP1 POP DUP2 DUP2 SUB PUSH1 0x0 DUP4 ADD MSTORE PUSH2 0x332A DUP2 PUSH2 0x32EE JUMP JUMPDEST SWAP1 POP SWAP2 SWAP1 POP JUMP JUMPDEST PUSH32 0x53746167654E6F7446696E697368656400000000000000000000000000000000 PUSH1 0x0 DUP3 ADD MSTORE POP JUMP JUMPDEST PUSH1 0x0 PUSH2 0x3367 PUSH1 0x10 DUP4 PUSH2 0x2931 JUMP JUMPDEST SWAP2 POP PUSH2 0x3372 DUP3 PUSH2 0x3331 JUMP JUMPDEST PUSH1 0x20 DUP3 ADD SWAP1 POP SWAP2 SWAP1 POP JUMP JUMPDEST PUSH1 0x0 PUSH1 0x20 DUP3 ADD SWAP1 POP DUP2 DUP2 SUB PUSH1 0x0 DUP4 ADD MSTORE PUSH2 0x3396 DUP2 PUSH2 0x335A JUMP JUMPDEST SWAP1 POP SWAP2 SWAP1 POP JUMP JUMPDEST PUSH1 0x0 PUSH2 0x120 DUP3 ADD SWAP1 POP PUSH2 0x33B3 PUSH1 0x0 DUP4 ADD DUP13 PUSH2 0x23AB JUMP JUMPDEST PUSH2 0x33C0 PUSH1 0x20 DUP4 ADD DUP12 PUSH2 0x2263 JUMP JUMPDEST PUSH2 0x33CD PUSH1 0x40 DUP4 ADD DUP11 PUSH2 0x2263 JUMP JUMPDEST PUSH2 0x33DA PUSH1 0x60 DUP4 ADD DUP10 PUSH2 0x2263 JUMP JUMPDEST PUSH2 0x33E7 PUSH1 0x80 DUP4 ADD DUP9 PUSH2 0x2263 JUMP JUMPDEST PUSH2 0x33F4 PUSH1 0xA0 DUP4 ADD DUP8 PUSH2 0x2263 JUMP JUMPDEST PUSH2 0x3401 PUSH1 0xC0 DUP4 ADD DUP7 PUSH2 0x2263 JUMP JUMPDEST PUSH2 0x340E PUSH1 0xE0 DUP4 ADD DUP6 PUSH2 0x2263 JUMP JUMPDEST PUSH2 0x341C PUSH2 0x100 DUP4 ADD DUP5 PUSH2 0x2263 JUMP JUMPDEST SWAP11 SWAP10 POP POP POP POP POP POP POP POP POP POP JUMP JUMPDEST PUSH32 0x4E6F74436F6D6D69747465645061727469636970616E74000000000000000000 PUSH1 0x0 DUP3 ADD MSTORE POP JUMP JUMPDEST PUSH1 0x0 PUSH2 0x3460 PUSH1 0x17 DUP4 PUSH2 0x2931 JUMP JUMPDEST SWAP2 POP PUSH2 0x346B DUP3 PUSH2 0x342A JUMP JUMPDEST PUSH1 0x20 DUP3 ADD SWAP1 POP SWAP2 SWAP1 POP JUMP JUMPDEST PUSH1 0x0 PUSH1 0x20 DUP3 ADD SWAP1 POP DUP2 DUP2 SUB PUSH1 0x0 DUP4 ADD MSTORE PUSH2 0x348F DUP2 PUSH2 0x3453 JUMP JUMPDEST SWAP1 POP SWAP2 SWAP1 POP JUMP JUMPDEST PUSH32 0x416C726561647952657665616C65640000000000000000000000000000000000 PUSH1 0x0 DUP3 ADD MSTORE POP JUMP JUMPDEST PUSH1 0x0 PUSH2 0x34CC PUSH1 0xF DUP4 PUSH2 0x2931 JUMP JUMPDEST SWAP2 POP PUSH2 0x34D7 DUP3 PUSH2 0x3496 JUMP JUMPDEST PUSH1 0x20 DUP3 ADD SWAP1 POP SWAP2 SWAP1 POP JUMP JUMPDEST PUSH1 0x0 PUSH1 0x20 DUP3 ADD SWAP1 POP DUP2 DUP2 SUB PUSH1 0x0 DUP4 ADD MSTORE PUSH2 0x34FB DUP2 PUSH2 0x34BF JUMP JUMPDEST SWAP1 POP SWAP2 SWAP1 POP JUMP JUMPDEST PUSH32 0x414E6F744D61746368436F6D6D69740000000000000000000000000000000000 PUSH1 0x0 DUP3 ADD MSTORE POP JUMP JUMPDEST PUSH1 0x0 PUSH2 0x3538 PUSH1 0xF DUP4 PUSH2 0x2931 JUMP JUMPDEST SWAP2 POP PUSH2 0x3543 DUP3 PUSH2 0x3502 JUMP JUMPDEST PUSH1 0x20 DUP3 ADD SWAP1 POP SWAP2 SWAP1 POP JUMP JUMPDEST PUSH1 0x0 PUSH1 0x20 DUP3 ADD SWAP1 POP DUP2 DUP2 SUB PUSH1 0x0 DUP4 ADD MSTORE PUSH2 0x3567 DUP2 PUSH2 0x352B JUMP JUMPDEST SWAP1 POP SWAP2 SWAP1 POP JUMP JUMPDEST PUSH1 0x0 PUSH2 0x3579 DUP3 PUSH2 0x2259 JUMP JUMPDEST SWAP2 POP PUSH1 0x0 DUP3 SUB PUSH2 0x358C JUMPI PUSH2 0x358B PUSH2 0x2E0A JUMP JUMPDEST JUMPDEST PUSH1 0x1 DUP3 SUB SWAP1 POP SWAP2 SWAP1 POP JUMP JUMPDEST PUSH32 0x4F776E61626C653A206E6577206F776E657220697320746865207A65726F2061 PUSH1 0x0 DUP3 ADD MSTORE PUSH32 0x6464726573730000000000000000000000000000000000000000000000000000 PUSH1 0x20 DUP3 ADD MSTORE POP JUMP JUMPDEST PUSH1 0x0 PUSH2 0x35F3 PUSH1 0x26 DUP4 PUSH2 0x2931 JUMP JUMPDEST SWAP2 POP PUSH2 0x35FE DUP3 PUSH2 0x3597 JUMP JUMPDEST PUSH1 0x40 DUP3 ADD SWAP1 POP SWAP2 SWAP1 POP JUMP JUMPDEST PUSH1 0x0 PUSH1 0x20 DUP3 ADD SWAP1 POP DUP2 DUP2 SUB PUSH1 0x0 DUP4 ADD MSTORE PUSH2 0x3622 DUP2 PUSH2 0x35E6 JUMP JUMPDEST SWAP1 POP SWAP2 SWAP1 POP JUMP JUMPDEST PUSH32 0x4F776E61626C653A2063616C6C6572206973206E6F7420746865206F776E6572 PUSH1 0x0 DUP3 ADD MSTORE POP JUMP JUMPDEST PUSH1 0x0 PUSH2 0x365F PUSH1 0x20 DUP4 PUSH2 0x2931 JUMP JUMPDEST SWAP2 POP PUSH2 0x366A DUP3 PUSH2 0x3629 JUMP JUMPDEST PUSH1 0x20 DUP3 ADD SWAP1 POP SWAP2 SWAP1 POP JUMP JUMPDEST PUSH1 0x0 PUSH1 0x20 DUP3 ADD SWAP1 POP DUP2 DUP2 SUB PUSH1 0x0 DUP4 ADD MSTORE PUSH2 0x368E DUP2 PUSH2 0x3652 JUMP JUMPDEST SWAP1 POP SWAP2 SWAP1 POP JUMP JUMPDEST PUSH32 0x46756E6374696F6E496E76616C69644174546869735374616765000000000000 PUSH1 0x0 DUP3 ADD MSTORE POP JUMP JUMPDEST PUSH1 0x0 PUSH2 0x36CB PUSH1 0x1A DUP4 PUSH2 0x2931 JUMP JUMPDEST SWAP2 POP PUSH2 0x36D6 DUP3 PUSH2 0x3695 JUMP JUMPDEST PUSH1 0x20 DUP3 ADD SWAP1 POP SWAP2 SWAP1 POP JUMP JUMPDEST PUSH1 0x0 PUSH1 0x20 DUP3 ADD SWAP1 POP DUP2 DUP2 SUB PUSH1 0x0 DUP4 ADD MSTORE PUSH2 0x36FA DUP2 PUSH2 0x36BE JUMP JUMPDEST SWAP1 POP SWAP2 SWAP1 POP JUMP JUMPDEST PUSH1 0x0 PUSH2 0x370C DUP3 PUSH2 0x2259 JUMP JUMPDEST SWAP2 POP PUSH2 0x3717 DUP4 PUSH2 0x2259 JUMP JUMPDEST SWAP3 POP DUP3 PUSH2 0x3727 JUMPI PUSH2 0x3726 PUSH2 0x2FB3 JUMP JUMPDEST JUMPDEST DUP3 DUP3 DIV SWAP1 POP SWAP3 SWAP2 POP POP JUMP JUMPDEST PUSH32 0x416C6C46696E6973686564000000000000000000000000000000000000000000 PUSH1 0x0 DUP3 ADD MSTORE POP JUMP JUMPDEST PUSH1 0x0 PUSH2 0x3768 PUSH1 0xB DUP4 PUSH2 0x2931 JUMP JUMPDEST SWAP2 POP PUSH2 0x3773 DUP3 PUSH2 0x3732 JUMP JUMPDEST PUSH1 0x20 DUP3 ADD SWAP1 POP SWAP2 SWAP1 POP JUMP JUMPDEST PUSH1 0x0 PUSH1 0x20 DUP3 ADD SWAP1 POP DUP2 DUP2 SUB PUSH1 0x0 DUP4 ADD MSTORE PUSH2 0x3797 DUP2 PUSH2 0x375B JUMP JUMPDEST SWAP1 POP SWAP2 SWAP1 POP JUMP JUMPDEST PUSH1 0x0 PUSH2 0x37A9 DUP3 PUSH2 0x2259 JUMP JUMPDEST SWAP2 POP PUSH2 0x37B4 DUP4 PUSH2 0x2259 JUMP JUMPDEST SWAP3 POP DUP3 DUP3 MUL PUSH2 0x37C2 DUP2 PUSH2 0x2259 JUMP JUMPDEST SWAP2 POP DUP3 DUP3 DIV DUP5 EQ DUP4 ISZERO OR PUSH2 0x37D9 JUMPI PUSH2 0x37D8 PUSH2 0x2E0A JUMP JUMPDEST JUMPDEST POP SWAP3 SWAP2 POP POP JUMP JUMPDEST PUSH1 0x0 PUSH2 0x37EC DUP3 DUP5 PUSH2 0x2B37 JUMP JUMPDEST SWAP2 POP DUP2 SWAP1 POP SWAP3 SWAP2 POP POP JUMP INVALID LOG2 PUSH5 0x6970667358 0x22 SLT KECCAK256 CALLVALUE ORIGIN CALLER DUP3 PUSH12 0x2E261A6ED600CED5B5C0CA8E 0xD1 CREATE INVALID LOG3 EXTCODESIZE LOG0 PUSH31 0x7D43434E7AB3EEFB64736F6C63430008130033000000000000000000000000 "},"gasEstimates":{"creation":{"codeDepositCost":"2876200","executionCost":"infinite","totalCost":"infinite"},"external":{"calculateOmega()":"infinite","checkStage()":"infinite","commit(uint256,address)":"infinite","commitDuration()":"2496","commitRevealDuration()":"2540","commitRevealValues(uint256,uint256)":"infinite","commitsString()":"infinite","count()":"2453","owner()":"2611","recover(uint256,(uint256,uint256,uint256,uint256,uint256)[])":"infinite","renounceOwnership()":"30487","reveal(uint256,address)":"infinite","round()":"2519","stage()":"2626","start(uint256,uint256,uint256,address,(uint256,uint256,uint256,uint256,uint256)[])":"infinite","startTime()":"2474","transferOwnership(address)":"30854","userInfosAtRound(address,uint256)":"infinite","valuesAtRound(uint256)":"infinite"},"internal":{"equalStage(enum CommitRecover.Stages)":"infinite","nextStage()":"infinite","overStage(enum CommitRecover.Stages)":"infinite"}},"methodIdentifiers":{"calculateOmega()":"12ce9906","checkStage()":"7f93c751","commit(uint256,address)":"0d64b071","commitDuration()":"6f833811","commitRevealDuration()":"73fa4f46","commitRevealValues(uint256,uint256)":"22fadc28","commitsString()":"dca669e4","count()":"06661abd","owner()":"8da5cb5b","recover(uint256,(uint256,uint256,uint256,uint256,uint256)[])":"50d30cbf","renounceOwnership()":"715018a6","reveal(uint256,address)":"bfb70e04","round()":"146ca531","stage()":"c040e6b8","start(uint256,uint256,uint256,address,(uint256,uint256,uint256,uint256,uint256)[])":"b6ca76e0","startTime()":"78e97925","transferOwnership(address)":"f2fde38b","userInfosAtRound(address,uint256)":"b0e9eb3f","valuesAtRound(uint256)":"77f0ade9"}},"storageLayout":{"storage":[{"astId":7,"contract":"contracts/CommitRecover.sol:CommitRecover","label":"_owner","offset":0,"slot":"0","type":"t_address"},{"astId":180,"contract":"contracts/CommitRecover.sol:CommitRecover","label":"startTime","offset":0,"slot":"1","type":"t_uint256"},{"astId":182,"contract":"contracts/CommitRecover.sol:CommitRecover","label":"commitDuration","offset":0,"slot":"2","type":"t_uint256"},{"astId":184,"contract":"contracts/CommitRecover.sol:CommitRecover","label":"commitRevealDuration","offset":0,"slot":"3","type":"t_uint256"},{"astId":186,"contract":"contracts/CommitRecover.sol:CommitRecover","label":"count","offset":0,"slot":"4","type":"t_uint256"},{"astId":188,"contract":"contracts/CommitRecover.sol:CommitRecover","label":"round","offset":0,"slot":"5","type":"t_uint256"},{"astId":190,"contract":"contracts/CommitRecover.sol:CommitRecover","label":"commitsString","offset":0,"slot":"6","type":"t_string_storage"},{"astId":193,"contract":"contracts/CommitRecover.sol:CommitRecover","label":"stage","offset":0,"slot":"7","type":"t_enum(Stages)145"},{"astId":200,"contract":"contracts/CommitRecover.sol:CommitRecover","label":"commitRevealValues","offset":0,"slot":"8","type":"t_mapping(t_uint256,t_mapping(t_uint256,t_struct(CommitRevealValue)171_storage))"},{"astId":205,"contract":"contracts/CommitRecover.sol:CommitRecover","label":"valuesAtRound","offset":0,"slot":"9","type":"t_mapping(t_uint256,t_struct(ValueAtRound)164_storage)"},{"astId":212,"contract":"contracts/CommitRecover.sol:CommitRecover","label":"userInfosAtRound","offset":0,"slot":"10","type":"t_mapping(t_address,t_mapping(t_uint256,t_struct(UserAtRound)178_storage))"}],"types":{"t_address":{"encoding":"inplace","label":"address","numberOfBytes":"20"},"t_bool":{"encoding":"inplace","label":"bool","numberOfBytes":"1"},"t_enum(Stages)145":{"encoding":"inplace","label":"enum CommitRecover.Stages","numberOfBytes":"1"},"t_mapping(t_address,t_mapping(t_uint256,t_struct(UserAtRound)178_storage))":{"encoding":"mapping","key":"t_address","label":"mapping(address => mapping(uint256 => struct CommitRecover.UserAtRound))","numberOfBytes":"32","value":"t_mapping(t_uint256,t_struct(UserAtRound)178_storage)"},"t_mapping(t_uint256,t_mapping(t_uint256,t_struct(CommitRevealValue)171_storage))":{"encoding":"mapping","key":"t_uint256","label":"mapping(uint256 => mapping(uint256 => struct CommitRecover.CommitRevealValue))","numberOfBytes":"32","value":"t_mapping(t_uint256,t_struct(CommitRevealValue)171_storage)"},"t_mapping(t_uint256,t_struct(CommitRevealValue)171_storage)":{"encoding":"mapping","key":"t_uint256","label":"mapping(uint256 => struct CommitRecover.CommitRevealValue)","numberOfBytes":"32","value":"t_struct(CommitRevealValue)171_storage"},"t_mapping(t_uint256,t_struct(UserAtRound)178_storage)":{"encoding":"mapping","key":"t_uint256","label":"mapping(uint256 => struct CommitRecover.UserAtRound)","numberOfBytes":"32","value":"t_struct(UserAtRound)178_storage"},"t_mapping(t_uint256,t_struct(ValueAtRound)164_storage)":{"encoding":"mapping","key":"t_uint256","label":"mapping(uint256 => struct CommitRecover.ValueAtRound)","numberOfBytes":"32","value":"t_struct(ValueAtRound)164_storage"},"t_string_storage":{"encoding":"bytes","label":"string","numberOfBytes":"32"},"t_struct(CommitRevealValue)171_storage":{"encoding":"inplace","label":"struct CommitRecover.CommitRevealValue","members":[{"astId":166,"contract":"contracts/CommitRecover.sol:CommitRecover","label":"c","offset":0,"slot":"0","type":"t_uint256"},{"astId":168,"contract":"contracts/CommitRecover.sol:CommitRecover","label":"a","offset":0,"slot":"1","type":"t_uint256"},{"astId":170,"contract":"contracts/CommitRecover.sol:CommitRecover","label":"participantAddress","offset":0,"slot":"2","type":"t_address"}],"numberOfBytes":"96"},"t_struct(UserAtRound)178_storage":{"encoding":"inplace","label":"struct CommitRecover.UserAtRound","members":[{"astId":173,"contract":"contracts/CommitRecover.sol:CommitRecover","label":"index","offset":0,"slot":"0","type":"t_uint256"},{"astId":175,"contract":"contracts/CommitRecover.sol:CommitRecover","label":"committed","offset":0,"slot":"1","type":"t_bool"},{"astId":177,"contract":"contracts/CommitRecover.sol:CommitRecover","label":"revealed","offset":1,"slot":"1","type":"t_bool"}],"numberOfBytes":"64"},"t_struct(ValueAtRound)164_storage":{"encoding":"inplace","label":"struct CommitRecover.ValueAtRound","members":[{"astId":147,"contract":"contracts/CommitRecover.sol:CommitRecover","label":"omega","offset":0,"slot":"0","type":"t_uint256"},{"astId":149,"contract":"contracts/CommitRecover.sol:CommitRecover","label":"bStar","offset":0,"slot":"1","type":"t_uint256"},{"astId":151,"contract":"contracts/CommitRecover.sol:CommitRecover","label":"numOfParticipants","offset":0,"slot":"2","type":"t_uint256"},{"astId":153,"contract":"contracts/CommitRecover.sol:CommitRecover","label":"g","offset":0,"slot":"3","type":"t_uint256"},{"astId":155,"contract":"contracts/CommitRecover.sol:CommitRecover","label":"h","offset":0,"slot":"4","type":"t_uint256"},{"astId":157,"contract":"contracts/CommitRecover.sol:CommitRecover","label":"n","offset":0,"slot":"5","type":"t_uint256"},{"astId":159,"contract":"contracts/CommitRecover.sol:CommitRecover","label":"T","offset":0,"slot":"6","type":"t_uint256"},{"astId":161,"contract":"contracts/CommitRecover.sol:CommitRecover","label":"isCompleted","offset":0,"slot":"7","type":"t_bool"},{"astId":163,"contract":"contracts/CommitRecover.sol:CommitRecover","label":"isAllRevealed","offset":1,"slot":"7","type":"t_bool"}],"numberOfBytes":"256"},"t_uint256":{"encoding":"inplace","label":"uint256","numberOfBytes":"32"}}},"userdoc":{"kind":"user","methods":{"checkStage()":{"notice":"checkStage functionrevert if the current stage is not the given stagethis function is used to check if the current stage is the given stageit will update the stage to the next stage if needed"},"commit(uint256,address)":{"notice":"Commit functionThe participant's commit value must be less than the modulorThe participant can only commit oncecheck period, update stage if needed, revert if not currently at commit stage"},"recover(uint256,(uint256,uint256,uint256,uint256,uint256)[])":{"notice":"Recover functionThe recovered value must be less than the modulorrevert if currently at commit stagerevert if count == 0 meaning no one has committedcalculate and finalize omega"},"reveal(uint256,address)":{"notice":"Reveal functionh must be set before revealparticipant must have committedparticipant must not have revealedThe participant's reveal value must match the commit valueThe participant's reveal value must be less than the modulorcheck period, update stage if needed, revert if not currently at reveal stageupdate omega, countif count == 0, update valuesAtRound, stageupdate userInfosAtRound"},"start(uint256,uint256,uint256,address,(uint256,uint256,uint256,uint256,uint256)[])":{"notice":"Start functionThe contract must be in the Finished stageThe commit period must be less than the commit + reveal periodThe g value must be less than the modulorreset count, commitsString, isHAndBStarSet, stage, startTime, commitDuration, commitRevealDuration, n, g, omegaincrease round"}},"notice":"This contract is for generating random number    1. Commit: participants commit their value    2. Reveal: participants reveal their value    3. Finished: Calculate or recover the random number    4. go to 1","version":1}}}}